{
  "contractName": "EstateToken",
  "abi": [
    {
      "constant": false,
      "inputs": [
        {
          "name": "_tokenId",
          "type": "uint256"
        },
        {
          "name": "_newSellValPerSqFt",
          "type": "uint256"
        },
        {
          "name": "_newRentValPerSqFtPerDay",
          "type": "uint256"
        }
      ],
      "name": "setValues",
      "outputs": [],
      "payable": false,
      "stateMutability": "nonpayable",
      "type": "function"
    },
    {
      "constant": true,
      "inputs": [
        {
          "name": "",
          "type": "uint256"
        }
      ],
      "name": "token2Owner",
      "outputs": [
        {
          "name": "",
          "type": "address"
        }
      ],
      "payable": false,
      "stateMutability": "view",
      "type": "function"
    },
    {
      "constant": true,
      "inputs": [],
      "name": "noOfTokens",
      "outputs": [
        {
          "name": "",
          "type": "uint256"
        }
      ],
      "payable": false,
      "stateMutability": "view",
      "type": "function"
    },
    {
      "constant": true,
      "inputs": [],
      "name": "propertyTaxPercentage",
      "outputs": [
        {
          "name": "",
          "type": "uint256"
        }
      ],
      "payable": false,
      "stateMutability": "view",
      "type": "function"
    },
    {
      "constant": true,
      "inputs": [
        {
          "name": "_propId",
          "type": "uint256"
        }
      ],
      "name": "calcRentPerSqFtPerDay",
      "outputs": [
        {
          "name": "",
          "type": "uint256"
        }
      ],
      "payable": false,
      "stateMutability": "view",
      "type": "function"
    },
    {
      "constant": false,
      "inputs": [
        {
          "name": "_percentage",
          "type": "uint256"
        }
      ],
      "name": "setPropertyTaxPercentage",
      "outputs": [],
      "payable": false,
      "stateMutability": "nonpayable",
      "type": "function"
    },
    {
      "constant": true,
      "inputs": [
        {
          "name": "",
          "type": "uint256"
        }
      ],
      "name": "tokens",
      "outputs": [
        {
          "name": "propId",
          "type": "uint256"
        },
        {
          "name": "boughtAtValuePerSqFt",
          "type": "uint256"
        },
        {
          "name": "sellValPerSqFt",
          "type": "uint256"
        },
        {
          "name": "rentValPerSqFtPerDay",
          "type": "uint256"
        }
      ],
      "payable": false,
      "stateMutability": "view",
      "type": "function"
    },
    {
      "constant": false,
      "inputs": [
        {
          "name": "_propId",
          "type": "uint256"
        },
        {
          "name": "_days",
          "type": "uint256"
        }
      ],
      "name": "Rent",
      "outputs": [],
      "payable": true,
      "stateMutability": "payable",
      "type": "function"
    },
    {
      "constant": false,
      "inputs": [
        {
          "name": "_propId",
          "type": "uint256"
        },
        {
          "name": "_newDocsHash",
          "type": "string"
        }
      ],
      "name": "changeDocsHash",
      "outputs": [],
      "payable": false,
      "stateMutability": "nonpayable",
      "type": "function"
    },
    {
      "constant": false,
      "inputs": [],
      "name": "renounceOwnership",
      "outputs": [],
      "payable": false,
      "stateMutability": "nonpayable",
      "type": "function"
    },
    {
      "constant": false,
      "inputs": [
        {
          "name": "_name",
          "type": "string"
        },
        {
          "name": "_main_owner",
          "type": "address"
        },
        {
          "name": "_sqFt",
          "type": "uint256"
        },
        {
          "name": "_boughtAtValuePerSqFt",
          "type": "uint256"
        },
        {
          "name": "_sellValPerSqFt",
          "type": "uint256"
        },
        {
          "name": "_rentValPerSqFtPerDay",
          "type": "uint256"
        },
        {
          "name": "image",
          "type": "string"
        }
      ],
      "name": "newProperty",
      "outputs": [],
      "payable": false,
      "stateMutability": "nonpayable",
      "type": "function"
    },
    {
      "constant": false,
      "inputs": [
        {
          "name": "_percentage",
          "type": "uint256"
        }
      ],
      "name": "setMainOwnerSharePercentage",
      "outputs": [],
      "payable": false,
      "stateMutability": "nonpayable",
      "type": "function"
    },
    {
      "constant": true,
      "inputs": [],
      "name": "owner",
      "outputs": [
        {
          "name": "",
          "type": "address"
        }
      ],
      "payable": false,
      "stateMutability": "view",
      "type": "function"
    },
    {
      "constant": true,
      "inputs": [],
      "name": "isOwner",
      "outputs": [
        {
          "name": "",
          "type": "bool"
        }
      ],
      "payable": false,
      "stateMutability": "view",
      "type": "function"
    },
    {
      "constant": true,
      "inputs": [],
      "name": "mainOwnerSharePercentage",
      "outputs": [
        {
          "name": "",
          "type": "uint256"
        }
      ],
      "payable": false,
      "stateMutability": "view",
      "type": "function"
    },
    {
      "constant": false,
      "inputs": [
        {
          "name": "_propId",
          "type": "uint256"
        },
        {
          "name": "_newOwner",
          "type": "address"
        }
      ],
      "name": "changeMainOwner",
      "outputs": [],
      "payable": false,
      "stateMutability": "nonpayable",
      "type": "function"
    },
    {
      "constant": false,
      "inputs": [
        {
          "name": "_propId",
          "type": "uint256"
        },
        {
          "name": "_newSqFt",
          "type": "uint256"
        }
      ],
      "name": "increaseArea",
      "outputs": [],
      "payable": false,
      "stateMutability": "nonpayable",
      "type": "function"
    },
    {
      "constant": true,
      "inputs": [],
      "name": "noOfProperties",
      "outputs": [
        {
          "name": "",
          "type": "uint256"
        }
      ],
      "payable": false,
      "stateMutability": "view",
      "type": "function"
    },
    {
      "constant": true,
      "inputs": [
        {
          "name": "",
          "type": "uint256"
        }
      ],
      "name": "property2MainOwner",
      "outputs": [
        {
          "name": "",
          "type": "address"
        }
      ],
      "payable": false,
      "stateMutability": "view",
      "type": "function"
    },
    {
      "constant": false,
      "inputs": [
        {
          "name": "newOwner",
          "type": "address"
        }
      ],
      "name": "transferOwnership",
      "outputs": [],
      "payable": false,
      "stateMutability": "nonpayable",
      "type": "function"
    },
    {
      "constant": true,
      "inputs": [
        {
          "name": "",
          "type": "uint256"
        }
      ],
      "name": "props",
      "outputs": [
        {
          "name": "name",
          "type": "string"
        },
        {
          "name": "sqFt",
          "type": "uint256"
        },
        {
          "name": "rentedAtValue",
          "type": "uint256"
        },
        {
          "name": "rentedBy",
          "type": "address"
        },
        {
          "name": "rentedUntil",
          "type": "uint256"
        },
        {
          "name": "docsHash",
          "type": "string"
        }
      ],
      "payable": false,
      "stateMutability": "view",
      "type": "function"
    },
    {
      "anonymous": false,
      "inputs": [
        {
          "indexed": false,
          "name": "propId",
          "type": "uint256"
        },
        {
          "indexed": false,
          "name": "rentVal",
          "type": "uint256"
        },
        {
          "indexed": false,
          "name": "_days",
          "type": "uint256"
        }
      ],
      "name": "Rented",
      "type": "event"
    },
    {
      "anonymous": false,
      "inputs": [
        {
          "indexed": false,
          "name": "name",
          "type": "string"
        },
        {
          "indexed": false,
          "name": "mainOwner",
          "type": "address"
        },
        {
          "indexed": false,
          "name": "sqFt",
          "type": "uint256"
        },
        {
          "indexed": false,
          "name": "propId",
          "type": "uint256"
        }
      ],
      "name": "NewProperty",
      "type": "event"
    },
    {
      "anonymous": false,
      "inputs": [
        {
          "indexed": true,
          "name": "previousOwner",
          "type": "address"
        },
        {
          "indexed": true,
          "name": "newOwner",
          "type": "address"
        }
      ],
      "name": "OwnershipTransferred",
      "type": "event"
    },
    {
      "anonymous": false,
      "inputs": [
        {
          "indexed": true,
          "name": "_from",
          "type": "address"
        },
        {
          "indexed": true,
          "name": "_to",
          "type": "address"
        },
        {
          "indexed": true,
          "name": "_tokenId",
          "type": "uint256"
        }
      ],
      "name": "Transfer",
      "type": "event"
    },
    {
      "anonymous": false,
      "inputs": [
        {
          "indexed": true,
          "name": "_owner",
          "type": "address"
        },
        {
          "indexed": true,
          "name": "_approved",
          "type": "address"
        },
        {
          "indexed": true,
          "name": "_tokenId",
          "type": "uint256"
        }
      ],
      "name": "Approval",
      "type": "event"
    },
    {
      "constant": true,
      "inputs": [
        {
          "name": "_owner",
          "type": "address"
        }
      ],
      "name": "balanceOf",
      "outputs": [
        {
          "name": "",
          "type": "uint256"
        }
      ],
      "payable": false,
      "stateMutability": "view",
      "type": "function"
    },
    {
      "constant": true,
      "inputs": [
        {
          "name": "_tokenId",
          "type": "uint256"
        }
      ],
      "name": "ownerOf",
      "outputs": [
        {
          "name": "",
          "type": "address"
        }
      ],
      "payable": false,
      "stateMutability": "view",
      "type": "function"
    },
    {
      "constant": false,
      "inputs": [
        {
          "name": "_from",
          "type": "address"
        },
        {
          "name": "_to",
          "type": "address"
        },
        {
          "name": "_tokenId",
          "type": "uint256"
        }
      ],
      "name": "transferFrom",
      "outputs": [],
      "payable": true,
      "stateMutability": "payable",
      "type": "function"
    },
    {
      "constant": false,
      "inputs": [
        {
          "name": "_tokenId",
          "type": "uint256"
        }
      ],
      "name": "buy",
      "outputs": [],
      "payable": true,
      "stateMutability": "payable",
      "type": "function"
    },
    {
      "constant": false,
      "inputs": [
        {
          "name": "_approved",
          "type": "address"
        },
        {
          "name": "_tokenId",
          "type": "uint256"
        }
      ],
      "name": "approve",
      "outputs": [],
      "payable": true,
      "stateMutability": "payable",
      "type": "function"
    }
  ],
  "bytecode": "0x608060405260006001556000600255600a6007556005600855336000806101000a81548173ffffffffffffffffffffffffffffffffffffffff021916908373ffffffffffffffffffffffffffffffffffffffff1602179055506000809054906101000a900473ffffffffffffffffffffffffffffffffffffffff1673ffffffffffffffffffffffffffffffffffffffff16600073ffffffffffffffffffffffffffffffffffffffff167f8be0079c531659141344cd1fd0a4f28419497f9722a3daafe3b4186f6b6457e060405160405180910390a3612649806100e36000396000f300608060405260043610610154576000357c0100000000000000000000000000000000000000000000000000000000900463ffffffff168063095ea7b314610159578063111be316146101995780631dca7fcf146101da57806323b872dd1461024757806336e9b344146102a7578063374a12bf146102d25780633c0d2db4146102fd5780633f433efa1461033e5780634f64b2be1461036b5780636352211e146103c1578063659bdfb51461042e578063672799e91461045857806370a082311461049d578063715018a6146104f457806375ef62f41461050b57806383f85d3b146106025780638da5cb5b1461062f5780638f32d59b146106865780639efb887f146106b5578063b89ac03d146106e0578063cd4991281461072d578063d96a094a14610764578063d9ddc49414610784578063dea6a04b146107af578063f2fde38b1461081c578063fda54c161461085f575b600080fd5b610197600480360381019080803573ffffffffffffffffffffffffffffffffffffffff169060200190929190803590602001909291905050506109b9565b005b3480156101a557600080fd5b506101d8600480360381019080803590602001909291908035906020019092919080359060200190929190505050610b68565b005b3480156101e657600080fd5b5061020560048036038101908080359060200190929190505050610cb5565b604051808273ffffffffffffffffffffffffffffffffffffffff1673ffffffffffffffffffffffffffffffffffffffff16815260200191505060405180910390f35b6102a5600480360381019080803573ffffffffffffffffffffffffffffffffffffffff169060200190929190803573ffffffffffffffffffffffffffffffffffffffff16906020019092919080359060200190929190505050610ce8565b005b3480156102b357600080fd5b506102bc610dcb565b6040518082815260200191505060405180910390f35b3480156102de57600080fd5b506102e7610dd1565b6040518082815260200191505060405180910390f35b34801561030957600080fd5b5061032860048036038101908080359060200190929190505050610dd7565b6040518082815260200191505060405180910390f35b34801561034a57600080fd5b5061036960048036038101908080359060200190929190505050610e88565b005b34801561037757600080fd5b5061039660048036038101908080359060200190929190505050610f34565b6040518085815260200184815260200183815260200182815260200194505050505060405180910390f35b3480156103cd57600080fd5b506103ec60048036038101908080359060200190929190505050610f73565b604051808273ffffffffffffffffffffffffffffffffffffffff1673ffffffffffffffffffffffffffffffffffffffff16815260200191505060405180910390f35b6104566004803603810190808035906020019092919080359060200190929190505050610fb0565b005b34801561046457600080fd5b5061049b60048036038101908080359060200190929190803590602001908201803590602001919091929391929390505050611340565b005b3480156104a957600080fd5b506104de600480360381019080803573ffffffffffffffffffffffffffffffffffffffff169060200190929190505050611473565b6040518082815260200191505060405180910390f35b34801561050057600080fd5b50610509611511565b005b34801561051757600080fd5b50610600600480360381019080803590602001908201803590602001908080601f0160208091040260200160405190810160405280939291908181526020018383808284378201915050505050509192919290803573ffffffffffffffffffffffffffffffffffffffff16906020019092919080359060200190929190803590602001909291908035906020019092919080359060200190929190803590602001908201803590602001908080601f0160208091040260200160405190810160405280939291908181526020018383808284378201915050505050509192919290505050611672565b005b34801561060e57600080fd5b5061062d60048036038101908080359060200190929190505050611a7f565b005b34801561063b57600080fd5b50610644611b2b565b604051808273ffffffffffffffffffffffffffffffffffffffff1673ffffffffffffffffffffffffffffffffffffffff16815260200191505060405180910390f35b34801561069257600080fd5b5061069b611b54565b604051808215151515815260200191505060405180910390f35b3480156106c157600080fd5b506106ca611bab565b6040518082815260200191505060405180910390f35b3480156106ec57600080fd5b5061072b60048036038101908080359060200190929190803573ffffffffffffffffffffffffffffffffffffffff169060200190929190505050611bb1565b005b34801561073957600080fd5b506107626004803603810190808035906020019092919080359060200190929190505050611d05565b005b61078260048036038101908080359060200190929190505050611e04565b005b34801561079057600080fd5b50610799612062565b6040518082815260200191505060405180910390f35b3480156107bb57600080fd5b506107da60048036038101908080359060200190929190505050612068565b604051808273ffffffffffffffffffffffffffffffffffffffff1673ffffffffffffffffffffffffffffffffffffffff16815260200191505060405180910390f35b34801561082857600080fd5b5061085d600480360381019080803573ffffffffffffffffffffffffffffffffffffffff16906020019092919050505061209b565b005b34801561086b57600080fd5b5061088a60048036038101908080359060200190929190505050612149565b60405180806020018781526020018681526020018573ffffffffffffffffffffffffffffffffffffffff1673ffffffffffffffffffffffffffffffffffffffff16815260200184815260200180602001838103835289818151815260200191508051906020019080838360005b838110156109125780820151818401526020810190506108f7565b50505050905090810190601f16801561093f5780820380516001836020036101000a031916815260200191505b50838103825284818151815260200191508051906020019080838360005b8381101561097857808201518184015260208101905061095d565b50505050905090810190601f1680156109a55780820380516001836020036101000a031916815260200191505b509850505050505050505060405180910390f35b806005600082815260200190815260200160002060009054906101000a900473ffffffffffffffffffffffffffffffffffffffff1673ffffffffffffffffffffffffffffffffffffffff163373ffffffffffffffffffffffffffffffffffffffff16141515610ab6576040517f08c379a00000000000000000000000000000000000000000000000000000000081526004018080602001828103825260218152602001807f43616e206f6e6c7920626520657865637574656420627920746865206f776e6581526020017f720000000000000000000000000000000000000000000000000000000000000081525060400191505060405180910390fd5b826009600084815260200190815260200160002060006101000a81548173ffffffffffffffffffffffffffffffffffffffff021916908373ffffffffffffffffffffffffffffffffffffffff160217905550818373ffffffffffffffffffffffffffffffffffffffff163373ffffffffffffffffffffffffffffffffffffffff167f8c5be1e5ebec7d5bd14f71427d1e84f3dd0314c0f7b2291e5b200ac8c7c3b92560405160405180910390a4505050565b826005600082815260200190815260200160002060009054906101000a900473ffffffffffffffffffffffffffffffffffffffff1673ffffffffffffffffffffffffffffffffffffffff163373ffffffffffffffffffffffffffffffffffffffff16141515610c65576040517f08c379a00000000000000000000000000000000000000000000000000000000081526004018080602001828103825260218152602001807f43616e206f6e6c7920626520657865637574656420627920746865206f776e6581526020017f720000000000000000000000000000000000000000000000000000000000000081525060400191505060405180910390fd5b82600385815481101515610c7557fe5b90600052602060002090600402016002018190555081600385815481101515610c9a57fe5b90600052602060002090600402016003018190555050505050565b60056020528060005260406000206000915054906101000a900473ffffffffffffffffffffffffffffffffffffffff1681565b6000600382815481101515610cf957fe5b90600052602060002090600402016002015490508034141515610d1b57600080fd5b6005600083815260200190815260200160002060009054906101000a900473ffffffffffffffffffffffffffffffffffffffff1673ffffffffffffffffffffffffffffffffffffffff166108fc829081150290604051600060405180830381858888f19350505050158015610d94573d6000803e3d6000fd5b5080600383815481101515610da557fe5b906000526020600020906004020160010181905550610dc58484846122e4565b50505050565b60015481565b60085481565b6000806000809150600090505b600154811015610e495783600382815481101515610dfe57fe5b9060005260206000209060040201600001541415610e3c57600381815481101515610e2557fe5b906000526020600020906004020160030154820191505b8080600101915050610de4565b610e7c600485815481101515610e5b57fe5b9060005260206000209060060201600101548361239690919063ffffffff16565b91508192505050919050565b610e90611b54565b1515610f2a576040517f08c379a000000000000000000000000000000000000000000000000000000000815260040180806020018281038252602a8152602001807f43616e206f6e6c792062652065786563757465642062792074686520676f766581526020017f726e696e6720626f64790000000000000000000000000000000000000000000081525060400191505060405180910390fd5b8060088190555050565b600381815481101515610f4357fe5b90600052602060002090600402016000915090508060000154908060010154908060020154908060030154905084565b60006005600083815260200190815260200160002060009054906101000a900473ffffffffffffffffffffffffffffffffffffffff169050919050565b6000806000806000610fc187610dd7565b9450611008600488815481101515610fd557fe5b906000526020600020906006020160010154610ffa88886123c090919063ffffffff16565b6123c090919063ffffffff16565b9350670de0b6b3a764000084023414151561108b576040517f08c379a00000000000000000000000000000000000000000000000000000000081526004018080602001828103825260188152602001807f496e636f72726563742065746865722070726f7669646564000000000000000081525060200191505060405180910390fd5b6110b360646110a5600754876123c090919063ffffffff16565b61239690919063ffffffff16565b92506006600088815260200190815260200160002060009054906101000a900473ffffffffffffffffffffffffffffffffffffffff1673ffffffffffffffffffffffffffffffffffffffff166108fc849081150290604051600060405180830381858888f1935050505015801561112e573d6000803e3d6000fd5b508284039350600091505b600154821015611228578660038381548110151561115357fe5b906000526020600020906004020160000154141561121b576005600083815260200190815260200160002060009054906101000a900473ffffffffffffffffffffffffffffffffffffffff1690508073ffffffffffffffffffffffffffffffffffffffff166108fc6111ee60048a8154811015156111cd57fe5b9060005260206000209060060201600101548761239690919063ffffffff16565b9081150290604051600060405180830381858888f19350505050158015611219573d6000803e3d6000fd5b505b8180600101925050611139565b3360048881548110151561123857fe5b906000526020600020906006020160030160006101000a81548173ffffffffffffffffffffffffffffffffffffffff021916908373ffffffffffffffffffffffffffffffffffffffff1602179055508460048881548110151561129757fe5b9060005260206000209060060201600201819055506112c262015180876123c090919063ffffffff16565b42016004888154811015156112d357fe5b9060005260206000209060060201600401819055507f4106602d6aaa44a3e570bbeca832bb0e3d70c20a1ecca1658b166e1982cce7328761131389610dd7565b8860405180848152602001838152602001828152602001935050505060405180910390a150505050505050565b826006600082815260200190815260200160002060009054906101000a900473ffffffffffffffffffffffffffffffffffffffff1673ffffffffffffffffffffffffffffffffffffffff163373ffffffffffffffffffffffffffffffffffffffff1614151561143d576040517f08c379a00000000000000000000000000000000000000000000000000000000081526004018080602001828103825260268152602001807f43616e206f6e6c7920626520657865637574656420627920746865206d61696e81526020017f206f776e6572000000000000000000000000000000000000000000000000000081525060400191505060405180910390fd5b828260048681548110151561144e57fe5b9060005260206000209060060201600501919061146c9291906124f8565b5050505050565b6000806000809150600090505b600154811015611507578373ffffffffffffffffffffffffffffffffffffffff166005600083815260200190815260200160002060009054906101000a900473ffffffffffffffffffffffffffffffffffffffff1673ffffffffffffffffffffffffffffffffffffffff1614156114fa5781806001019250505b8080600101915050611480565b8192505050919050565b611519611b54565b15156115b3576040517f08c379a000000000000000000000000000000000000000000000000000000000815260040180806020018281038252602a8152602001807f43616e206f6e6c792062652065786563757465642062792074686520676f766581526020017f726e696e6720626f64790000000000000000000000000000000000000000000081525060400191505060405180910390fd5b600073ffffffffffffffffffffffffffffffffffffffff166000809054906101000a900473ffffffffffffffffffffffffffffffffffffffff1673ffffffffffffffffffffffffffffffffffffffff167f8be0079c531659141344cd1fd0a4f28419497f9722a3daafe3b4186f6b6457e060405160405180910390a360008060006101000a81548173ffffffffffffffffffffffffffffffffffffffff021916908373ffffffffffffffffffffffffffffffffffffffff160217905550565b600080600061167f611b54565b1515611719576040517f08c379a000000000000000000000000000000000000000000000000000000000815260040180806020018281038252602a8152602001807f43616e206f6e6c792062652065786563757465642062792074686520676f766581526020017f726e696e6720626f64790000000000000000000000000000000000000000000081525060400191505060405180910390fd5b6001600460c0604051908101604052808d81526020018b815260200160008152602001600073ffffffffffffffffffffffffffffffffffffffff16815260200160008152602001878152509080600181540180825580915050906001820390600052602060002090600602016000909192909190915060008201518160000190805190602001906117ab929190612578565b50602082015181600101556040820151816002015560608201518160030160006101000a81548173ffffffffffffffffffffffffffffffffffffffff021916908373ffffffffffffffffffffffffffffffffffffffff1602179055506080820151816004015560a082015181600501908051906020019061182d929190612578565b505050039250600260008154809291906001019190505550886006600085815260200190815260200160002060006101000a81548173ffffffffffffffffffffffffffffffffffffffff021916908373ffffffffffffffffffffffffffffffffffffffff1602179055507f1ef7277f4643471582713ead0a4c4673adc2449aa6000b727480ac8a8e06c84c8a8a8a8660405180806020018573ffffffffffffffffffffffffffffffffffffffff1673ffffffffffffffffffffffffffffffffffffffff168152602001848152602001838152602001828103825286818151815260200191508051906020019080838360005b8381101561193a57808201518184015260208101905061191f565b50505050905090810190601f1680156119675780820380516001836020036101000a031916815260200191505b509550505050505060405180910390a1600091505b87821015611a7357600160036080604051908101604052808681526020018a81526020018981526020018881525090806001815401808255809150509060018203906000526020600020906004020160009091929091909150600082015181600001556020820151816001015560408201518160020155606082015181600301555050039050600160008154809291906001019190505550886005600083815260200190815260200160002060006101000a81548173ffffffffffffffffffffffffffffffffffffffff021916908373ffffffffffffffffffffffffffffffffffffffff160217905550818060010192505061197c565b50505050505050505050565b611a87611b54565b1515611b21576040517f08c379a000000000000000000000000000000000000000000000000000000000815260040180806020018281038252602a8152602001807f43616e206f6e6c792062652065786563757465642062792074686520676f766581526020017f726e696e6720626f64790000000000000000000000000000000000000000000081525060400191505060405180910390fd5b8060078190555050565b60008060009054906101000a900473ffffffffffffffffffffffffffffffffffffffff16905090565b60008060009054906101000a900473ffffffffffffffffffffffffffffffffffffffff1673ffffffffffffffffffffffffffffffffffffffff163373ffffffffffffffffffffffffffffffffffffffff1614905090565b60075481565b816006600082815260200190815260200160002060009054906101000a900473ffffffffffffffffffffffffffffffffffffffff1673ffffffffffffffffffffffffffffffffffffffff163373ffffffffffffffffffffffffffffffffffffffff16141515611cae576040517f08c379a00000000000000000000000000000000000000000000000000000000081526004018080602001828103825260268152602001807f43616e206f6e6c7920626520657865637574656420627920746865206d61696e81526020017f206f776e6572000000000000000000000000000000000000000000000000000081525060400191505060405180910390fd5b816006600085815260200190815260200160002060006101000a81548173ffffffffffffffffffffffffffffffffffffffff021916908373ffffffffffffffffffffffffffffffffffffffff160217905550505050565b6000611d0f611b54565b1515611da9576040517f08c379a000000000000000000000000000000000000000000000000000000000815260040180806020018281038252602a8152602001807f43616e206f6e6c792062652065786563757465642062792074686520676f766581526020017f726e696e6720626f64790000000000000000000000000000000000000000000081525060400191505060405180910390fd5b600483815481101515611db857fe5b90600052602060002090600602016001015490508082111515611dda57600080fd5b81600484815481101515611dea57fe5b906000526020600020906006020160010181905550505050565b60006005600083815260200190815260200160002060009054906101000a900473ffffffffffffffffffffffffffffffffffffffff1673ffffffffffffffffffffffffffffffffffffffff163373ffffffffffffffffffffffffffffffffffffffff1614151515611edd576040517f08c379a00000000000000000000000000000000000000000000000000000000081526004018080602001828103825260168152602001807f4e6f7420617661696c61626c6520666f722073616c650000000000000000000081525060200191505060405180910390fd5b600382815481101515611eec57fe5b9060005260206000209060040201600201549050670de0b6b3a7640000810234141515611f81576040517f08c379a00000000000000000000000000000000000000000000000000000000081526004018080602001828103825260188152602001807f496e636f72726563742065746865722070726f7669646564000000000000000081525060200191505060405180910390fd5b6005600083815260200190815260200160002060009054906101000a900473ffffffffffffffffffffffffffffffffffffffff1673ffffffffffffffffffffffffffffffffffffffff166108fc829081150290604051600060405180830381858888f19350505050158015611ffa573d6000803e3d6000fd5b508060038381548110151561200b57fe5b90600052602060002090600402016001018190555061205e6005600084815260200190815260200160002060009054906101000a900473ffffffffffffffffffffffffffffffffffffffff1633846122e4565b5050565b60025481565b60066020528060005260406000206000915054906101000a900473ffffffffffffffffffffffffffffffffffffffff1681565b6120a3611b54565b151561213d576040517f08c379a000000000000000000000000000000000000000000000000000000000815260040180806020018281038252602a8152602001807f43616e206f6e6c792062652065786563757465642062792074686520676f766581526020017f726e696e6720626f64790000000000000000000000000000000000000000000081525060400191505060405180910390fd5b612146816123fe565b50565b60048181548110151561215857fe5b9060005260206000209060060201600091509050806000018054600181600116156101000203166002900480601f0160208091040260200160405190810160405280929190818152602001828054600181600116156101000203166002900480156122045780601f106121d957610100808354040283529160200191612204565b820191906000526020600020905b8154815290600101906020018083116121e757829003601f168201915b5050505050908060010154908060020154908060030160009054906101000a900473ffffffffffffffffffffffffffffffffffffffff1690806004015490806005018054600181600116156101000203166002900480601f0160208091040260200160405190810160405280929190818152602001828054600181600116156101000203166002900480156122da5780601f106122af576101008083540402835291602001916122da565b820191906000526020600020905b8154815290600101906020018083116122bd57829003601f168201915b5050505050905086565b816005600083815260200190815260200160002060006101000a81548173ffffffffffffffffffffffffffffffffffffffff021916908373ffffffffffffffffffffffffffffffffffffffff160217905550808273ffffffffffffffffffffffffffffffffffffffff168473ffffffffffffffffffffffffffffffffffffffff167fddf252ad1be2c89b69c2b068fc378daa952ba7f163c4a11628f55a4df523b3ef60405160405180910390a4505050565b6000806000831115156123a857600080fd5b82848115156123b357fe5b0490508091505092915050565b60008060008414156123d557600091506123f7565b82840290508284828115156123e657fe5b041415156123f357600080fd5b8091505b5092915050565b600073ffffffffffffffffffffffffffffffffffffffff168173ffffffffffffffffffffffffffffffffffffffff161415151561243a57600080fd5b8073ffffffffffffffffffffffffffffffffffffffff166000809054906101000a900473ffffffffffffffffffffffffffffffffffffffff1673ffffffffffffffffffffffffffffffffffffffff167f8be0079c531659141344cd1fd0a4f28419497f9722a3daafe3b4186f6b6457e060405160405180910390a3806000806101000a81548173ffffffffffffffffffffffffffffffffffffffff021916908373ffffffffffffffffffffffffffffffffffffffff16021790555050565b828054600181600116156101000203166002900490600052602060002090601f016020900481019282601f1061253957803560ff1916838001178555612567565b82800160010185558215612567579182015b8281111561256657823582559160200191906001019061254b565b5b50905061257491906125f8565b5090565b828054600181600116156101000203166002900490600052602060002090601f016020900481019282601f106125b957805160ff19168380011785556125e7565b828001600101855582156125e7579182015b828111156125e65782518255916020019190600101906125cb565b5b5090506125f491906125f8565b5090565b61261a91905b808211156126165760008160009055506001016125fe565b5090565b905600a165627a7a7230582013649a6bbee57bbd37c4c1c3c6b73300ce0a972bf71039f19d4f9edd5c819f3f0029",
  "source": "pragma solidity ^0.4.23;\r\n\r\nimport \"./ERC721.sol\";\r\nimport \"./SafeMath.sol\";\r\nimport \"./TokenRental.sol\";\r\n\r\ncontract EstateToken is ERC721, TokenRental {\r\n    using SafeMath for uint256;\r\n\r\n    mapping (uint => address) tokenApprovals;\r\n\r\n    function balanceOf(address _owner) external view returns (uint256) {\r\n        // not used\r\n        uint count = 0;\r\n        for (uint i = 0; i < noOfTokens; i++) {\r\n            if (token2Owner[i] == _owner) {\r\n                count++;\r\n            }\r\n        }\r\n        return count;\r\n    }\r\n\r\n    function ownerOf(uint _tokenId) external view returns (address) {\r\n        return token2Owner[_tokenId];\r\n    }\r\n    function _transfer(address _from, address _to, uint256 _tokenId) internal {\r\n        token2Owner[_tokenId] = _to;\r\n        emit Transfer(_from, _to, _tokenId);\r\n    }\r\n\r\n    function transferFrom(address _from, address _to, uint256 _tokenId) external payable {\r\n        // not used\r\n//        require (token2Owner[_tokenId] == msg.sender || tokenApprovals[_tokenId] == msg.sender);\r\n        uint sellingPrice = tokens[_tokenId].sellValPerSqFt;\r\n        require(msg.value == sellingPrice);\r\n        token2Owner[_tokenId].transfer(sellingPrice);\r\n        tokens[_tokenId].boughtAtValuePerSqFt = sellingPrice;\r\n        _transfer(_from, _to, _tokenId);\r\n    }\r\n\r\n    function buy(uint _tokenId) external payable {\r\n//        require(msg.sender != token2Owner[_tokenId] && tokens[_tokenId].sellValPerSqFt != 0, \"Not available for sale\");\r\n        require(msg.sender != token2Owner[_tokenId], \"Not available for sale\");\r\n        uint sellingPrice = tokens[_tokenId].sellValPerSqFt;\r\n        require(msg.value == sellingPrice*(10**18), \"Incorrect ether provided\");\r\n        token2Owner[_tokenId].transfer(sellingPrice);\r\n        tokens[_tokenId].boughtAtValuePerSqFt = sellingPrice;\r\n        _transfer(token2Owner[_tokenId], msg.sender, _tokenId);\r\n    }\r\n\r\n    function approve(address _approved, uint256 _tokenId) external payable onlyOwnerOf(_tokenId) {\r\n        // not used, as all transactions are already approved\r\n        tokenApprovals[_tokenId] = _approved;\r\n        emit Approval(msg.sender, _approved, _tokenId);\r\n    }\r\n}\r\n",
  "sourcePath": "E:\\projects_workspaces\\competitions\\GlobalBlockchainHackathon\\EstateChain\\contracts\\EstateToken.sol",
  "compiler": {
    "name": "solc",
    "version": "0.4.23+commit.124ca40d.Emscripten.clang"
  },
  "schemaVersion": "2.0.0",
  "updatedAt": "2018-12-22T08:28:11.368Z"
}