{
  "contractName": "EstateToken",
  "abi": [
    {
      "constant": false,
      "inputs": [
        {
          "name": "_name",
          "type": "string"
        },
        {
          "name": "_main_owner",
          "type": "address"
        },
        {
          "name": "_sqFt",
          "type": "uint256"
        },
        {
          "name": "_boughtAtValuePerSqFt",
          "type": "uint256"
        },
        {
          "name": "_sellValPerSqFt",
          "type": "uint256"
        },
        {
          "name": "_rentValPerSqFtPerDay",
          "type": "uint256"
        }
      ],
      "name": "newProperty",
      "outputs": [],
      "payable": false,
      "stateMutability": "nonpayable",
      "type": "function"
    },
    {
      "constant": true,
      "inputs": [
        {
          "name": "",
          "type": "uint256"
        }
      ],
      "name": "token2Owner",
      "outputs": [
        {
          "name": "",
          "type": "address"
        }
      ],
      "payable": false,
      "stateMutability": "view",
      "type": "function"
    },
    {
      "constant": true,
      "inputs": [],
      "name": "noOfTokens",
      "outputs": [
        {
          "name": "",
          "type": "uint256"
        }
      ],
      "payable": false,
      "stateMutability": "view",
      "type": "function"
    },
    {
      "constant": true,
      "inputs": [],
      "name": "propertyTaxPercentage",
      "outputs": [
        {
          "name": "",
          "type": "uint256"
        }
      ],
      "payable": false,
      "stateMutability": "view",
      "type": "function"
    },
    {
      "constant": true,
      "inputs": [
        {
          "name": "_propId",
          "type": "uint256"
        }
      ],
      "name": "calcRentPerSqFtPerDay",
      "outputs": [
        {
          "name": "",
          "type": "uint256"
        }
      ],
      "payable": false,
      "stateMutability": "view",
      "type": "function"
    },
    {
      "constant": false,
      "inputs": [
        {
          "name": "_percentage",
          "type": "uint256"
        }
      ],
      "name": "setPropertyTaxPercentage",
      "outputs": [],
      "payable": false,
      "stateMutability": "nonpayable",
      "type": "function"
    },
    {
      "constant": true,
      "inputs": [
        {
          "name": "",
          "type": "uint256"
        }
      ],
      "name": "tokens",
      "outputs": [
        {
          "name": "propId",
          "type": "uint256"
        },
        {
          "name": "boughtAtValuePerSqFt",
          "type": "uint256"
        },
        {
          "name": "sellValPerSqFt",
          "type": "uint256"
        },
        {
          "name": "rentValPerSqFtPerDay",
          "type": "uint256"
        }
      ],
      "payable": false,
      "stateMutability": "view",
      "type": "function"
    },
    {
      "constant": false,
      "inputs": [
        {
          "name": "_tokenId",
          "type": "uint256"
        },
        {
          "name": "_newRentValPerSqFtPerDay",
          "type": "uint256"
        }
      ],
      "name": "setRentValPerSqFtPerDay",
      "outputs": [],
      "payable": false,
      "stateMutability": "nonpayable",
      "type": "function"
    },
    {
      "constant": false,
      "inputs": [
        {
          "name": "_propId",
          "type": "uint256"
        },
        {
          "name": "_days",
          "type": "uint256"
        }
      ],
      "name": "Rent",
      "outputs": [],
      "payable": true,
      "stateMutability": "payable",
      "type": "function"
    },
    {
      "constant": false,
      "inputs": [
        {
          "name": "_propId",
          "type": "uint256"
        },
        {
          "name": "_newDocsHash",
          "type": "string"
        }
      ],
      "name": "changeDocsHash",
      "outputs": [],
      "payable": false,
      "stateMutability": "nonpayable",
      "type": "function"
    },
    {
      "constant": false,
      "inputs": [],
      "name": "renounceOwnership",
      "outputs": [],
      "payable": false,
      "stateMutability": "nonpayable",
      "type": "function"
    },
    {
      "constant": false,
      "inputs": [
        {
          "name": "_percentage",
          "type": "uint256"
        }
      ],
      "name": "setMainOwnerSharePercentage",
      "outputs": [],
      "payable": false,
      "stateMutability": "nonpayable",
      "type": "function"
    },
    {
      "constant": true,
      "inputs": [],
      "name": "owner",
      "outputs": [
        {
          "name": "",
          "type": "address"
        }
      ],
      "payable": false,
      "stateMutability": "view",
      "type": "function"
    },
    {
      "constant": true,
      "inputs": [],
      "name": "isOwner",
      "outputs": [
        {
          "name": "",
          "type": "bool"
        }
      ],
      "payable": false,
      "stateMutability": "view",
      "type": "function"
    },
    {
      "constant": false,
      "inputs": [
        {
          "name": "_tokenId",
          "type": "uint256"
        },
        {
          "name": "_newSellValPerSqFt",
          "type": "uint256"
        }
      ],
      "name": "setSellValPerSqFt",
      "outputs": [],
      "payable": false,
      "stateMutability": "nonpayable",
      "type": "function"
    },
    {
      "constant": true,
      "inputs": [],
      "name": "mainOwnerSharePercentage",
      "outputs": [
        {
          "name": "",
          "type": "uint256"
        }
      ],
      "payable": false,
      "stateMutability": "view",
      "type": "function"
    },
    {
      "constant": false,
      "inputs": [
        {
          "name": "_propId",
          "type": "uint256"
        },
        {
          "name": "_newSqFt",
          "type": "uint256"
        }
      ],
      "name": "increaseArea",
      "outputs": [],
      "payable": false,
      "stateMutability": "nonpayable",
      "type": "function"
    },
    {
      "constant": true,
      "inputs": [
        {
          "name": "",
          "type": "uint256"
        }
      ],
      "name": "property2MainOwner",
      "outputs": [
        {
          "name": "",
          "type": "address"
        }
      ],
      "payable": false,
      "stateMutability": "view",
      "type": "function"
    },
    {
      "constant": false,
      "inputs": [
        {
          "name": "newOwner",
          "type": "address"
        }
      ],
      "name": "transferOwnership",
      "outputs": [],
      "payable": false,
      "stateMutability": "nonpayable",
      "type": "function"
    },
    {
      "constant": true,
      "inputs": [
        {
          "name": "",
          "type": "uint256"
        }
      ],
      "name": "props",
      "outputs": [
        {
          "name": "name",
          "type": "string"
        },
        {
          "name": "sqFt",
          "type": "uint256"
        },
        {
          "name": "rentedAtValue",
          "type": "uint256"
        },
        {
          "name": "rentedBy",
          "type": "address"
        },
        {
          "name": "rentedUntil",
          "type": "uint256"
        },
        {
          "name": "docsHash",
          "type": "string"
        }
      ],
      "payable": false,
      "stateMutability": "view",
      "type": "function"
    },
    {
      "anonymous": false,
      "inputs": [
        {
          "indexed": false,
          "name": "propId",
          "type": "uint256"
        },
        {
          "indexed": false,
          "name": "rentVal",
          "type": "uint256"
        },
        {
          "indexed": false,
          "name": "_days",
          "type": "uint256"
        }
      ],
      "name": "Rented",
      "type": "event"
    },
    {
      "anonymous": false,
      "inputs": [
        {
          "indexed": false,
          "name": "name",
          "type": "string"
        },
        {
          "indexed": false,
          "name": "mainOwner",
          "type": "address"
        },
        {
          "indexed": false,
          "name": "sqFt",
          "type": "uint256"
        },
        {
          "indexed": false,
          "name": "propId",
          "type": "uint256"
        }
      ],
      "name": "NewProperty",
      "type": "event"
    },
    {
      "anonymous": false,
      "inputs": [
        {
          "indexed": true,
          "name": "previousOwner",
          "type": "address"
        },
        {
          "indexed": true,
          "name": "newOwner",
          "type": "address"
        }
      ],
      "name": "OwnershipTransferred",
      "type": "event"
    },
    {
      "anonymous": false,
      "inputs": [
        {
          "indexed": true,
          "name": "_from",
          "type": "address"
        },
        {
          "indexed": true,
          "name": "_to",
          "type": "address"
        },
        {
          "indexed": true,
          "name": "_tokenId",
          "type": "uint256"
        }
      ],
      "name": "Transfer",
      "type": "event"
    },
    {
      "anonymous": false,
      "inputs": [
        {
          "indexed": true,
          "name": "_owner",
          "type": "address"
        },
        {
          "indexed": true,
          "name": "_approved",
          "type": "address"
        },
        {
          "indexed": true,
          "name": "_tokenId",
          "type": "uint256"
        }
      ],
      "name": "Approval",
      "type": "event"
    },
    {
      "constant": true,
      "inputs": [
        {
          "name": "_owner",
          "type": "address"
        }
      ],
      "name": "balanceOf",
      "outputs": [
        {
          "name": "",
          "type": "uint256"
        }
      ],
      "payable": false,
      "stateMutability": "view",
      "type": "function"
    },
    {
      "constant": true,
      "inputs": [
        {
          "name": "_tokenId",
          "type": "uint256"
        }
      ],
      "name": "ownerOf",
      "outputs": [
        {
          "name": "",
          "type": "address"
        }
      ],
      "payable": false,
      "stateMutability": "view",
      "type": "function"
    },
    {
      "constant": false,
      "inputs": [
        {
          "name": "_from",
          "type": "address"
        },
        {
          "name": "_to",
          "type": "address"
        },
        {
          "name": "_tokenId",
          "type": "uint256"
        }
      ],
      "name": "transferFrom",
      "outputs": [],
      "payable": true,
      "stateMutability": "payable",
      "type": "function"
    },
    {
      "constant": false,
      "inputs": [
        {
          "name": "_tokenId",
          "type": "uint256"
        }
      ],
      "name": "buy",
      "outputs": [],
      "payable": true,
      "stateMutability": "payable",
      "type": "function"
    },
    {
      "constant": false,
      "inputs": [
        {
          "name": "_approved",
          "type": "address"
        },
        {
          "name": "_tokenId",
          "type": "uint256"
        }
      ],
      "name": "approve",
      "outputs": [],
      "payable": true,
      "stateMutability": "payable",
      "type": "function"
    }
  ],
  "bytecode": "0x60806040526000600155600a6006556005600755336000806101000a81548173ffffffffffffffffffffffffffffffffffffffff021916908373ffffffffffffffffffffffffffffffffffffffff1602179055506000809054906101000a900473ffffffffffffffffffffffffffffffffffffffff1673ffffffffffffffffffffffffffffffffffffffff16600073ffffffffffffffffffffffffffffffffffffffff167f8be0079c531659141344cd1fd0a4f28419497f9722a3daafe3b4186f6b6457e060405160405180910390a3611ea4806100de6000396000f300608060405260043610610149576000357c0100000000000000000000000000000000000000000000000000000000900463ffffffff1680630175bc261461014e578063095ea7b3146101ff5780631dca7fcf1461023f57806323b872dd146102ac57806336e9b3441461030c578063374a12bf146103375780633c0d2db4146103625780633f433efa146103a35780634f64b2be146103d0578063594a4524146104265780636352211e1461045d578063659bdfb5146104ca578063672799e9146104f457806370a0823114610539578063715018a61461059057806383f85d3b146105a75780638da5cb5b146105d45780638f32d59b1461062b5780639c1304741461065a5780639efb887f14610691578063cd499128146106bc578063d96a094a146106f3578063dea6a04b14610713578063f2fde38b14610780578063fda54c16146107c3575b600080fd5b34801561015a57600080fd5b506101fd600480360381019080803590602001908201803590602001908080601f0160208091040260200160405190810160405280939291908181526020018383808284378201915050505050509192919290803573ffffffffffffffffffffffffffffffffffffffff1690602001909291908035906020019092919080359060200190929190803590602001909291908035906020019092919050505061091d565b005b61023d600480360381019080803573ffffffffffffffffffffffffffffffffffffffff16906020019092919080359060200190929190505050610c98565b005b34801561024b57600080fd5b5061026a60048036038101908080359060200190929190505050610db8565b604051808273ffffffffffffffffffffffffffffffffffffffff1673ffffffffffffffffffffffffffffffffffffffff16815260200191505060405180910390f35b61030a600480360381019080803573ffffffffffffffffffffffffffffffffffffffff169060200190929190803573ffffffffffffffffffffffffffffffffffffffff16906020019092919080359060200190929190505050610deb565b005b34801561031857600080fd5b50610321610ea9565b6040518082815260200191505060405180910390f35b34801561034357600080fd5b5061034c610eaf565b6040518082815260200191505060405180910390f35b34801561036e57600080fd5b5061038d60048036038101908080359060200190929190505050610eb5565b6040518082815260200191505060405180910390f35b3480156103af57600080fd5b506103ce60048036038101908080359060200190929190505050610f66565b005b3480156103dc57600080fd5b506103fb60048036038101908080359060200190929190505050610f83565b6040518085815260200184815260200183815260200182815260200194505050505060405180910390f35b34801561043257600080fd5b5061045b6004803603810190808035906020019092919080359060200190929190505050610fc2565b005b34801561046957600080fd5b506104886004803603810190808035906020019092919050505061105a565b604051808273ffffffffffffffffffffffffffffffffffffffff1673ffffffffffffffffffffffffffffffffffffffff16815260200191505060405180910390f35b6104f26004803603810190808035906020019092919080359060200190929190505050611097565b005b34801561050057600080fd5b50610537600480360381019080803590602001909291908035906020019082018035906020019190919293919293905050506113b4565b005b34801561054557600080fd5b5061057a600480360381019080803573ffffffffffffffffffffffffffffffffffffffff169060200190929190505050611458565b6040518082815260200191505060405180910390f35b34801561059c57600080fd5b506105a56114f6565b005b3480156105b357600080fd5b506105d2600480360381019080803590602001909291905050506115c8565b005b3480156105e057600080fd5b506105e96115e5565b604051808273ffffffffffffffffffffffffffffffffffffffff1673ffffffffffffffffffffffffffffffffffffffff16815260200191505060405180910390f35b34801561063757600080fd5b5061064061160e565b604051808215151515815260200191505060405180910390f35b34801561066657600080fd5b5061068f6004803603810190808035906020019092919080359060200190929190505050611665565b005b34801561069d57600080fd5b506106a66116fd565b6040518082815260200191505060405180910390f35b3480156106c857600080fd5b506106f16004803603810190808035906020019092919080359060200190929190505050611703565b005b610711600480360381019080803590602001909291905050506117a7565b005b34801561071f57600080fd5b5061073e60048036038101908080359060200190929190505050611931565b604051808273ffffffffffffffffffffffffffffffffffffffff1673ffffffffffffffffffffffffffffffffffffffff16815260200191505060405180910390f35b34801561078c57600080fd5b506107c1600480360381019080803573ffffffffffffffffffffffffffffffffffffffff169060200190929190505050611964565b005b3480156107cf57600080fd5b506107ee60048036038101908080359060200190929190505050611983565b60405180806020018781526020018681526020018573ffffffffffffffffffffffffffffffffffffffff1673ffffffffffffffffffffffffffffffffffffffff16815260200184815260200180602001838103835289818151815260200191508051906020019080838360005b8381101561087657808201518184015260208101905061085b565b50505050905090810190601f1680156108a35780820380516001836020036101000a031916815260200191505b50838103825284818151815260200191508051906020019080838360005b838110156108dc5780820151818401526020810190506108c1565b50505050905090810190601f1680156109095780820380516001836020036101000a031916815260200191505b509850505050505050505060405180910390f35b600080600061092a61160e565b151561093557600080fd5b6001600360c0604051908101604052808c81526020018a815260200160008152602001600073ffffffffffffffffffffffffffffffffffffffff1681526020016000815260200160206040519081016040528060008152508152509080600181540180825580915050906001820390600052602060002090600602016000909192909190915060008201518160000190805190602001906109d7929190611d53565b50602082015181600101556040820151816002015560608201518160030160006101000a81548173ffffffffffffffffffffffffffffffffffffffff021916908373ffffffffffffffffffffffffffffffffffffffff1602179055506080820151816004015560a0820151816005019080519060200190610a59929190611d53565b505050039250876005600085815260200190815260200160002060006101000a81548173ffffffffffffffffffffffffffffffffffffffff021916908373ffffffffffffffffffffffffffffffffffffffff1602179055507f1ef7277f4643471582713ead0a4c4673adc2449aa6000b727480ac8a8e06c84c8989898660405180806020018573ffffffffffffffffffffffffffffffffffffffff1673ffffffffffffffffffffffffffffffffffffffff168152602001848152602001838152602001828103825286818151815260200191508051906020019080838360005b83811015610b54578082015181840152602081019050610b39565b50505050905090810190601f168015610b815780820380516001836020036101000a031916815260200191505b509550505050505060405180910390a1600091505b86821015610c8d57600160026080604051908101604052808681526020018981526020018881526020018781525090806001815401808255809150509060018203906000526020600020906004020160009091929091909150600082015181600001556020820151816001015560408201518160020155606082015181600301555050039050600160008154809291906001019190505550876004600083815260200190815260200160002060006101000a81548173ffffffffffffffffffffffffffffffffffffffff021916908373ffffffffffffffffffffffffffffffffffffffff1602179055508180600101925050610b96565b505050505050505050565b806004600082815260200190815260200160002060009054906101000a900473ffffffffffffffffffffffffffffffffffffffff1673ffffffffffffffffffffffffffffffffffffffff163373ffffffffffffffffffffffffffffffffffffffff16141515610d0657600080fd5b826008600084815260200190815260200160002060006101000a81548173ffffffffffffffffffffffffffffffffffffffff021916908373ffffffffffffffffffffffffffffffffffffffff160217905550818373ffffffffffffffffffffffffffffffffffffffff163373ffffffffffffffffffffffffffffffffffffffff167f8c5be1e5ebec7d5bd14f71427d1e84f3dd0314c0f7b2291e5b200ac8c7c3b92560405160405180910390a4505050565b60046020528060005260406000206000915054906101000a900473ffffffffffffffffffffffffffffffffffffffff1681565b6000600282815481101515610dfc57fe5b90600052602060002090600402016002015490508034141515610e1e57600080fd5b6004600083815260200190815260200160002060009054906101000a900473ffffffffffffffffffffffffffffffffffffffff1673ffffffffffffffffffffffffffffffffffffffff166108fc829081150290604051600060405180830381858888f19350505050158015610e97573d6000803e3d6000fd5b50610ea3848484611b1e565b50505050565b60015481565b60075481565b6000806000809150600090505b600154811015610f275783600282815481101515610edc57fe5b9060005260206000209060040201600001541415610f1a57600281815481101515610f0357fe5b906000526020600020906004020160030154820191505b8080600101915050610ec2565b610f5a600385815481101515610f3957fe5b90600052602060002090600602016001015483611bd090919063ffffffff16565b91508192505050919050565b610f6e61160e565b1515610f7957600080fd5b8060078190555050565b600281815481101515610f9257fe5b90600052602060002090600402016000915090508060000154908060010154908060020154908060030154905084565b816004600082815260200190815260200160002060009054906101000a900473ffffffffffffffffffffffffffffffffffffffff1673ffffffffffffffffffffffffffffffffffffffff163373ffffffffffffffffffffffffffffffffffffffff1614151561103057600080fd5b8160028481548110151561104057fe5b906000526020600020906004020160030181905550505050565b60006004600083815260200190815260200160002060009054906101000a900473ffffffffffffffffffffffffffffffffffffffff169050919050565b60008060008060006110a887610eb5565b94506110ef6003888154811015156110bc57fe5b9060005260206000209060060201600101546110e18888611bfa90919063ffffffff16565b611bfa90919063ffffffff16565b935083341415156110ff57600080fd5b611127606461111960065487611bfa90919063ffffffff16565b611bd090919063ffffffff16565b92506005600088815260200190815260200160002060009054906101000a900473ffffffffffffffffffffffffffffffffffffffff1673ffffffffffffffffffffffffffffffffffffffff166108fc849081150290604051600060405180830381858888f193505050501580156111a2573d6000803e3d6000fd5b508284039350600091505b60015482101561129c57866002838154811015156111c757fe5b906000526020600020906004020160000154141561128f576004600083815260200190815260200160002060009054906101000a900473ffffffffffffffffffffffffffffffffffffffff1690508073ffffffffffffffffffffffffffffffffffffffff166108fc61126260038a81548110151561124157fe5b90600052602060002090600602016001015487611bd090919063ffffffff16565b9081150290604051600060405180830381858888f1935050505015801561128d573d6000803e3d6000fd5b505b81806001019250506111ad565b336003888154811015156112ac57fe5b906000526020600020906006020160030160006101000a81548173ffffffffffffffffffffffffffffffffffffffff021916908373ffffffffffffffffffffffffffffffffffffffff1602179055508460038881548110151561130b57fe5b9060005260206000209060060201600201819055506113366201518087611bfa90919063ffffffff16565b420160038881548110151561134757fe5b9060005260206000209060060201600401819055507f4106602d6aaa44a3e570bbeca832bb0e3d70c20a1ecca1658b166e1982cce7328761138789610eb5565b8860405180848152602001838152602001828152602001935050505060405180910390a150505050505050565b826005600082815260200190815260200160002060009054906101000a900473ffffffffffffffffffffffffffffffffffffffff1673ffffffffffffffffffffffffffffffffffffffff163373ffffffffffffffffffffffffffffffffffffffff1614151561142257600080fd5b828260038681548110151561143357fe5b90600052602060002090600602016005019190611451929190611dd3565b5050505050565b6000806000809150600090505b6001548110156114ec578373ffffffffffffffffffffffffffffffffffffffff166004600083815260200190815260200160002060009054906101000a900473ffffffffffffffffffffffffffffffffffffffff1673ffffffffffffffffffffffffffffffffffffffff1614156114df5781806001019250505b8080600101915050611465565b8192505050919050565b6114fe61160e565b151561150957600080fd5b600073ffffffffffffffffffffffffffffffffffffffff166000809054906101000a900473ffffffffffffffffffffffffffffffffffffffff1673ffffffffffffffffffffffffffffffffffffffff167f8be0079c531659141344cd1fd0a4f28419497f9722a3daafe3b4186f6b6457e060405160405180910390a360008060006101000a81548173ffffffffffffffffffffffffffffffffffffffff021916908373ffffffffffffffffffffffffffffffffffffffff160217905550565b6115d061160e565b15156115db57600080fd5b8060068190555050565b60008060009054906101000a900473ffffffffffffffffffffffffffffffffffffffff16905090565b60008060009054906101000a900473ffffffffffffffffffffffffffffffffffffffff1673ffffffffffffffffffffffffffffffffffffffff163373ffffffffffffffffffffffffffffffffffffffff1614905090565b816004600082815260200190815260200160002060009054906101000a900473ffffffffffffffffffffffffffffffffffffffff1673ffffffffffffffffffffffffffffffffffffffff163373ffffffffffffffffffffffffffffffffffffffff161415156116d357600080fd5b816002848154811015156116e357fe5b906000526020600020906004020160020181905550505050565b60065481565b600080600061171061160e565b151561171b57600080fd5b60038581548110151561172a57fe5b9060005260206000209060060201600101549250828411151561174c57600080fd5b8360038681548110151561175c57fe5b9060005260206000209060060201600101819055506117848385611c3890919063ffffffff16565b9150600090505b818110156117a057808060010191505061178b565b5050505050565b60006004600083815260200190815260200160002060009054906101000a900473ffffffffffffffffffffffffffffffffffffffff1673ffffffffffffffffffffffffffffffffffffffff163373ffffffffffffffffffffffffffffffffffffffff16141580156118395750600060028381548110151561182457fe5b90600052602060002090600402016002015414155b151561184457600080fd5b60028281548110151561185357fe5b9060005260206000209060040201600201549050803414151561187557600080fd5b6004600083815260200190815260200160002060009054906101000a900473ffffffffffffffffffffffffffffffffffffffff1673ffffffffffffffffffffffffffffffffffffffff166108fc829081150290604051600060405180830381858888f193505050501580156118ee573d6000803e3d6000fd5b5061192d6004600084815260200190815260200160002060009054906101000a900473ffffffffffffffffffffffffffffffffffffffff163384611b1e565b5050565b60056020528060005260406000206000915054906101000a900473ffffffffffffffffffffffffffffffffffffffff1681565b61196c61160e565b151561197757600080fd5b61198081611c59565b50565b60038181548110151561199257fe5b9060005260206000209060060201600091509050806000018054600181600116156101000203166002900480601f016020809104026020016040519081016040528092919081815260200182805460018160011615610100020316600290048015611a3e5780601f10611a1357610100808354040283529160200191611a3e565b820191906000526020600020905b815481529060010190602001808311611a2157829003601f168201915b5050505050908060010154908060020154908060030160009054906101000a900473ffffffffffffffffffffffffffffffffffffffff1690806004015490806005018054600181600116156101000203166002900480601f016020809104026020016040519081016040528092919081815260200182805460018160011615610100020316600290048015611b145780601f10611ae957610100808354040283529160200191611b14565b820191906000526020600020905b815481529060010190602001808311611af757829003601f168201915b5050505050905086565b816004600083815260200190815260200160002060006101000a81548173ffffffffffffffffffffffffffffffffffffffff021916908373ffffffffffffffffffffffffffffffffffffffff160217905550808273ffffffffffffffffffffffffffffffffffffffff168473ffffffffffffffffffffffffffffffffffffffff167fddf252ad1be2c89b69c2b068fc378daa952ba7f163c4a11628f55a4df523b3ef60405160405180910390a4505050565b600080600083111515611be257600080fd5b8284811515611bed57fe5b0490508091505092915050565b6000806000841415611c0f5760009150611c31565b8284029050828482811515611c2057fe5b04141515611c2d57600080fd5b8091505b5092915050565b600080838311151515611c4a57600080fd5b82840390508091505092915050565b600073ffffffffffffffffffffffffffffffffffffffff168173ffffffffffffffffffffffffffffffffffffffff1614151515611c9557600080fd5b8073ffffffffffffffffffffffffffffffffffffffff166000809054906101000a900473ffffffffffffffffffffffffffffffffffffffff1673ffffffffffffffffffffffffffffffffffffffff167f8be0079c531659141344cd1fd0a4f28419497f9722a3daafe3b4186f6b6457e060405160405180910390a3806000806101000a81548173ffffffffffffffffffffffffffffffffffffffff021916908373ffffffffffffffffffffffffffffffffffffffff16021790555050565b828054600181600116156101000203166002900490600052602060002090601f016020900481019282601f10611d9457805160ff1916838001178555611dc2565b82800160010185558215611dc2579182015b82811115611dc1578251825591602001919060010190611da6565b5b509050611dcf9190611e53565b5090565b828054600181600116156101000203166002900490600052602060002090601f016020900481019282601f10611e1457803560ff1916838001178555611e42565b82800160010185558215611e42579182015b82811115611e41578235825591602001919060010190611e26565b5b509050611e4f9190611e53565b5090565b611e7591905b80821115611e71576000816000905550600101611e59565b5090565b905600a165627a7a723058206ebc278305f039f133426d89285b4808b177cabb1cf2bb436b741521dd29ad3e0029",
  "source": "pragma solidity ^0.4.23;\r\n\r\nimport \"./ERC721.sol\";\r\nimport \"./SafeMath.sol\";\r\nimport \"./TokenRental.sol\";\r\n\r\ncontract EstateToken is ERC721, TokenRental {\r\n    using SafeMath for uint256;\r\n\r\n    mapping (uint => address) tokenApprovals;\r\n\r\n    function balanceOf(address _owner) external view returns (uint256) {\r\n        // not used\r\n        uint count = 0;\r\n        for (uint i = 0; i < noOfTokens; i++) {\r\n            if (token2Owner[i] == _owner) {\r\n                count++;\r\n            }\r\n        }\r\n        return count;\r\n    }\r\n\r\n    function ownerOf(uint _tokenId) external view returns (address) {\r\n        return token2Owner[_tokenId];\r\n    }\r\n    function _transfer(address _from, address _to, uint256 _tokenId) internal {\r\n        token2Owner[_tokenId] = _to;\r\n        emit Transfer(_from, _to, _tokenId);\r\n    }\r\n\r\n    function transferFrom(address _from, address _to, uint256 _tokenId) external payable {\r\n        // not used\r\n//        require (token2Owner[_tokenId] == msg.sender || tokenApprovals[_tokenId] == msg.sender);\r\n        uint sellingPrice = tokens[_tokenId].sellValPerSqFt;\r\n        require(msg.value == sellingPrice);\r\n        token2Owner[_tokenId].transfer(sellingPrice);\r\n        _transfer(_from, _to, _tokenId);\r\n    }\r\n\r\n    function buy(uint _tokenId) external payable {\r\n        require(msg.sender != token2Owner[_tokenId] && tokens[_tokenId].sellValPerSqFt != 0);\r\n        uint sellingPrice = tokens[_tokenId].sellValPerSqFt;\r\n        require(msg.value == sellingPrice);\r\n        token2Owner[_tokenId].transfer(sellingPrice);\r\n        _transfer(token2Owner[_tokenId], msg.sender, _tokenId);\r\n    }\r\n\r\n    function approve(address _approved, uint256 _tokenId) external payable onlyOwnerOf(_tokenId) {\r\n        // not used, as all transactions are already approved\r\n        tokenApprovals[_tokenId] = _approved;\r\n        emit Approval(msg.sender, _approved, _tokenId);\r\n    }\r\n}\r\n",
  "sourcePath": "E:\\projects_workspaces\\competitions\\GlobalBlockchainHackathon\\EstateChain\\contracts\\EstateToken.sol",
  "compiler": {
    "name": "solc",
    "version": "0.4.23+commit.124ca40d.Emscripten.clang"
  },
  "schemaVersion": "2.0.0",
  "updatedAt": "2018-12-21T17:47:04.185Z"
}