{
  "contractName": "TokenFactory",
  "abi": [
    {
      "constant": true,
      "inputs": [
        {
          "name": "",
          "type": "uint256"
        }
      ],
      "name": "token2Owner",
      "outputs": [
        {
          "name": "",
          "type": "address"
        }
      ],
      "payable": false,
      "stateMutability": "view",
      "type": "function"
    },
    {
      "constant": true,
      "inputs": [
        {
          "name": "",
          "type": "uint256"
        }
      ],
      "name": "tokens",
      "outputs": [
        {
          "name": "propId",
          "type": "uint256"
        },
        {
          "name": "boughtAtValuePerSqFt",
          "type": "uint256"
        },
        {
          "name": "sellValPerSqFt",
          "type": "uint256"
        },
        {
          "name": "rentValPerSqFtPerDay",
          "type": "uint256"
        }
      ],
      "payable": false,
      "stateMutability": "view",
      "type": "function"
    },
    {
      "constant": false,
      "inputs": [],
      "name": "renounceOwnership",
      "outputs": [],
      "payable": false,
      "stateMutability": "nonpayable",
      "type": "function"
    },
    {
      "constant": true,
      "inputs": [],
      "name": "owner",
      "outputs": [
        {
          "name": "",
          "type": "address"
        }
      ],
      "payable": false,
      "stateMutability": "view",
      "type": "function"
    },
    {
      "constant": true,
      "inputs": [],
      "name": "isOwner",
      "outputs": [
        {
          "name": "",
          "type": "bool"
        }
      ],
      "payable": false,
      "stateMutability": "view",
      "type": "function"
    },
    {
      "constant": true,
      "inputs": [
        {
          "name": "",
          "type": "uint256"
        }
      ],
      "name": "property2MainOwner",
      "outputs": [
        {
          "name": "",
          "type": "address"
        }
      ],
      "payable": false,
      "stateMutability": "view",
      "type": "function"
    },
    {
      "constant": false,
      "inputs": [
        {
          "name": "newOwner",
          "type": "address"
        }
      ],
      "name": "transferOwnership",
      "outputs": [],
      "payable": false,
      "stateMutability": "nonpayable",
      "type": "function"
    },
    {
      "constant": true,
      "inputs": [
        {
          "name": "",
          "type": "uint256"
        }
      ],
      "name": "props",
      "outputs": [
        {
          "name": "name",
          "type": "string"
        },
        {
          "name": "sqFt",
          "type": "uint256"
        },
        {
          "name": "rentedAtValue",
          "type": "uint256"
        },
        {
          "name": "rentedBy",
          "type": "address"
        },
        {
          "name": "rentedUntil",
          "type": "uint256"
        },
        {
          "name": "docsHash",
          "type": "string"
        }
      ],
      "payable": false,
      "stateMutability": "view",
      "type": "function"
    },
    {
      "anonymous": false,
      "inputs": [
        {
          "indexed": false,
          "name": "name",
          "type": "string"
        },
        {
          "indexed": false,
          "name": "mainOwner",
          "type": "address"
        },
        {
          "indexed": false,
          "name": "sqFt",
          "type": "uint256"
        },
        {
          "indexed": false,
          "name": "propId",
          "type": "uint256"
        }
      ],
      "name": "NewProperty",
      "type": "event"
    },
    {
      "anonymous": false,
      "inputs": [
        {
          "indexed": true,
          "name": "previousOwner",
          "type": "address"
        },
        {
          "indexed": true,
          "name": "newOwner",
          "type": "address"
        }
      ],
      "name": "OwnershipTransferred",
      "type": "event"
    },
    {
      "constant": false,
      "inputs": [
        {
          "name": "_name",
          "type": "string"
        },
        {
          "name": "_main_owner",
          "type": "address"
        },
        {
          "name": "_sqFt",
          "type": "uint256"
        },
        {
          "name": "_boughtAtValuePerSqFt",
          "type": "uint256"
        },
        {
          "name": "_sellValPerSqFt",
          "type": "uint256"
        },
        {
          "name": "_rentValPerSqFtPerDay",
          "type": "uint256"
        }
      ],
      "name": "newProperty",
      "outputs": [],
      "payable": false,
      "stateMutability": "nonpayable",
      "type": "function"
    }
  ],
  "bytecode": "0x6080604052336000806101000a81548173ffffffffffffffffffffffffffffffffffffffff021916908373ffffffffffffffffffffffffffffffffffffffff1602179055506000809054906101000a900473ffffffffffffffffffffffffffffffffffffffff1673ffffffffffffffffffffffffffffffffffffffff16600073ffffffffffffffffffffffffffffffffffffffff167f8be0079c531659141344cd1fd0a4f28419497f9722a3daafe3b4186f6b6457e060405160405180910390a3610d9d806100cf6000396000f300608060405260043610610099576000357c0100000000000000000000000000000000000000000000000000000000900463ffffffff1680630175bc261461009e5780631dca7fcf1461014f5780634f64b2be146101bc578063715018a6146102125780638da5cb5b146102295780638f32d59b14610280578063dea6a04b146102af578063f2fde38b1461031c578063fda54c161461035f575b600080fd5b3480156100aa57600080fd5b5061014d600480360381019080803590602001908201803590602001908080601f0160208091040260200160405190810160405280939291908181526020018383808284378201915050505050509192919290803573ffffffffffffffffffffffffffffffffffffffff169060200190929190803590602001909291908035906020019092919080359060200190929190803590602001909291905050506104b9565b005b34801561015b57600080fd5b5061017a60048036038101908080359060200190929190505050610821565b604051808273ffffffffffffffffffffffffffffffffffffffff1673ffffffffffffffffffffffffffffffffffffffff16815260200191505060405180910390f35b3480156101c857600080fd5b506101e760048036038101908080359060200190929190505050610854565b6040518085815260200184815260200183815260200182815260200194505050505060405180910390f35b34801561021e57600080fd5b50610227610893565b005b34801561023557600080fd5b5061023e610965565b604051808273ffffffffffffffffffffffffffffffffffffffff1673ffffffffffffffffffffffffffffffffffffffff16815260200191505060405180910390f35b34801561028c57600080fd5b5061029561098e565b604051808215151515815260200191505060405180910390f35b3480156102bb57600080fd5b506102da600480360381019080803590602001909291905050506109e5565b604051808273ffffffffffffffffffffffffffffffffffffffff1673ffffffffffffffffffffffffffffffffffffffff16815260200191505060405180910390f35b34801561032857600080fd5b5061035d600480360381019080803573ffffffffffffffffffffffffffffffffffffffff169060200190929190505050610a18565b005b34801561036b57600080fd5b5061038a60048036038101908080359060200190929190505050610a37565b60405180806020018781526020018681526020018573ffffffffffffffffffffffffffffffffffffffff1673ffffffffffffffffffffffffffffffffffffffff16815260200184815260200180602001838103835289818151815260200191508051906020019080838360005b838110156104125780820151818401526020810190506103f7565b50505050905090810190601f16801561043f5780820380516001836020036101000a031916815260200191505b50838103825284818151815260200191508051906020019080838360005b8381101561047857808201518184015260208101905061045d565b50505050905090810190601f1680156104a55780820380516001836020036101000a031916815260200191505b509850505050505050505060405180910390f35b60008060006104c661098e565b15156104d157600080fd5b6001600260c0604051908101604052808c81526020018a815260200160008152602001600073ffffffffffffffffffffffffffffffffffffffff168152602001600081526020016020604051908101604052806000815250815250908060018154018082558091505090600182039060005260206000209060060201600090919290919091506000820151816000019080519060200190610573929190610ccc565b50602082015181600101556040820151816002015560608201518160030160006101000a81548173ffffffffffffffffffffffffffffffffffffffff021916908373ffffffffffffffffffffffffffffffffffffffff1602179055506080820151816004015560a08201518160050190805190602001906105f5929190610ccc565b505050039250876004600085815260200190815260200160002060006101000a81548173ffffffffffffffffffffffffffffffffffffffff021916908373ffffffffffffffffffffffffffffffffffffffff1602179055507f1ef7277f4643471582713ead0a4c4673adc2449aa6000b727480ac8a8e06c84c8989898660405180806020018573ffffffffffffffffffffffffffffffffffffffff1673ffffffffffffffffffffffffffffffffffffffff168152602001848152602001838152602001828103825286818151815260200191508051906020019080838360005b838110156106f05780820151818401526020810190506106d5565b50505050905090810190601f16801561071d5780820380516001836020036101000a031916815260200191505b509550505050505060405180910390a1600091505b86821015610816576001806080604051908101604052808681526020018981526020018881526020018781525090806001815401808255809150509060018203906000526020600020906004020160009091929091909150600082015181600001556020820151816001015560408201518160020155606082015181600301555050039050876003600083815260200190815260200160002060006101000a81548173ffffffffffffffffffffffffffffffffffffffff021916908373ffffffffffffffffffffffffffffffffffffffff1602179055508180600101925050610732565b505050505050505050565b60036020528060005260406000206000915054906101000a900473ffffffffffffffffffffffffffffffffffffffff1681565b60018181548110151561086357fe5b90600052602060002090600402016000915090508060000154908060010154908060020154908060030154905084565b61089b61098e565b15156108a657600080fd5b600073ffffffffffffffffffffffffffffffffffffffff166000809054906101000a900473ffffffffffffffffffffffffffffffffffffffff1673ffffffffffffffffffffffffffffffffffffffff167f8be0079c531659141344cd1fd0a4f28419497f9722a3daafe3b4186f6b6457e060405160405180910390a360008060006101000a81548173ffffffffffffffffffffffffffffffffffffffff021916908373ffffffffffffffffffffffffffffffffffffffff160217905550565b60008060009054906101000a900473ffffffffffffffffffffffffffffffffffffffff16905090565b60008060009054906101000a900473ffffffffffffffffffffffffffffffffffffffff1673ffffffffffffffffffffffffffffffffffffffff163373ffffffffffffffffffffffffffffffffffffffff1614905090565b60046020528060005260406000206000915054906101000a900473ffffffffffffffffffffffffffffffffffffffff1681565b610a2061098e565b1515610a2b57600080fd5b610a3481610bd2565b50565b600281815481101515610a4657fe5b9060005260206000209060060201600091509050806000018054600181600116156101000203166002900480601f016020809104026020016040519081016040528092919081815260200182805460018160011615610100020316600290048015610af25780601f10610ac757610100808354040283529160200191610af2565b820191906000526020600020905b815481529060010190602001808311610ad557829003601f168201915b5050505050908060010154908060020154908060030160009054906101000a900473ffffffffffffffffffffffffffffffffffffffff1690806004015490806005018054600181600116156101000203166002900480601f016020809104026020016040519081016040528092919081815260200182805460018160011615610100020316600290048015610bc85780601f10610b9d57610100808354040283529160200191610bc8565b820191906000526020600020905b815481529060010190602001808311610bab57829003601f168201915b5050505050905086565b600073ffffffffffffffffffffffffffffffffffffffff168173ffffffffffffffffffffffffffffffffffffffff1614151515610c0e57600080fd5b8073ffffffffffffffffffffffffffffffffffffffff166000809054906101000a900473ffffffffffffffffffffffffffffffffffffffff1673ffffffffffffffffffffffffffffffffffffffff167f8be0079c531659141344cd1fd0a4f28419497f9722a3daafe3b4186f6b6457e060405160405180910390a3806000806101000a81548173ffffffffffffffffffffffffffffffffffffffff021916908373ffffffffffffffffffffffffffffffffffffffff16021790555050565b828054600181600116156101000203166002900490600052602060002090601f016020900481019282601f10610d0d57805160ff1916838001178555610d3b565b82800160010185558215610d3b579182015b82811115610d3a578251825591602001919060010190610d1f565b5b509050610d489190610d4c565b5090565b610d6e91905b80821115610d6a576000816000905550600101610d52565b5090565b905600a165627a7a72305820af056a36546e1e83b554ab403939d7ce5f51701f9d57b6ceb5c439945c5cf19a0029",
  "source": "pragma solidity ^0.4.23;\r\n\r\nimport \"./Ownable.sol\";\r\nimport \"./SafeMath.sol\";\r\n\r\ncontract TokenFactory is Ownable {\r\n    using SafeMath for uint256;\r\n\r\n    event NewProperty(string name, address mainOwner, uint sqFt, uint propId);\r\n\r\n    struct Token {\r\n        uint propId;\r\n        uint boughtAtValuePerSqFt;\r\n        uint sellValPerSqFt; // 0 implies not to sell\r\n        uint rentValPerSqFtPerDay; // 0 implies not set\r\n    }\r\n\r\n    struct Property {\r\n        string name;\r\n        uint sqFt;\r\n        uint rentedAtValue; // 0 implies not rented\r\n        address rentedBy;\r\n        uint rentedUntil;\r\n        string docsHash; // on IPFS\r\n    }\r\n\r\n    Token[] public tokens;\r\n    Property[] public props;\r\n    mapping(uint => address) public token2Owner;\r\n    mapping(uint => address) public property2MainOwner;\r\n\r\n    function newProperty(string _name, address _main_owner, uint _sqFt, uint _boughtAtValuePerSqFt, uint _sellValPerSqFt, uint _rentValPerSqFtPerDay) public onlyOwner\r\n    {\r\n        uint propId = props.push(Property(_name, _sqFt, 0, address(0), 0, \"\")) - 1;\r\n        property2MainOwner[propId] = _main_owner;\r\n        emit NewProperty(_name, _main_owner, _sqFt, propId);\r\n        for (uint i = 0; i < _sqFt; i++) {\r\n            uint id = tokens.push(Token(propId, _boughtAtValuePerSqFt, _sellValPerSqFt, _rentValPerSqFtPerDay)) - 1;\r\n            token2Owner[id] = _main_owner;\r\n        }\r\n    }\r\n}",
  "sourcePath": "E:\\projects_workspaces\\competitions\\GlobalBlockchainHackathon\\EstateChain\\contracts\\TokenFactory.sol",
  "compiler": {
    "name": "solc",
    "version": "0.4.23+commit.124ca40d.Emscripten.clang"
  },
  "schemaVersion": "2.0.0",
  "updatedAt": "2018-12-21T16:43:08.142Z"
}