{
  "contractName": "TokenHelper",
  "abi": [
    {
      "constant": false,
      "inputs": [
        {
          "name": "_name",
          "type": "string"
        },
        {
          "name": "_main_owner",
          "type": "address"
        },
        {
          "name": "_sqFt",
          "type": "uint256"
        },
        {
          "name": "_boughtAtValuePerSqFt",
          "type": "uint256"
        },
        {
          "name": "_sellValPerSqFt",
          "type": "uint256"
        },
        {
          "name": "_rentValPerSqFtPerDay",
          "type": "uint256"
        }
      ],
      "name": "newProperty",
      "outputs": [],
      "payable": false,
      "stateMutability": "nonpayable",
      "type": "function"
    },
    {
      "constant": true,
      "inputs": [
        {
          "name": "",
          "type": "uint256"
        }
      ],
      "name": "token2Owner",
      "outputs": [
        {
          "name": "",
          "type": "address"
        }
      ],
      "payable": false,
      "stateMutability": "view",
      "type": "function"
    },
    {
      "constant": true,
      "inputs": [],
      "name": "noOfTokens",
      "outputs": [
        {
          "name": "",
          "type": "uint256"
        }
      ],
      "payable": false,
      "stateMutability": "view",
      "type": "function"
    },
    {
      "constant": true,
      "inputs": [],
      "name": "propertyTaxPercentage",
      "outputs": [
        {
          "name": "",
          "type": "uint256"
        }
      ],
      "payable": false,
      "stateMutability": "view",
      "type": "function"
    },
    {
      "constant": true,
      "inputs": [
        {
          "name": "",
          "type": "uint256"
        }
      ],
      "name": "tokens",
      "outputs": [
        {
          "name": "propId",
          "type": "uint256"
        },
        {
          "name": "boughtAtValuePerSqFt",
          "type": "uint256"
        },
        {
          "name": "sellValPerSqFt",
          "type": "uint256"
        },
        {
          "name": "rentValPerSqFtPerDay",
          "type": "uint256"
        }
      ],
      "payable": false,
      "stateMutability": "view",
      "type": "function"
    },
    {
      "constant": false,
      "inputs": [],
      "name": "renounceOwnership",
      "outputs": [],
      "payable": false,
      "stateMutability": "nonpayable",
      "type": "function"
    },
    {
      "constant": true,
      "inputs": [],
      "name": "owner",
      "outputs": [
        {
          "name": "",
          "type": "address"
        }
      ],
      "payable": false,
      "stateMutability": "view",
      "type": "function"
    },
    {
      "constant": true,
      "inputs": [],
      "name": "isOwner",
      "outputs": [
        {
          "name": "",
          "type": "bool"
        }
      ],
      "payable": false,
      "stateMutability": "view",
      "type": "function"
    },
    {
      "constant": true,
      "inputs": [],
      "name": "mainOwnerSharePercentage",
      "outputs": [
        {
          "name": "",
          "type": "uint256"
        }
      ],
      "payable": false,
      "stateMutability": "view",
      "type": "function"
    },
    {
      "constant": true,
      "inputs": [
        {
          "name": "",
          "type": "uint256"
        }
      ],
      "name": "property2MainOwner",
      "outputs": [
        {
          "name": "",
          "type": "address"
        }
      ],
      "payable": false,
      "stateMutability": "view",
      "type": "function"
    },
    {
      "constant": false,
      "inputs": [
        {
          "name": "newOwner",
          "type": "address"
        }
      ],
      "name": "transferOwnership",
      "outputs": [],
      "payable": false,
      "stateMutability": "nonpayable",
      "type": "function"
    },
    {
      "constant": true,
      "inputs": [
        {
          "name": "",
          "type": "uint256"
        }
      ],
      "name": "props",
      "outputs": [
        {
          "name": "name",
          "type": "string"
        },
        {
          "name": "sqFt",
          "type": "uint256"
        },
        {
          "name": "rentedAtValue",
          "type": "uint256"
        },
        {
          "name": "rentedBy",
          "type": "address"
        },
        {
          "name": "rentedUntil",
          "type": "uint256"
        },
        {
          "name": "docsHash",
          "type": "string"
        }
      ],
      "payable": false,
      "stateMutability": "view",
      "type": "function"
    },
    {
      "anonymous": false,
      "inputs": [
        {
          "indexed": false,
          "name": "name",
          "type": "string"
        },
        {
          "indexed": false,
          "name": "mainOwner",
          "type": "address"
        },
        {
          "indexed": false,
          "name": "sqFt",
          "type": "uint256"
        },
        {
          "indexed": false,
          "name": "propId",
          "type": "uint256"
        }
      ],
      "name": "NewProperty",
      "type": "event"
    },
    {
      "anonymous": false,
      "inputs": [
        {
          "indexed": true,
          "name": "previousOwner",
          "type": "address"
        },
        {
          "indexed": true,
          "name": "newOwner",
          "type": "address"
        }
      ],
      "name": "OwnershipTransferred",
      "type": "event"
    },
    {
      "constant": false,
      "inputs": [
        {
          "name": "_percentage",
          "type": "uint256"
        }
      ],
      "name": "setMainOwnerSharePercentage",
      "outputs": [],
      "payable": false,
      "stateMutability": "nonpayable",
      "type": "function"
    },
    {
      "constant": false,
      "inputs": [
        {
          "name": "_percentage",
          "type": "uint256"
        }
      ],
      "name": "setPropertyTaxPercentage",
      "outputs": [],
      "payable": false,
      "stateMutability": "nonpayable",
      "type": "function"
    },
    {
      "constant": false,
      "inputs": [
        {
          "name": "_propId",
          "type": "uint256"
        },
        {
          "name": "_newSqFt",
          "type": "uint256"
        }
      ],
      "name": "increaseArea",
      "outputs": [],
      "payable": false,
      "stateMutability": "nonpayable",
      "type": "function"
    },
    {
      "constant": false,
      "inputs": [
        {
          "name": "_propId",
          "type": "uint256"
        },
        {
          "name": "_newDocsHash",
          "type": "string"
        }
      ],
      "name": "changeDocsHash",
      "outputs": [],
      "payable": false,
      "stateMutability": "nonpayable",
      "type": "function"
    },
    {
      "constant": false,
      "inputs": [
        {
          "name": "_tokenId",
          "type": "uint256"
        },
        {
          "name": "_newSellValPerSqFt",
          "type": "uint256"
        }
      ],
      "name": "setSellValPerSqFt",
      "outputs": [],
      "payable": false,
      "stateMutability": "nonpayable",
      "type": "function"
    },
    {
      "constant": false,
      "inputs": [
        {
          "name": "_tokenId",
          "type": "uint256"
        },
        {
          "name": "_newRentValPerSqFtPerDay",
          "type": "uint256"
        }
      ],
      "name": "setRentValPerSqFtPerDay",
      "outputs": [],
      "payable": false,
      "stateMutability": "nonpayable",
      "type": "function"
    }
  ],
  "bytecode": "0x60806040526000600155600a6006556005600755336000806101000a81548173ffffffffffffffffffffffffffffffffffffffff021916908373ffffffffffffffffffffffffffffffffffffffff1602179055506000809054906101000a900473ffffffffffffffffffffffffffffffffffffffff1673ffffffffffffffffffffffffffffffffffffffff16600073ffffffffffffffffffffffffffffffffffffffff167f8be0079c531659141344cd1fd0a4f28419497f9722a3daafe3b4186f6b6457e060405160405180910390a361133d806100de6000396000f3006080604052600436106100fc576000357c0100000000000000000000000000000000000000000000000000000000900463ffffffff1680630175bc26146101015780631dca7fcf146101b257806336e9b3441461021f578063374a12bf1461024a5780633f433efa146102755780634f64b2be146102a2578063594a4524146102f8578063672799e91461032f578063715018a61461037457806383f85d3b1461038b5780638da5cb5b146103b85780638f32d59b1461040f5780639c1304741461043e5780639efb887f14610475578063cd499128146104a0578063dea6a04b146104d7578063f2fde38b14610544578063fda54c1614610587575b600080fd5b34801561010d57600080fd5b506101b0600480360381019080803590602001908201803590602001908080601f0160208091040260200160405190810160405280939291908181526020018383808284378201915050505050509192919290803573ffffffffffffffffffffffffffffffffffffffff169060200190929190803590602001909291908035906020019092919080359060200190929190803590602001909291905050506106e1565b005b3480156101be57600080fd5b506101dd60048036038101908080359060200190929190505050610a5c565b604051808273ffffffffffffffffffffffffffffffffffffffff1673ffffffffffffffffffffffffffffffffffffffff16815260200191505060405180910390f35b34801561022b57600080fd5b50610234610a8f565b6040518082815260200191505060405180910390f35b34801561025657600080fd5b5061025f610a95565b6040518082815260200191505060405180910390f35b34801561028157600080fd5b506102a060048036038101908080359060200190929190505050610a9b565b005b3480156102ae57600080fd5b506102cd60048036038101908080359060200190929190505050610ab8565b6040518085815260200184815260200183815260200182815260200194505050505060405180910390f35b34801561030457600080fd5b5061032d6004803603810190808035906020019092919080359060200190929190505050610af7565b005b34801561033b57600080fd5b5061037260048036038101908080359060200190929190803590602001908201803590602001919091929391929390505050610b8f565b005b34801561038057600080fd5b50610389610c33565b005b34801561039757600080fd5b506103b660048036038101908080359060200190929190505050610d05565b005b3480156103c457600080fd5b506103cd610d22565b604051808273ffffffffffffffffffffffffffffffffffffffff1673ffffffffffffffffffffffffffffffffffffffff16815260200191505060405180910390f35b34801561041b57600080fd5b50610424610d4b565b604051808215151515815260200191505060405180910390f35b34801561044a57600080fd5b506104736004803603810190808035906020019092919080359060200190929190505050610da2565b005b34801561048157600080fd5b5061048a610e3a565b6040518082815260200191505060405180910390f35b3480156104ac57600080fd5b506104d56004803603810190808035906020019092919080359060200190929190505050610e40565b005b3480156104e357600080fd5b5061050260048036038101908080359060200190929190505050610ee4565b604051808273ffffffffffffffffffffffffffffffffffffffff1673ffffffffffffffffffffffffffffffffffffffff16815260200191505060405180910390f35b34801561055057600080fd5b50610585600480360381019080803573ffffffffffffffffffffffffffffffffffffffff169060200190929190505050610f17565b005b34801561059357600080fd5b506105b260048036038101908080359060200190929190505050610f36565b60405180806020018781526020018681526020018573ffffffffffffffffffffffffffffffffffffffff1673ffffffffffffffffffffffffffffffffffffffff16815260200184815260200180602001838103835289818151815260200191508051906020019080838360005b8381101561063a57808201518184015260208101905061061f565b50505050905090810190601f1680156106675780820380516001836020036101000a031916815260200191505b50838103825284818151815260200191508051906020019080838360005b838110156106a0578082015181840152602081019050610685565b50505050905090810190601f1680156106cd5780820380516001836020036101000a031916815260200191505b509850505050505050505060405180910390f35b60008060006106ee610d4b565b15156106f957600080fd5b6001600360c0604051908101604052808c81526020018a815260200160008152602001600073ffffffffffffffffffffffffffffffffffffffff16815260200160008152602001602060405190810160405280600081525081525090806001815401808255809150509060018203906000526020600020906006020160009091929091909150600082015181600001908051906020019061079b9291906111ec565b50602082015181600101556040820151816002015560608201518160030160006101000a81548173ffffffffffffffffffffffffffffffffffffffff021916908373ffffffffffffffffffffffffffffffffffffffff1602179055506080820151816004015560a082015181600501908051906020019061081d9291906111ec565b505050039250876005600085815260200190815260200160002060006101000a81548173ffffffffffffffffffffffffffffffffffffffff021916908373ffffffffffffffffffffffffffffffffffffffff1602179055507f1ef7277f4643471582713ead0a4c4673adc2449aa6000b727480ac8a8e06c84c8989898660405180806020018573ffffffffffffffffffffffffffffffffffffffff1673ffffffffffffffffffffffffffffffffffffffff168152602001848152602001838152602001828103825286818151815260200191508051906020019080838360005b838110156109185780820151818401526020810190506108fd565b50505050905090810190601f1680156109455780820380516001836020036101000a031916815260200191505b509550505050505060405180910390a1600091505b86821015610a5157600160026080604051908101604052808681526020018981526020018881526020018781525090806001815401808255809150509060018203906000526020600020906004020160009091929091909150600082015181600001556020820151816001015560408201518160020155606082015181600301555050039050600160008154809291906001019190505550876004600083815260200190815260200160002060006101000a81548173ffffffffffffffffffffffffffffffffffffffff021916908373ffffffffffffffffffffffffffffffffffffffff160217905550818060010192505061095a565b505050505050505050565b60046020528060005260406000206000915054906101000a900473ffffffffffffffffffffffffffffffffffffffff1681565b60015481565b60075481565b610aa3610d4b565b1515610aae57600080fd5b8060078190555050565b600281815481101515610ac757fe5b90600052602060002090600402016000915090508060000154908060010154908060020154908060030154905084565b816004600082815260200190815260200160002060009054906101000a900473ffffffffffffffffffffffffffffffffffffffff1673ffffffffffffffffffffffffffffffffffffffff163373ffffffffffffffffffffffffffffffffffffffff16141515610b6557600080fd5b81600284815481101515610b7557fe5b906000526020600020906004020160030181905550505050565b826005600082815260200190815260200160002060009054906101000a900473ffffffffffffffffffffffffffffffffffffffff1673ffffffffffffffffffffffffffffffffffffffff163373ffffffffffffffffffffffffffffffffffffffff16141515610bfd57600080fd5b8282600386815481101515610c0e57fe5b90600052602060002090600602016005019190610c2c92919061126c565b5050505050565b610c3b610d4b565b1515610c4657600080fd5b600073ffffffffffffffffffffffffffffffffffffffff166000809054906101000a900473ffffffffffffffffffffffffffffffffffffffff1673ffffffffffffffffffffffffffffffffffffffff167f8be0079c531659141344cd1fd0a4f28419497f9722a3daafe3b4186f6b6457e060405160405180910390a360008060006101000a81548173ffffffffffffffffffffffffffffffffffffffff021916908373ffffffffffffffffffffffffffffffffffffffff160217905550565b610d0d610d4b565b1515610d1857600080fd5b8060068190555050565b60008060009054906101000a900473ffffffffffffffffffffffffffffffffffffffff16905090565b60008060009054906101000a900473ffffffffffffffffffffffffffffffffffffffff1673ffffffffffffffffffffffffffffffffffffffff163373ffffffffffffffffffffffffffffffffffffffff1614905090565b816004600082815260200190815260200160002060009054906101000a900473ffffffffffffffffffffffffffffffffffffffff1673ffffffffffffffffffffffffffffffffffffffff163373ffffffffffffffffffffffffffffffffffffffff16141515610e1057600080fd5b81600284815481101515610e2057fe5b906000526020600020906004020160020181905550505050565b60065481565b6000806000610e4d610d4b565b1515610e5857600080fd5b600385815481101515610e6757fe5b90600052602060002090600602016001015492508284111515610e8957600080fd5b83600386815481101515610e9957fe5b906000526020600020906006020160010181905550610ec183856110d190919063ffffffff16565b9150600090505b81811015610edd578080600101915050610ec8565b5050505050565b60056020528060005260406000206000915054906101000a900473ffffffffffffffffffffffffffffffffffffffff1681565b610f1f610d4b565b1515610f2a57600080fd5b610f33816110f2565b50565b600381815481101515610f4557fe5b9060005260206000209060060201600091509050806000018054600181600116156101000203166002900480601f016020809104026020016040519081016040528092919081815260200182805460018160011615610100020316600290048015610ff15780601f10610fc657610100808354040283529160200191610ff1565b820191906000526020600020905b815481529060010190602001808311610fd457829003601f168201915b5050505050908060010154908060020154908060030160009054906101000a900473ffffffffffffffffffffffffffffffffffffffff1690806004015490806005018054600181600116156101000203166002900480601f0160208091040260200160405190810160405280929190818152602001828054600181600116156101000203166002900480156110c75780601f1061109c576101008083540402835291602001916110c7565b820191906000526020600020905b8154815290600101906020018083116110aa57829003601f168201915b5050505050905086565b6000808383111515156110e357600080fd5b82840390508091505092915050565b600073ffffffffffffffffffffffffffffffffffffffff168173ffffffffffffffffffffffffffffffffffffffff161415151561112e57600080fd5b8073ffffffffffffffffffffffffffffffffffffffff166000809054906101000a900473ffffffffffffffffffffffffffffffffffffffff1673ffffffffffffffffffffffffffffffffffffffff167f8be0079c531659141344cd1fd0a4f28419497f9722a3daafe3b4186f6b6457e060405160405180910390a3806000806101000a81548173ffffffffffffffffffffffffffffffffffffffff021916908373ffffffffffffffffffffffffffffffffffffffff16021790555050565b828054600181600116156101000203166002900490600052602060002090601f016020900481019282601f1061122d57805160ff191683800117855561125b565b8280016001018555821561125b579182015b8281111561125a57825182559160200191906001019061123f565b5b50905061126891906112ec565b5090565b828054600181600116156101000203166002900490600052602060002090601f016020900481019282601f106112ad57803560ff19168380011785556112db565b828001600101855582156112db579182015b828111156112da5782358255916020019190600101906112bf565b5b5090506112e891906112ec565b5090565b61130e91905b8082111561130a5760008160009055506001016112f2565b5090565b905600a165627a7a72305820ca1bb1d382ad3275a5bcac02ba69c25001d8023e277296db60f4ab561536360e0029",
  "source": "pragma solidity ^0.4.23;\r\n\r\nimport \"./TokenFactory.sol\";\r\nimport \"./SafeMath.sol\";\r\n\r\ncontract TokenHelper is TokenFactory {\r\n    using SafeMath for uint256;\r\n    uint public mainOwnerSharePercentage = 10;\r\n    uint public propertyTaxPercentage = 5;\r\n\r\n    function setMainOwnerSharePercentage(uint _percentage) external onlyOwner {\r\n        mainOwnerSharePercentage = _percentage;\r\n    }\r\n\r\n    function setPropertyTaxPercentage(uint _percentage) external onlyOwner {\r\n        propertyTaxPercentage = _percentage;\r\n    }\r\n\r\n    function increaseArea(uint _propId, uint _newSqFt) external onlyOwner {\r\n        uint oldSqFt = props[_propId].sqFt;\r\n        require(_newSqFt > oldSqFt);\r\n        props[_propId].sqFt = _newSqFt;\r\n        uint extra = _newSqFt.sub(oldSqFt);\r\n        for (uint i = 0; i < extra; i++) {\r\n            // todo distribute\r\n        }\r\n    }\r\n\r\n    modifier onlyMainOwnerOf(uint _propertyId) {\r\n        require(msg.sender == property2MainOwner[_propertyId]);\r\n        _;\r\n    }\r\n    //    function changeName(uint _propId, string _newName) external onlyMainOwnerOf(_propId) {\r\n    //        props[_propId].name = _newName;\r\n    //    }\r\n    function changeDocsHash(uint _propId, string _newDocsHash) external onlyMainOwnerOf(_propId) {\r\n        props[_propId].docsHash = _newDocsHash;\r\n    }\r\n\r\n    modifier onlyOwnerOf(uint _tokenId) {\r\n        require(msg.sender == token2Owner[_tokenId]);\r\n        _;\r\n    }\r\n    function setSellValPerSqFt(uint _tokenId, uint _newSellValPerSqFt) external onlyOwnerOf(_tokenId) {\r\n        tokens[_tokenId].sellValPerSqFt = _newSellValPerSqFt;\r\n    }\r\n\r\n    function setRentValPerSqFtPerDay(uint _tokenId, uint _newRentValPerSqFtPerDay) external onlyOwnerOf(_tokenId) {\r\n        tokens[_tokenId].rentValPerSqFtPerDay = _newRentValPerSqFtPerDay;\r\n    }\r\n}\r\n",
  "sourcePath": "E:\\projects_workspaces\\competitions\\GlobalBlockchainHackathon\\EstateChain\\contracts\\TokenHelper.sol",
  "compiler": {
    "name": "solc",
    "version": "0.4.23+commit.124ca40d.Emscripten.clang"
  },
  "schemaVersion": "2.0.0",
  "updatedAt": "2018-12-21T17:47:03.676Z"
}