{
  "contractName": "TokenRental",
  "abi": [
    {
      "constant": false,
      "inputs": [
        {
          "name": "_tokenId",
          "type": "uint256"
        },
        {
          "name": "_newSellValPerSqFt",
          "type": "uint256"
        },
        {
          "name": "_newRentValPerSqFtPerDay",
          "type": "uint256"
        }
      ],
      "name": "setValues",
      "outputs": [],
      "payable": false,
      "stateMutability": "nonpayable",
      "type": "function"
    },
    {
      "constant": true,
      "inputs": [
        {
          "name": "",
          "type": "uint256"
        }
      ],
      "name": "token2Owner",
      "outputs": [
        {
          "name": "",
          "type": "address"
        }
      ],
      "payable": false,
      "stateMutability": "view",
      "type": "function"
    },
    {
      "constant": true,
      "inputs": [],
      "name": "noOfTokens",
      "outputs": [
        {
          "name": "",
          "type": "uint256"
        }
      ],
      "payable": false,
      "stateMutability": "view",
      "type": "function"
    },
    {
      "constant": true,
      "inputs": [],
      "name": "propertyTaxPercentage",
      "outputs": [
        {
          "name": "",
          "type": "uint256"
        }
      ],
      "payable": false,
      "stateMutability": "view",
      "type": "function"
    },
    {
      "constant": false,
      "inputs": [
        {
          "name": "_percentage",
          "type": "uint256"
        }
      ],
      "name": "setPropertyTaxPercentage",
      "outputs": [],
      "payable": false,
      "stateMutability": "nonpayable",
      "type": "function"
    },
    {
      "constant": true,
      "inputs": [
        {
          "name": "",
          "type": "uint256"
        }
      ],
      "name": "tokens",
      "outputs": [
        {
          "name": "propId",
          "type": "uint256"
        },
        {
          "name": "boughtAtValuePerSqFt",
          "type": "uint256"
        },
        {
          "name": "sellValPerSqFt",
          "type": "uint256"
        },
        {
          "name": "rentValPerSqFtPerDay",
          "type": "uint256"
        }
      ],
      "payable": false,
      "stateMutability": "view",
      "type": "function"
    },
    {
      "constant": false,
      "inputs": [
        {
          "name": "_propId",
          "type": "uint256"
        },
        {
          "name": "_newDocsHash",
          "type": "string"
        }
      ],
      "name": "changeDocsHash",
      "outputs": [],
      "payable": false,
      "stateMutability": "nonpayable",
      "type": "function"
    },
    {
      "constant": false,
      "inputs": [],
      "name": "renounceOwnership",
      "outputs": [],
      "payable": false,
      "stateMutability": "nonpayable",
      "type": "function"
    },
    {
      "constant": false,
      "inputs": [
        {
          "name": "_name",
          "type": "string"
        },
        {
          "name": "_main_owner",
          "type": "address"
        },
        {
          "name": "_sqFt",
          "type": "uint256"
        },
        {
          "name": "_boughtAtValuePerSqFt",
          "type": "uint256"
        },
        {
          "name": "_sellValPerSqFt",
          "type": "uint256"
        },
        {
          "name": "_rentValPerSqFtPerDay",
          "type": "uint256"
        },
        {
          "name": "image",
          "type": "string"
        }
      ],
      "name": "newProperty",
      "outputs": [],
      "payable": false,
      "stateMutability": "nonpayable",
      "type": "function"
    },
    {
      "constant": false,
      "inputs": [
        {
          "name": "_percentage",
          "type": "uint256"
        }
      ],
      "name": "setMainOwnerSharePercentage",
      "outputs": [],
      "payable": false,
      "stateMutability": "nonpayable",
      "type": "function"
    },
    {
      "constant": true,
      "inputs": [],
      "name": "owner",
      "outputs": [
        {
          "name": "",
          "type": "address"
        }
      ],
      "payable": false,
      "stateMutability": "view",
      "type": "function"
    },
    {
      "constant": true,
      "inputs": [],
      "name": "isOwner",
      "outputs": [
        {
          "name": "",
          "type": "bool"
        }
      ],
      "payable": false,
      "stateMutability": "view",
      "type": "function"
    },
    {
      "constant": true,
      "inputs": [],
      "name": "mainOwnerSharePercentage",
      "outputs": [
        {
          "name": "",
          "type": "uint256"
        }
      ],
      "payable": false,
      "stateMutability": "view",
      "type": "function"
    },
    {
      "constant": false,
      "inputs": [
        {
          "name": "_propId",
          "type": "uint256"
        },
        {
          "name": "_newOwner",
          "type": "address"
        }
      ],
      "name": "changeMainOwner",
      "outputs": [],
      "payable": false,
      "stateMutability": "nonpayable",
      "type": "function"
    },
    {
      "constant": false,
      "inputs": [
        {
          "name": "_propId",
          "type": "uint256"
        },
        {
          "name": "_newSqFt",
          "type": "uint256"
        }
      ],
      "name": "increaseArea",
      "outputs": [],
      "payable": false,
      "stateMutability": "nonpayable",
      "type": "function"
    },
    {
      "constant": true,
      "inputs": [],
      "name": "noOfProperties",
      "outputs": [
        {
          "name": "",
          "type": "uint256"
        }
      ],
      "payable": false,
      "stateMutability": "view",
      "type": "function"
    },
    {
      "constant": true,
      "inputs": [
        {
          "name": "",
          "type": "uint256"
        }
      ],
      "name": "property2MainOwner",
      "outputs": [
        {
          "name": "",
          "type": "address"
        }
      ],
      "payable": false,
      "stateMutability": "view",
      "type": "function"
    },
    {
      "constant": false,
      "inputs": [
        {
          "name": "newOwner",
          "type": "address"
        }
      ],
      "name": "transferOwnership",
      "outputs": [],
      "payable": false,
      "stateMutability": "nonpayable",
      "type": "function"
    },
    {
      "constant": true,
      "inputs": [
        {
          "name": "",
          "type": "uint256"
        }
      ],
      "name": "props",
      "outputs": [
        {
          "name": "name",
          "type": "string"
        },
        {
          "name": "sqFt",
          "type": "uint256"
        },
        {
          "name": "rentedAtValue",
          "type": "uint256"
        },
        {
          "name": "rentedBy",
          "type": "address"
        },
        {
          "name": "rentedUntil",
          "type": "uint256"
        },
        {
          "name": "docsHash",
          "type": "string"
        }
      ],
      "payable": false,
      "stateMutability": "view",
      "type": "function"
    },
    {
      "anonymous": false,
      "inputs": [
        {
          "indexed": false,
          "name": "propId",
          "type": "uint256"
        },
        {
          "indexed": false,
          "name": "rentVal",
          "type": "uint256"
        },
        {
          "indexed": false,
          "name": "_days",
          "type": "uint256"
        }
      ],
      "name": "Rented",
      "type": "event"
    },
    {
      "anonymous": false,
      "inputs": [
        {
          "indexed": false,
          "name": "name",
          "type": "string"
        },
        {
          "indexed": false,
          "name": "mainOwner",
          "type": "address"
        },
        {
          "indexed": false,
          "name": "sqFt",
          "type": "uint256"
        },
        {
          "indexed": false,
          "name": "propId",
          "type": "uint256"
        }
      ],
      "name": "NewProperty",
      "type": "event"
    },
    {
      "anonymous": false,
      "inputs": [
        {
          "indexed": true,
          "name": "previousOwner",
          "type": "address"
        },
        {
          "indexed": true,
          "name": "newOwner",
          "type": "address"
        }
      ],
      "name": "OwnershipTransferred",
      "type": "event"
    },
    {
      "constant": true,
      "inputs": [
        {
          "name": "_propId",
          "type": "uint256"
        }
      ],
      "name": "calcRentPerSqFtPerDay",
      "outputs": [
        {
          "name": "",
          "type": "uint256"
        }
      ],
      "payable": false,
      "stateMutability": "view",
      "type": "function"
    },
    {
      "constant": false,
      "inputs": [
        {
          "name": "_propId",
          "type": "uint256"
        },
        {
          "name": "_days",
          "type": "uint256"
        }
      ],
      "name": "Rent",
      "outputs": [],
      "payable": true,
      "stateMutability": "payable",
      "type": "function"
    }
  ],
  "bytecode": "0x608060405260006001556000600255600a6007556005600855336000806101000a81548173ffffffffffffffffffffffffffffffffffffffff021916908373ffffffffffffffffffffffffffffffffffffffff1602179055506000809054906101000a900473ffffffffffffffffffffffffffffffffffffffff1673ffffffffffffffffffffffffffffffffffffffff16600073ffffffffffffffffffffffffffffffffffffffff167f8be0079c531659141344cd1fd0a4f28419497f9722a3daafe3b4186f6b6457e060405160405180910390a3611e11806100e36000396000f30060806040526004361061011d576000357c0100000000000000000000000000000000000000000000000000000000900463ffffffff168063111be316146101225780631dca7fcf1461016357806336e9b344146101d0578063374a12bf146101fb5780633c0d2db4146102265780633f433efa146102675780634f64b2be14610294578063659bdfb5146102ea578063672799e914610314578063715018a61461035957806375ef62f41461037057806383f85d3b146104675780638da5cb5b146104945780638f32d59b146104eb5780639efb887f1461051a578063b89ac03d14610545578063cd49912814610592578063d9ddc494146105c9578063dea6a04b146105f4578063f2fde38b14610661578063fda54c16146106a4575b600080fd5b34801561012e57600080fd5b506101616004803603810190808035906020019092919080359060200190929190803590602001909291905050506107fe565b005b34801561016f57600080fd5b5061018e6004803603810190808035906020019092919050505061094b565b604051808273ffffffffffffffffffffffffffffffffffffffff1673ffffffffffffffffffffffffffffffffffffffff16815260200191505060405180910390f35b3480156101dc57600080fd5b506101e561097e565b6040518082815260200191505060405180910390f35b34801561020757600080fd5b50610210610984565b6040518082815260200191505060405180910390f35b34801561023257600080fd5b506102516004803603810190808035906020019092919050505061098a565b6040518082815260200191505060405180910390f35b34801561027357600080fd5b5061029260048036038101908080359060200190929190505050610a3b565b005b3480156102a057600080fd5b506102bf60048036038101908080359060200190929190505050610ae7565b6040518085815260200184815260200183815260200182815260200194505050505060405180910390f35b6103126004803603810190808035906020019092919080359060200190929190505050610b26565b005b34801561032057600080fd5b5061035760048036038101908080359060200190929190803590602001908201803590602001919091929391929390505050610eb6565b005b34801561036557600080fd5b5061036e610fe9565b005b34801561037c57600080fd5b50610465600480360381019080803590602001908201803590602001908080601f0160208091040260200160405190810160405280939291908181526020018383808284378201915050505050509192919290803573ffffffffffffffffffffffffffffffffffffffff16906020019092919080359060200190929190803590602001909291908035906020019092919080359060200190929190803590602001908201803590602001908080601f016020809104026020016040519081016040528093929190818152602001838380828437820191505050505050919291929050505061114a565b005b34801561047357600080fd5b5061049260048036038101908080359060200190929190505050611557565b005b3480156104a057600080fd5b506104a9611603565b604051808273ffffffffffffffffffffffffffffffffffffffff1673ffffffffffffffffffffffffffffffffffffffff16815260200191505060405180910390f35b3480156104f757600080fd5b5061050061162c565b604051808215151515815260200191505060405180910390f35b34801561052657600080fd5b5061052f611683565b6040518082815260200191505060405180910390f35b34801561055157600080fd5b5061059060048036038101908080359060200190929190803573ffffffffffffffffffffffffffffffffffffffff169060200190929190505050611689565b005b34801561059e57600080fd5b506105c760048036038101908080359060200190929190803590602001909291905050506117dd565b005b3480156105d557600080fd5b506105de6118dc565b6040518082815260200191505060405180910390f35b34801561060057600080fd5b5061061f600480360381019080803590602001909291905050506118e2565b604051808273ffffffffffffffffffffffffffffffffffffffff1673ffffffffffffffffffffffffffffffffffffffff16815260200191505060405180910390f35b34801561066d57600080fd5b506106a2600480360381019080803573ffffffffffffffffffffffffffffffffffffffff169060200190929190505050611915565b005b3480156106b057600080fd5b506106cf600480360381019080803590602001909291905050506119c3565b60405180806020018781526020018681526020018573ffffffffffffffffffffffffffffffffffffffff1673ffffffffffffffffffffffffffffffffffffffff16815260200184815260200180602001838103835289818151815260200191508051906020019080838360005b8381101561075757808201518184015260208101905061073c565b50505050905090810190601f1680156107845780820380516001836020036101000a031916815260200191505b50838103825284818151815260200191508051906020019080838360005b838110156107bd5780820151818401526020810190506107a2565b50505050905090810190601f1680156107ea5780820380516001836020036101000a031916815260200191505b509850505050505050505060405180910390f35b826005600082815260200190815260200160002060009054906101000a900473ffffffffffffffffffffffffffffffffffffffff1673ffffffffffffffffffffffffffffffffffffffff163373ffffffffffffffffffffffffffffffffffffffff161415156108fb576040517f08c379a00000000000000000000000000000000000000000000000000000000081526004018080602001828103825260218152602001807f43616e206f6e6c7920626520657865637574656420627920746865206f776e6581526020017f720000000000000000000000000000000000000000000000000000000000000081525060400191505060405180910390fd5b8260038581548110151561090b57fe5b9060005260206000209060040201600201819055508160038581548110151561093057fe5b90600052602060002090600402016003018190555050505050565b60056020528060005260406000206000915054906101000a900473ffffffffffffffffffffffffffffffffffffffff1681565b60015481565b60085481565b6000806000809150600090505b6001548110156109fc57836003828154811015156109b157fe5b90600052602060002090600402016000015414156109ef576003818154811015156109d857fe5b906000526020600020906004020160030154820191505b8080600101915050610997565b610a2f600485815481101515610a0e57fe5b90600052602060002090600602016001015483611b5e90919063ffffffff16565b91508192505050919050565b610a4361162c565b1515610add576040517f08c379a000000000000000000000000000000000000000000000000000000000815260040180806020018281038252602a8152602001807f43616e206f6e6c792062652065786563757465642062792074686520676f766581526020017f726e696e6720626f64790000000000000000000000000000000000000000000081525060400191505060405180910390fd5b8060088190555050565b600381815481101515610af657fe5b90600052602060002090600402016000915090508060000154908060010154908060020154908060030154905084565b6000806000806000610b378761098a565b9450610b7e600488815481101515610b4b57fe5b906000526020600020906006020160010154610b708888611b8890919063ffffffff16565b611b8890919063ffffffff16565b9350670de0b6b3a7640000840234141515610c01576040517f08c379a00000000000000000000000000000000000000000000000000000000081526004018080602001828103825260188152602001807f496e636f72726563742065746865722070726f7669646564000000000000000081525060200191505060405180910390fd5b610c296064610c1b60075487611b8890919063ffffffff16565b611b5e90919063ffffffff16565b92506006600088815260200190815260200160002060009054906101000a900473ffffffffffffffffffffffffffffffffffffffff1673ffffffffffffffffffffffffffffffffffffffff166108fc849081150290604051600060405180830381858888f19350505050158015610ca4573d6000803e3d6000fd5b508284039350600091505b600154821015610d9e5786600383815481101515610cc957fe5b9060005260206000209060040201600001541415610d91576005600083815260200190815260200160002060009054906101000a900473ffffffffffffffffffffffffffffffffffffffff1690508073ffffffffffffffffffffffffffffffffffffffff166108fc610d6460048a815481101515610d4357fe5b90600052602060002090600602016001015487611b5e90919063ffffffff16565b9081150290604051600060405180830381858888f19350505050158015610d8f573d6000803e3d6000fd5b505b8180600101925050610caf565b33600488815481101515610dae57fe5b906000526020600020906006020160030160006101000a81548173ffffffffffffffffffffffffffffffffffffffff021916908373ffffffffffffffffffffffffffffffffffffffff16021790555084600488815481101515610e0d57fe5b906000526020600020906006020160020181905550610e386201518087611b8890919063ffffffff16565b4201600488815481101515610e4957fe5b9060005260206000209060060201600401819055507f4106602d6aaa44a3e570bbeca832bb0e3d70c20a1ecca1658b166e1982cce73287610e898961098a565b8860405180848152602001838152602001828152602001935050505060405180910390a150505050505050565b826006600082815260200190815260200160002060009054906101000a900473ffffffffffffffffffffffffffffffffffffffff1673ffffffffffffffffffffffffffffffffffffffff163373ffffffffffffffffffffffffffffffffffffffff16141515610fb3576040517f08c379a00000000000000000000000000000000000000000000000000000000081526004018080602001828103825260268152602001807f43616e206f6e6c7920626520657865637574656420627920746865206d61696e81526020017f206f776e6572000000000000000000000000000000000000000000000000000081525060400191505060405180910390fd5b8282600486815481101515610fc457fe5b90600052602060002090600602016005019190610fe2929190611cc0565b5050505050565b610ff161162c565b151561108b576040517f08c379a000000000000000000000000000000000000000000000000000000000815260040180806020018281038252602a8152602001807f43616e206f6e6c792062652065786563757465642062792074686520676f766581526020017f726e696e6720626f64790000000000000000000000000000000000000000000081525060400191505060405180910390fd5b600073ffffffffffffffffffffffffffffffffffffffff166000809054906101000a900473ffffffffffffffffffffffffffffffffffffffff1673ffffffffffffffffffffffffffffffffffffffff167f8be0079c531659141344cd1fd0a4f28419497f9722a3daafe3b4186f6b6457e060405160405180910390a360008060006101000a81548173ffffffffffffffffffffffffffffffffffffffff021916908373ffffffffffffffffffffffffffffffffffffffff160217905550565b600080600061115761162c565b15156111f1576040517f08c379a000000000000000000000000000000000000000000000000000000000815260040180806020018281038252602a8152602001807f43616e206f6e6c792062652065786563757465642062792074686520676f766581526020017f726e696e6720626f64790000000000000000000000000000000000000000000081525060400191505060405180910390fd5b6001600460c0604051908101604052808d81526020018b815260200160008152602001600073ffffffffffffffffffffffffffffffffffffffff1681526020016000815260200187815250908060018154018082558091505090600182039060005260206000209060060201600090919290919091506000820151816000019080519060200190611283929190611d40565b50602082015181600101556040820151816002015560608201518160030160006101000a81548173ffffffffffffffffffffffffffffffffffffffff021916908373ffffffffffffffffffffffffffffffffffffffff1602179055506080820151816004015560a0820151816005019080519060200190611305929190611d40565b505050039250600260008154809291906001019190505550886006600085815260200190815260200160002060006101000a81548173ffffffffffffffffffffffffffffffffffffffff021916908373ffffffffffffffffffffffffffffffffffffffff1602179055507f1ef7277f4643471582713ead0a4c4673adc2449aa6000b727480ac8a8e06c84c8a8a8a8660405180806020018573ffffffffffffffffffffffffffffffffffffffff1673ffffffffffffffffffffffffffffffffffffffff168152602001848152602001838152602001828103825286818151815260200191508051906020019080838360005b838110156114125780820151818401526020810190506113f7565b50505050905090810190601f16801561143f5780820380516001836020036101000a031916815260200191505b509550505050505060405180910390a1600091505b8782101561154b57600160036080604051908101604052808681526020018a81526020018981526020018881525090806001815401808255809150509060018203906000526020600020906004020160009091929091909150600082015181600001556020820151816001015560408201518160020155606082015181600301555050039050600160008154809291906001019190505550886005600083815260200190815260200160002060006101000a81548173ffffffffffffffffffffffffffffffffffffffff021916908373ffffffffffffffffffffffffffffffffffffffff1602179055508180600101925050611454565b50505050505050505050565b61155f61162c565b15156115f9576040517f08c379a000000000000000000000000000000000000000000000000000000000815260040180806020018281038252602a8152602001807f43616e206f6e6c792062652065786563757465642062792074686520676f766581526020017f726e696e6720626f64790000000000000000000000000000000000000000000081525060400191505060405180910390fd5b8060078190555050565b60008060009054906101000a900473ffffffffffffffffffffffffffffffffffffffff16905090565b60008060009054906101000a900473ffffffffffffffffffffffffffffffffffffffff1673ffffffffffffffffffffffffffffffffffffffff163373ffffffffffffffffffffffffffffffffffffffff1614905090565b60075481565b816006600082815260200190815260200160002060009054906101000a900473ffffffffffffffffffffffffffffffffffffffff1673ffffffffffffffffffffffffffffffffffffffff163373ffffffffffffffffffffffffffffffffffffffff16141515611786576040517f08c379a00000000000000000000000000000000000000000000000000000000081526004018080602001828103825260268152602001807f43616e206f6e6c7920626520657865637574656420627920746865206d61696e81526020017f206f776e6572000000000000000000000000000000000000000000000000000081525060400191505060405180910390fd5b816006600085815260200190815260200160002060006101000a81548173ffffffffffffffffffffffffffffffffffffffff021916908373ffffffffffffffffffffffffffffffffffffffff160217905550505050565b60006117e761162c565b1515611881576040517f08c379a000000000000000000000000000000000000000000000000000000000815260040180806020018281038252602a8152602001807f43616e206f6e6c792062652065786563757465642062792074686520676f766581526020017f726e696e6720626f64790000000000000000000000000000000000000000000081525060400191505060405180910390fd5b60048381548110151561189057fe5b906000526020600020906006020160010154905080821115156118b257600080fd5b816004848154811015156118c257fe5b906000526020600020906006020160010181905550505050565b60025481565b60066020528060005260406000206000915054906101000a900473ffffffffffffffffffffffffffffffffffffffff1681565b61191d61162c565b15156119b7576040517f08c379a000000000000000000000000000000000000000000000000000000000815260040180806020018281038252602a8152602001807f43616e206f6e6c792062652065786563757465642062792074686520676f766581526020017f726e696e6720626f64790000000000000000000000000000000000000000000081525060400191505060405180910390fd5b6119c081611bc6565b50565b6004818154811015156119d257fe5b9060005260206000209060060201600091509050806000018054600181600116156101000203166002900480601f016020809104026020016040519081016040528092919081815260200182805460018160011615610100020316600290048015611a7e5780601f10611a5357610100808354040283529160200191611a7e565b820191906000526020600020905b815481529060010190602001808311611a6157829003601f168201915b5050505050908060010154908060020154908060030160009054906101000a900473ffffffffffffffffffffffffffffffffffffffff1690806004015490806005018054600181600116156101000203166002900480601f016020809104026020016040519081016040528092919081815260200182805460018160011615610100020316600290048015611b545780601f10611b2957610100808354040283529160200191611b54565b820191906000526020600020905b815481529060010190602001808311611b3757829003601f168201915b5050505050905086565b600080600083111515611b7057600080fd5b8284811515611b7b57fe5b0490508091505092915050565b6000806000841415611b9d5760009150611bbf565b8284029050828482811515611bae57fe5b04141515611bbb57600080fd5b8091505b5092915050565b600073ffffffffffffffffffffffffffffffffffffffff168173ffffffffffffffffffffffffffffffffffffffff1614151515611c0257600080fd5b8073ffffffffffffffffffffffffffffffffffffffff166000809054906101000a900473ffffffffffffffffffffffffffffffffffffffff1673ffffffffffffffffffffffffffffffffffffffff167f8be0079c531659141344cd1fd0a4f28419497f9722a3daafe3b4186f6b6457e060405160405180910390a3806000806101000a81548173ffffffffffffffffffffffffffffffffffffffff021916908373ffffffffffffffffffffffffffffffffffffffff16021790555050565b828054600181600116156101000203166002900490600052602060002090601f016020900481019282601f10611d0157803560ff1916838001178555611d2f565b82800160010185558215611d2f579182015b82811115611d2e578235825591602001919060010190611d13565b5b509050611d3c9190611dc0565b5090565b828054600181600116156101000203166002900490600052602060002090601f016020900481019282601f10611d8157805160ff1916838001178555611daf565b82800160010185558215611daf579182015b82811115611dae578251825591602001919060010190611d93565b5b509050611dbc9190611dc0565b5090565b611de291905b80821115611dde576000816000905550600101611dc6565b5090565b905600a165627a7a72305820c1e1c51ea221640d5cd962cf25f0146002d56c3d03bf8792f21ab38b5afe64ea0029",
  "source": "pragma solidity ^0.4.23;\r\n\r\nimport \"./SafeMath.sol\";\r\nimport \"./TokenHelper.sol\";\r\n\r\ncontract TokenRental is TokenHelper {\r\n    using SafeMath for uint256;\r\n\r\n    event Rented(uint propId, uint rentVal, uint _days);\r\n\r\n    function calcRentPerSqFtPerDay(uint _propId) public view returns(uint) {\r\n        uint amount = 0;\r\n        for (uint i = 0; i < noOfTokens; i++)\r\n        {\r\n            if (tokens[i].propId == _propId)\r\n            {\r\n                amount += tokens[i].rentValPerSqFtPerDay;\r\n            }\r\n        }\r\n        amount = uint(amount.div(props[_propId].sqFt));\r\n        return amount;\r\n    }\r\n    function Rent(uint _propId, uint _days) external payable {\r\n        uint rentPerSqFtPerDay = calcRentPerSqFtPerDay(_propId);\r\n        uint rent = rentPerSqFtPerDay.mul(_days).mul(props[_propId].sqFt);\r\n        require(msg.value == rent*(10**18), \"Incorrect ether provided\");\r\n        uint mainOwnerShare = rent.mul(mainOwnerSharePercentage).div(100);\r\n        property2MainOwner[_propId].transfer(mainOwnerShare);\r\n        rent = rent - mainOwnerShare;\r\n//        uint uniqueOwners = 0;\r\n//        mapping(address=>uint) addressToSqFT;\r\n        // TODO some more efficient distribution mechanism\r\n        for(uint i=0; i<noOfTokens;i++) {\r\n            if(tokens[i].propId == _propId) {\r\n                address owner = token2Owner[i];\r\n                owner.transfer(rent.div(props[_propId].sqFt));\r\n            }\r\n        }\r\n        props[_propId].rentedBy = msg.sender;\r\n        props[_propId].rentedAtValue = rentPerSqFtPerDay;\r\n        props[_propId].rentedUntil = now + _days.mul(86400);\r\n        emit Rented(_propId, calcRentPerSqFtPerDay(_propId), _days);\r\n    }\r\n}\r\n",
  "sourcePath": "E:\\projects_workspaces\\competitions\\GlobalBlockchainHackathon\\EstateChain\\contracts\\TokenRental.sol",
  "compiler": {
    "name": "solc",
    "version": "0.4.23+commit.124ca40d.Emscripten.clang"
  },
  "schemaVersion": "2.0.0",
  "updatedAt": "2018-12-22T08:28:10.617Z"
}