{
  "contractName": "TokenHelper",
  "abi": [
    {
      "constant": true,
      "inputs": [
        {
          "name": "",
          "type": "uint256"
        }
      ],
      "name": "token2Owner",
      "outputs": [
        {
          "name": "",
          "type": "address"
        }
      ],
      "payable": false,
      "stateMutability": "view",
      "type": "function"
    },
    {
      "constant": true,
      "inputs": [],
      "name": "noOfTokens",
      "outputs": [
        {
          "name": "",
          "type": "uint256"
        }
      ],
      "payable": false,
      "stateMutability": "view",
      "type": "function"
    },
    {
      "constant": true,
      "inputs": [],
      "name": "propertyTaxPercentage",
      "outputs": [
        {
          "name": "",
          "type": "uint256"
        }
      ],
      "payable": false,
      "stateMutability": "view",
      "type": "function"
    },
    {
      "constant": true,
      "inputs": [
        {
          "name": "",
          "type": "uint256"
        }
      ],
      "name": "tokens",
      "outputs": [
        {
          "name": "propId",
          "type": "uint256"
        },
        {
          "name": "boughtAtValuePerSqFt",
          "type": "uint256"
        },
        {
          "name": "sellValPerSqFt",
          "type": "uint256"
        },
        {
          "name": "rentValPerSqFtPerDay",
          "type": "uint256"
        }
      ],
      "payable": false,
      "stateMutability": "view",
      "type": "function"
    },
    {
      "constant": false,
      "inputs": [],
      "name": "renounceOwnership",
      "outputs": [],
      "payable": false,
      "stateMutability": "nonpayable",
      "type": "function"
    },
    {
      "constant": false,
      "inputs": [
        {
          "name": "_name",
          "type": "string"
        },
        {
          "name": "_main_owner",
          "type": "address"
        },
        {
          "name": "_sqFt",
          "type": "uint256"
        },
        {
          "name": "_boughtAtValuePerSqFt",
          "type": "uint256"
        },
        {
          "name": "_sellValPerSqFt",
          "type": "uint256"
        },
        {
          "name": "_rentValPerSqFtPerDay",
          "type": "uint256"
        },
        {
          "name": "image",
          "type": "string"
        }
      ],
      "name": "newProperty",
      "outputs": [],
      "payable": false,
      "stateMutability": "nonpayable",
      "type": "function"
    },
    {
      "constant": true,
      "inputs": [],
      "name": "owner",
      "outputs": [
        {
          "name": "",
          "type": "address"
        }
      ],
      "payable": false,
      "stateMutability": "view",
      "type": "function"
    },
    {
      "constant": true,
      "inputs": [],
      "name": "isOwner",
      "outputs": [
        {
          "name": "",
          "type": "bool"
        }
      ],
      "payable": false,
      "stateMutability": "view",
      "type": "function"
    },
    {
      "constant": true,
      "inputs": [],
      "name": "mainOwnerSharePercentage",
      "outputs": [
        {
          "name": "",
          "type": "uint256"
        }
      ],
      "payable": false,
      "stateMutability": "view",
      "type": "function"
    },
    {
      "constant": true,
      "inputs": [],
      "name": "noOfProperties",
      "outputs": [
        {
          "name": "",
          "type": "uint256"
        }
      ],
      "payable": false,
      "stateMutability": "view",
      "type": "function"
    },
    {
      "constant": true,
      "inputs": [
        {
          "name": "",
          "type": "uint256"
        }
      ],
      "name": "property2MainOwner",
      "outputs": [
        {
          "name": "",
          "type": "address"
        }
      ],
      "payable": false,
      "stateMutability": "view",
      "type": "function"
    },
    {
      "constant": false,
      "inputs": [
        {
          "name": "newOwner",
          "type": "address"
        }
      ],
      "name": "transferOwnership",
      "outputs": [],
      "payable": false,
      "stateMutability": "nonpayable",
      "type": "function"
    },
    {
      "constant": true,
      "inputs": [
        {
          "name": "",
          "type": "uint256"
        }
      ],
      "name": "props",
      "outputs": [
        {
          "name": "name",
          "type": "string"
        },
        {
          "name": "sqFt",
          "type": "uint256"
        },
        {
          "name": "rentedAtValue",
          "type": "uint256"
        },
        {
          "name": "rentedBy",
          "type": "address"
        },
        {
          "name": "rentedUntil",
          "type": "uint256"
        },
        {
          "name": "docsHash",
          "type": "string"
        }
      ],
      "payable": false,
      "stateMutability": "view",
      "type": "function"
    },
    {
      "anonymous": false,
      "inputs": [
        {
          "indexed": false,
          "name": "name",
          "type": "string"
        },
        {
          "indexed": false,
          "name": "mainOwner",
          "type": "address"
        },
        {
          "indexed": false,
          "name": "sqFt",
          "type": "uint256"
        },
        {
          "indexed": false,
          "name": "propId",
          "type": "uint256"
        }
      ],
      "name": "NewProperty",
      "type": "event"
    },
    {
      "anonymous": false,
      "inputs": [
        {
          "indexed": true,
          "name": "previousOwner",
          "type": "address"
        },
        {
          "indexed": true,
          "name": "newOwner",
          "type": "address"
        }
      ],
      "name": "OwnershipTransferred",
      "type": "event"
    },
    {
      "constant": false,
      "inputs": [
        {
          "name": "_percentage",
          "type": "uint256"
        }
      ],
      "name": "setMainOwnerSharePercentage",
      "outputs": [],
      "payable": false,
      "stateMutability": "nonpayable",
      "type": "function"
    },
    {
      "constant": false,
      "inputs": [
        {
          "name": "_percentage",
          "type": "uint256"
        }
      ],
      "name": "setPropertyTaxPercentage",
      "outputs": [],
      "payable": false,
      "stateMutability": "nonpayable",
      "type": "function"
    },
    {
      "constant": false,
      "inputs": [
        {
          "name": "_propId",
          "type": "uint256"
        },
        {
          "name": "_newSqFt",
          "type": "uint256"
        }
      ],
      "name": "increaseArea",
      "outputs": [],
      "payable": false,
      "stateMutability": "nonpayable",
      "type": "function"
    },
    {
      "constant": false,
      "inputs": [
        {
          "name": "_propId",
          "type": "uint256"
        },
        {
          "name": "_newDocsHash",
          "type": "string"
        }
      ],
      "name": "changeDocsHash",
      "outputs": [],
      "payable": false,
      "stateMutability": "nonpayable",
      "type": "function"
    },
    {
      "constant": false,
      "inputs": [
        {
          "name": "_propId",
          "type": "uint256"
        },
        {
          "name": "_newOwner",
          "type": "address"
        }
      ],
      "name": "changeMainOwner",
      "outputs": [],
      "payable": false,
      "stateMutability": "nonpayable",
      "type": "function"
    },
    {
      "constant": false,
      "inputs": [
        {
          "name": "_tokenId",
          "type": "uint256"
        },
        {
          "name": "_newSellValPerSqFt",
          "type": "uint256"
        },
        {
          "name": "_newRentValPerSqFtPerDay",
          "type": "uint256"
        }
      ],
      "name": "setValues",
      "outputs": [],
      "payable": false,
      "stateMutability": "nonpayable",
      "type": "function"
    }
  ],
  "bytecode": "0x608060405260006001556000600255600a6007556005600855336000806101000a81548173ffffffffffffffffffffffffffffffffffffffff021916908373ffffffffffffffffffffffffffffffffffffffff1602179055506000809054906101000a900473ffffffffffffffffffffffffffffffffffffffff1673ffffffffffffffffffffffffffffffffffffffff16600073ffffffffffffffffffffffffffffffffffffffff167f8be0079c531659141344cd1fd0a4f28419497f9722a3daafe3b4186f6b6457e060405160405180910390a36118e7806100e36000396000f300608060405260043610610107576000357c0100000000000000000000000000000000000000000000000000000000900463ffffffff168063111be3161461010c5780631dca7fcf1461014d57806336e9b344146101ba578063374a12bf146101e55780633f433efa146102105780634f64b2be1461023d578063672799e914610293578063715018a6146102d857806375ef62f4146102ef57806383f85d3b146103e65780638da5cb5b146104135780638f32d59b1461046a5780639efb887f14610499578063b89ac03d146104c4578063cd49912814610511578063d9ddc49414610548578063dea6a04b14610573578063f2fde38b146105e0578063fda54c1614610623575b600080fd5b34801561011857600080fd5b5061014b60048036038101908080359060200190929190803590602001909291908035906020019092919050505061077d565b005b34801561015957600080fd5b50610178600480360381019080803590602001909291905050506108ca565b604051808273ffffffffffffffffffffffffffffffffffffffff1673ffffffffffffffffffffffffffffffffffffffff16815260200191505060405180910390f35b3480156101c657600080fd5b506101cf6108fd565b6040518082815260200191505060405180910390f35b3480156101f157600080fd5b506101fa610903565b6040518082815260200191505060405180910390f35b34801561021c57600080fd5b5061023b60048036038101908080359060200190929190505050610909565b005b34801561024957600080fd5b50610268600480360381019080803590602001909291905050506109b5565b6040518085815260200184815260200183815260200182815260200194505050505060405180910390f35b34801561029f57600080fd5b506102d6600480360381019080803590602001909291908035906020019082018035906020019190919293919293905050506109f4565b005b3480156102e457600080fd5b506102ed610b27565b005b3480156102fb57600080fd5b506103e4600480360381019080803590602001908201803590602001908080601f0160208091040260200160405190810160405280939291908181526020018383808284378201915050505050509192919290803573ffffffffffffffffffffffffffffffffffffffff16906020019092919080359060200190929190803590602001909291908035906020019092919080359060200190929190803590602001908201803590602001908080601f0160208091040260200160405190810160405280939291908181526020018383808284378201915050505050509192919290505050610c88565b005b3480156103f257600080fd5b5061041160048036038101908080359060200190929190505050611095565b005b34801561041f57600080fd5b50610428611141565b604051808273ffffffffffffffffffffffffffffffffffffffff1673ffffffffffffffffffffffffffffffffffffffff16815260200191505060405180910390f35b34801561047657600080fd5b5061047f61116a565b604051808215151515815260200191505060405180910390f35b3480156104a557600080fd5b506104ae6111c1565b6040518082815260200191505060405180910390f35b3480156104d057600080fd5b5061050f60048036038101908080359060200190929190803573ffffffffffffffffffffffffffffffffffffffff1690602001909291905050506111c7565b005b34801561051d57600080fd5b50610546600480360381019080803590602001909291908035906020019092919050505061131b565b005b34801561055457600080fd5b5061055d61141a565b6040518082815260200191505060405180910390f35b34801561057f57600080fd5b5061059e60048036038101908080359060200190929190505050611420565b604051808273ffffffffffffffffffffffffffffffffffffffff1673ffffffffffffffffffffffffffffffffffffffff16815260200191505060405180910390f35b3480156105ec57600080fd5b50610621600480360381019080803573ffffffffffffffffffffffffffffffffffffffff169060200190929190505050611453565b005b34801561062f57600080fd5b5061064e60048036038101908080359060200190929190505050611501565b60405180806020018781526020018681526020018573ffffffffffffffffffffffffffffffffffffffff1673ffffffffffffffffffffffffffffffffffffffff16815260200184815260200180602001838103835289818151815260200191508051906020019080838360005b838110156106d65780820151818401526020810190506106bb565b50505050905090810190601f1680156107035780820380516001836020036101000a031916815260200191505b50838103825284818151815260200191508051906020019080838360005b8381101561073c578082015181840152602081019050610721565b50505050905090810190601f1680156107695780820380516001836020036101000a031916815260200191505b509850505050505050505060405180910390f35b826005600082815260200190815260200160002060009054906101000a900473ffffffffffffffffffffffffffffffffffffffff1673ffffffffffffffffffffffffffffffffffffffff163373ffffffffffffffffffffffffffffffffffffffff1614151561087a576040517f08c379a00000000000000000000000000000000000000000000000000000000081526004018080602001828103825260218152602001807f43616e206f6e6c7920626520657865637574656420627920746865206f776e6581526020017f720000000000000000000000000000000000000000000000000000000000000081525060400191505060405180910390fd5b8260038581548110151561088a57fe5b906000526020600020906004020160020181905550816003858154811015156108af57fe5b90600052602060002090600402016003018190555050505050565b60056020528060005260406000206000915054906101000a900473ffffffffffffffffffffffffffffffffffffffff1681565b60015481565b60085481565b61091161116a565b15156109ab576040517f08c379a000000000000000000000000000000000000000000000000000000000815260040180806020018281038252602a8152602001807f43616e206f6e6c792062652065786563757465642062792074686520676f766581526020017f726e696e6720626f64790000000000000000000000000000000000000000000081525060400191505060405180910390fd5b8060088190555050565b6003818154811015156109c457fe5b90600052602060002090600402016000915090508060000154908060010154908060020154908060030154905084565b826006600082815260200190815260200160002060009054906101000a900473ffffffffffffffffffffffffffffffffffffffff1673ffffffffffffffffffffffffffffffffffffffff163373ffffffffffffffffffffffffffffffffffffffff16141515610af1576040517f08c379a00000000000000000000000000000000000000000000000000000000081526004018080602001828103825260268152602001807f43616e206f6e6c7920626520657865637574656420627920746865206d61696e81526020017f206f776e6572000000000000000000000000000000000000000000000000000081525060400191505060405180910390fd5b8282600486815481101515610b0257fe5b90600052602060002090600602016005019190610b20929190611796565b5050505050565b610b2f61116a565b1515610bc9576040517f08c379a000000000000000000000000000000000000000000000000000000000815260040180806020018281038252602a8152602001807f43616e206f6e6c792062652065786563757465642062792074686520676f766581526020017f726e696e6720626f64790000000000000000000000000000000000000000000081525060400191505060405180910390fd5b600073ffffffffffffffffffffffffffffffffffffffff166000809054906101000a900473ffffffffffffffffffffffffffffffffffffffff1673ffffffffffffffffffffffffffffffffffffffff167f8be0079c531659141344cd1fd0a4f28419497f9722a3daafe3b4186f6b6457e060405160405180910390a360008060006101000a81548173ffffffffffffffffffffffffffffffffffffffff021916908373ffffffffffffffffffffffffffffffffffffffff160217905550565b6000806000610c9561116a565b1515610d2f576040517f08c379a000000000000000000000000000000000000000000000000000000000815260040180806020018281038252602a8152602001807f43616e206f6e6c792062652065786563757465642062792074686520676f766581526020017f726e696e6720626f64790000000000000000000000000000000000000000000081525060400191505060405180910390fd5b6001600460c0604051908101604052808d81526020018b815260200160008152602001600073ffffffffffffffffffffffffffffffffffffffff1681526020016000815260200187815250908060018154018082558091505090600182039060005260206000209060060201600090919290919091506000820151816000019080519060200190610dc1929190611816565b50602082015181600101556040820151816002015560608201518160030160006101000a81548173ffffffffffffffffffffffffffffffffffffffff021916908373ffffffffffffffffffffffffffffffffffffffff1602179055506080820151816004015560a0820151816005019080519060200190610e43929190611816565b505050039250600260008154809291906001019190505550886006600085815260200190815260200160002060006101000a81548173ffffffffffffffffffffffffffffffffffffffff021916908373ffffffffffffffffffffffffffffffffffffffff1602179055507f1ef7277f4643471582713ead0a4c4673adc2449aa6000b727480ac8a8e06c84c8a8a8a8660405180806020018573ffffffffffffffffffffffffffffffffffffffff1673ffffffffffffffffffffffffffffffffffffffff168152602001848152602001838152602001828103825286818151815260200191508051906020019080838360005b83811015610f50578082015181840152602081019050610f35565b50505050905090810190601f168015610f7d5780820380516001836020036101000a031916815260200191505b509550505050505060405180910390a1600091505b8782101561108957600160036080604051908101604052808681526020018a81526020018981526020018881525090806001815401808255809150509060018203906000526020600020906004020160009091929091909150600082015181600001556020820151816001015560408201518160020155606082015181600301555050039050600160008154809291906001019190505550886005600083815260200190815260200160002060006101000a81548173ffffffffffffffffffffffffffffffffffffffff021916908373ffffffffffffffffffffffffffffffffffffffff1602179055508180600101925050610f92565b50505050505050505050565b61109d61116a565b1515611137576040517f08c379a000000000000000000000000000000000000000000000000000000000815260040180806020018281038252602a8152602001807f43616e206f6e6c792062652065786563757465642062792074686520676f766581526020017f726e696e6720626f64790000000000000000000000000000000000000000000081525060400191505060405180910390fd5b8060078190555050565b60008060009054906101000a900473ffffffffffffffffffffffffffffffffffffffff16905090565b60008060009054906101000a900473ffffffffffffffffffffffffffffffffffffffff1673ffffffffffffffffffffffffffffffffffffffff163373ffffffffffffffffffffffffffffffffffffffff1614905090565b60075481565b816006600082815260200190815260200160002060009054906101000a900473ffffffffffffffffffffffffffffffffffffffff1673ffffffffffffffffffffffffffffffffffffffff163373ffffffffffffffffffffffffffffffffffffffff161415156112c4576040517f08c379a00000000000000000000000000000000000000000000000000000000081526004018080602001828103825260268152602001807f43616e206f6e6c7920626520657865637574656420627920746865206d61696e81526020017f206f776e6572000000000000000000000000000000000000000000000000000081525060400191505060405180910390fd5b816006600085815260200190815260200160002060006101000a81548173ffffffffffffffffffffffffffffffffffffffff021916908373ffffffffffffffffffffffffffffffffffffffff160217905550505050565b600061132561116a565b15156113bf576040517f08c379a000000000000000000000000000000000000000000000000000000000815260040180806020018281038252602a8152602001807f43616e206f6e6c792062652065786563757465642062792074686520676f766581526020017f726e696e6720626f64790000000000000000000000000000000000000000000081525060400191505060405180910390fd5b6004838154811015156113ce57fe5b906000526020600020906006020160010154905080821115156113f057600080fd5b8160048481548110151561140057fe5b906000526020600020906006020160010181905550505050565b60025481565b60066020528060005260406000206000915054906101000a900473ffffffffffffffffffffffffffffffffffffffff1681565b61145b61116a565b15156114f5576040517f08c379a000000000000000000000000000000000000000000000000000000000815260040180806020018281038252602a8152602001807f43616e206f6e6c792062652065786563757465642062792074686520676f766581526020017f726e696e6720626f64790000000000000000000000000000000000000000000081525060400191505060405180910390fd5b6114fe8161169c565b50565b60048181548110151561151057fe5b9060005260206000209060060201600091509050806000018054600181600116156101000203166002900480601f0160208091040260200160405190810160405280929190818152602001828054600181600116156101000203166002900480156115bc5780601f10611591576101008083540402835291602001916115bc565b820191906000526020600020905b81548152906001019060200180831161159f57829003601f168201915b5050505050908060010154908060020154908060030160009054906101000a900473ffffffffffffffffffffffffffffffffffffffff1690806004015490806005018054600181600116156101000203166002900480601f0160208091040260200160405190810160405280929190818152602001828054600181600116156101000203166002900480156116925780601f1061166757610100808354040283529160200191611692565b820191906000526020600020905b81548152906001019060200180831161167557829003601f168201915b5050505050905086565b600073ffffffffffffffffffffffffffffffffffffffff168173ffffffffffffffffffffffffffffffffffffffff16141515156116d857600080fd5b8073ffffffffffffffffffffffffffffffffffffffff166000809054906101000a900473ffffffffffffffffffffffffffffffffffffffff1673ffffffffffffffffffffffffffffffffffffffff167f8be0079c531659141344cd1fd0a4f28419497f9722a3daafe3b4186f6b6457e060405160405180910390a3806000806101000a81548173ffffffffffffffffffffffffffffffffffffffff021916908373ffffffffffffffffffffffffffffffffffffffff16021790555050565b828054600181600116156101000203166002900490600052602060002090601f016020900481019282601f106117d757803560ff1916838001178555611805565b82800160010185558215611805579182015b828111156118045782358255916020019190600101906117e9565b5b5090506118129190611896565b5090565b828054600181600116156101000203166002900490600052602060002090601f016020900481019282601f1061185757805160ff1916838001178555611885565b82800160010185558215611885579182015b82811115611884578251825591602001919060010190611869565b5b5090506118929190611896565b5090565b6118b891905b808211156118b457600081600090555060010161189c565b5090565b905600a165627a7a72305820295cda275873a4bf60f7967ecc08ed7f7c52fdbf6fd01ff7b6beafd6714caa6c0029",
  "source": "pragma solidity ^0.4.23;\r\n\r\nimport \"./TokenFactory.sol\";\r\nimport \"./SafeMath.sol\";\r\n\r\ncontract TokenHelper is TokenFactory {\r\n    using SafeMath for uint256;\r\n    uint public mainOwnerSharePercentage = 10;\r\n    uint public propertyTaxPercentage = 5;\r\n\r\n    function setMainOwnerSharePercentage(uint _percentage) external onlyOwner {\r\n        mainOwnerSharePercentage = _percentage;\r\n    }\r\n\r\n    function setPropertyTaxPercentage(uint _percentage) external onlyOwner {\r\n        propertyTaxPercentage = _percentage;\r\n    }\r\n\r\n    function increaseArea(uint _propId, uint _newSqFt) external onlyOwner {\r\n        uint oldSqFt = props[_propId].sqFt;\r\n        require(_newSqFt > oldSqFt);\r\n        props[_propId].sqFt = _newSqFt;\r\n//        uint extra = _newSqFt.sub(oldSqFt);\r\n        // todo distribute\r\n    }\r\n\r\n    modifier onlyMainOwnerOf(uint _propertyId) {\r\n        require(msg.sender == property2MainOwner[_propertyId], \"Can only be executed by the main owner\");\r\n        _;\r\n    }\r\n    //    function changeName(uint _propId, string _newName) external onlyMainOwnerOf(_propId) {\r\n    //        props[_propId].name = _newName;\r\n    //    }\r\n    function changeDocsHash(uint _propId, string _newDocsHash) external onlyMainOwnerOf(_propId) {\r\n        props[_propId].docsHash = _newDocsHash;\r\n    }\r\n    function changeMainOwner(uint _propId, address _newOwner) external onlyMainOwnerOf(_propId) {\r\n        property2MainOwner[_propId] = _newOwner;\r\n    }\r\n\r\n    modifier onlyOwnerOf(uint _tokenId) {\r\n        require(msg.sender == token2Owner[_tokenId], \"Can only be executed by the owner\");\r\n        _;\r\n    }\r\n    function setValues(uint _tokenId, uint _newSellValPerSqFt, uint _newRentValPerSqFtPerDay) external onlyOwnerOf(_tokenId) {\r\n        tokens[_tokenId].sellValPerSqFt = _newSellValPerSqFt;\r\n        tokens[_tokenId].rentValPerSqFtPerDay = _newRentValPerSqFtPerDay;\r\n    }\r\n}\r\n",
  "sourcePath": "E:\\projects_workspaces\\competitions\\GlobalBlockchainHackathon\\EstateChain\\contracts\\TokenHelper.sol",
  "compiler": {
    "name": "solc",
    "version": "0.4.23+commit.124ca40d.Emscripten.clang"
  },
  "schemaVersion": "2.0.0",
  "updatedAt": "2018-12-22T08:28:10.613Z"
}