{
  "contractName": "TokenRental",
  "abi": [
    {
      "constant": false,
      "inputs": [
        {
          "name": "_name",
          "type": "string"
        },
        {
          "name": "_main_owner",
          "type": "address"
        },
        {
          "name": "_sqFt",
          "type": "uint256"
        },
        {
          "name": "_boughtAtValuePerSqFt",
          "type": "uint256"
        },
        {
          "name": "_sellValPerSqFt",
          "type": "uint256"
        },
        {
          "name": "_rentValPerSqFtPerDay",
          "type": "uint256"
        }
      ],
      "name": "newProperty",
      "outputs": [],
      "payable": false,
      "stateMutability": "nonpayable",
      "type": "function"
    },
    {
      "constant": true,
      "inputs": [
        {
          "name": "",
          "type": "uint256"
        }
      ],
      "name": "token2Owner",
      "outputs": [
        {
          "name": "",
          "type": "address"
        }
      ],
      "payable": false,
      "stateMutability": "view",
      "type": "function"
    },
    {
      "constant": true,
      "inputs": [],
      "name": "propertyTaxPercentage",
      "outputs": [
        {
          "name": "",
          "type": "uint256"
        }
      ],
      "payable": false,
      "stateMutability": "view",
      "type": "function"
    },
    {
      "constant": false,
      "inputs": [
        {
          "name": "_percentage",
          "type": "uint256"
        }
      ],
      "name": "setPropertyTaxPercentage",
      "outputs": [],
      "payable": false,
      "stateMutability": "nonpayable",
      "type": "function"
    },
    {
      "constant": true,
      "inputs": [
        {
          "name": "",
          "type": "uint256"
        }
      ],
      "name": "tokens",
      "outputs": [
        {
          "name": "propId",
          "type": "uint256"
        },
        {
          "name": "boughtAtValuePerSqFt",
          "type": "uint256"
        },
        {
          "name": "sellValPerSqFt",
          "type": "uint256"
        },
        {
          "name": "rentValPerSqFtPerDay",
          "type": "uint256"
        }
      ],
      "payable": false,
      "stateMutability": "view",
      "type": "function"
    },
    {
      "constant": false,
      "inputs": [
        {
          "name": "_tokenId",
          "type": "uint256"
        },
        {
          "name": "_newRentValPerSqFtPerDay",
          "type": "uint256"
        }
      ],
      "name": "setRentValPerSqFtPerDay",
      "outputs": [],
      "payable": false,
      "stateMutability": "nonpayable",
      "type": "function"
    },
    {
      "constant": false,
      "inputs": [
        {
          "name": "_propId",
          "type": "uint256"
        },
        {
          "name": "_newDocsHash",
          "type": "string"
        }
      ],
      "name": "changeDocsHash",
      "outputs": [],
      "payable": false,
      "stateMutability": "nonpayable",
      "type": "function"
    },
    {
      "constant": false,
      "inputs": [],
      "name": "renounceOwnership",
      "outputs": [],
      "payable": false,
      "stateMutability": "nonpayable",
      "type": "function"
    },
    {
      "constant": false,
      "inputs": [
        {
          "name": "_percentage",
          "type": "uint256"
        }
      ],
      "name": "setMainOwnerSharePercentage",
      "outputs": [],
      "payable": false,
      "stateMutability": "nonpayable",
      "type": "function"
    },
    {
      "constant": true,
      "inputs": [],
      "name": "owner",
      "outputs": [
        {
          "name": "",
          "type": "address"
        }
      ],
      "payable": false,
      "stateMutability": "view",
      "type": "function"
    },
    {
      "constant": true,
      "inputs": [],
      "name": "isOwner",
      "outputs": [
        {
          "name": "",
          "type": "bool"
        }
      ],
      "payable": false,
      "stateMutability": "view",
      "type": "function"
    },
    {
      "constant": false,
      "inputs": [
        {
          "name": "_tokenId",
          "type": "uint256"
        },
        {
          "name": "_newSellValPerSqFt",
          "type": "uint256"
        }
      ],
      "name": "setSellValPerSqFt",
      "outputs": [],
      "payable": false,
      "stateMutability": "nonpayable",
      "type": "function"
    },
    {
      "constant": true,
      "inputs": [],
      "name": "mainOwnerSharePercentage",
      "outputs": [
        {
          "name": "",
          "type": "uint256"
        }
      ],
      "payable": false,
      "stateMutability": "view",
      "type": "function"
    },
    {
      "constant": false,
      "inputs": [
        {
          "name": "_propId",
          "type": "uint256"
        },
        {
          "name": "_newSqFt",
          "type": "uint256"
        }
      ],
      "name": "increaseArea",
      "outputs": [],
      "payable": false,
      "stateMutability": "nonpayable",
      "type": "function"
    },
    {
      "constant": true,
      "inputs": [
        {
          "name": "",
          "type": "uint256"
        }
      ],
      "name": "property2MainOwner",
      "outputs": [
        {
          "name": "",
          "type": "address"
        }
      ],
      "payable": false,
      "stateMutability": "view",
      "type": "function"
    },
    {
      "constant": false,
      "inputs": [
        {
          "name": "newOwner",
          "type": "address"
        }
      ],
      "name": "transferOwnership",
      "outputs": [],
      "payable": false,
      "stateMutability": "nonpayable",
      "type": "function"
    },
    {
      "constant": true,
      "inputs": [
        {
          "name": "",
          "type": "uint256"
        }
      ],
      "name": "props",
      "outputs": [
        {
          "name": "name",
          "type": "string"
        },
        {
          "name": "sqFt",
          "type": "uint256"
        },
        {
          "name": "rentedAtValue",
          "type": "uint256"
        },
        {
          "name": "rentedBy",
          "type": "address"
        },
        {
          "name": "rentedUntil",
          "type": "uint256"
        },
        {
          "name": "docsHash",
          "type": "string"
        }
      ],
      "payable": false,
      "stateMutability": "view",
      "type": "function"
    },
    {
      "anonymous": false,
      "inputs": [
        {
          "indexed": false,
          "name": "propId",
          "type": "uint256"
        },
        {
          "indexed": false,
          "name": "rentVal",
          "type": "uint256"
        },
        {
          "indexed": false,
          "name": "_days",
          "type": "uint256"
        }
      ],
      "name": "Rented",
      "type": "event"
    },
    {
      "anonymous": false,
      "inputs": [
        {
          "indexed": false,
          "name": "name",
          "type": "string"
        },
        {
          "indexed": false,
          "name": "mainOwner",
          "type": "address"
        },
        {
          "indexed": false,
          "name": "sqFt",
          "type": "uint256"
        },
        {
          "indexed": false,
          "name": "propId",
          "type": "uint256"
        }
      ],
      "name": "NewProperty",
      "type": "event"
    },
    {
      "anonymous": false,
      "inputs": [
        {
          "indexed": true,
          "name": "previousOwner",
          "type": "address"
        },
        {
          "indexed": true,
          "name": "newOwner",
          "type": "address"
        }
      ],
      "name": "OwnershipTransferred",
      "type": "event"
    },
    {
      "constant": true,
      "inputs": [
        {
          "name": "_propId",
          "type": "uint256"
        }
      ],
      "name": "calcRentPerSqFtPerDay",
      "outputs": [
        {
          "name": "",
          "type": "uint256"
        }
      ],
      "payable": false,
      "stateMutability": "view",
      "type": "function"
    },
    {
      "constant": false,
      "inputs": [
        {
          "name": "_propId",
          "type": "uint256"
        },
        {
          "name": "_days",
          "type": "uint256"
        }
      ],
      "name": "Rent",
      "outputs": [],
      "payable": true,
      "stateMutability": "payable",
      "type": "function"
    }
  ],
  "bytecode": "0x6080604052600a6005556005600655336000806101000a81548173ffffffffffffffffffffffffffffffffffffffff021916908373ffffffffffffffffffffffffffffffffffffffff1602179055506000809054906101000a900473ffffffffffffffffffffffffffffffffffffffff1673ffffffffffffffffffffffffffffffffffffffff16600073ffffffffffffffffffffffffffffffffffffffff167f8be0079c531659141344cd1fd0a4f28419497f9722a3daafe3b4186f6b6457e060405160405180910390a36117ab806100d96000396000f300608060405260043610610107576000357c0100000000000000000000000000000000000000000000000000000000900463ffffffff1680630175bc261461010c5780631dca7fcf146101bd578063374a12bf1461022a5780633c0d2db4146102555780633f433efa146102965780634f64b2be146102c3578063594a452414610319578063659bdfb514610350578063672799e91461037a578063715018a6146103bf57806383f85d3b146103d65780638da5cb5b146104035780638f32d59b1461045a5780639c130474146104895780639efb887f146104c0578063cd499128146104eb578063dea6a04b14610522578063f2fde38b1461058f578063fda54c16146105d2575b600080fd5b34801561011857600080fd5b506101bb600480360381019080803590602001908201803590602001908080601f0160208091040260200160405190810160405280939291908181526020018383808284378201915050505050509192919290803573ffffffffffffffffffffffffffffffffffffffff1690602001909291908035906020019092919080359060200190929190803590602001909291908035906020019092919050505061072c565b005b3480156101c957600080fd5b506101e860048036038101908080359060200190929190505050610a94565b604051808273ffffffffffffffffffffffffffffffffffffffff1673ffffffffffffffffffffffffffffffffffffffff16815260200191505060405180910390f35b34801561023657600080fd5b5061023f610ac7565b6040518082815260200191505060405180910390f35b34801561026157600080fd5b5061028060048036038101908080359060200190929190505050610acd565b6040518082815260200191505060405180910390f35b3480156102a257600080fd5b506102c160048036038101908080359060200190929190505050610b81565b005b3480156102cf57600080fd5b506102ee60048036038101908080359060200190929190505050610b9e565b6040518085815260200184815260200183815260200182815260200194505050505060405180910390f35b34801561032557600080fd5b5061034e6004803603810190808035906020019092919080359060200190929190505050610bdd565b005b6103786004803603810190808035906020019092919080359060200190929190505050610c75565b005b34801561038657600080fd5b506103bd60048036038101908080359060200190929190803590602001908201803590602001919091929391929390505050610f95565b005b3480156103cb57600080fd5b506103d4611039565b005b3480156103e257600080fd5b506104016004803603810190808035906020019092919050505061110b565b005b34801561040f57600080fd5b50610418611128565b604051808273ffffffffffffffffffffffffffffffffffffffff1673ffffffffffffffffffffffffffffffffffffffff16815260200191505060405180910390f35b34801561046657600080fd5b5061046f611151565b604051808215151515815260200191505060405180910390f35b34801561049557600080fd5b506104be60048036038101908080359060200190929190803590602001909291905050506111a8565b005b3480156104cc57600080fd5b506104d5611240565b6040518082815260200191505060405180910390f35b3480156104f757600080fd5b506105206004803603810190808035906020019092919080359060200190929190505050611246565b005b34801561052e57600080fd5b5061054d600480360381019080803590602001909291905050506112ea565b604051808273ffffffffffffffffffffffffffffffffffffffff1673ffffffffffffffffffffffffffffffffffffffff16815260200191505060405180910390f35b34801561059b57600080fd5b506105d0600480360381019080803573ffffffffffffffffffffffffffffffffffffffff16906020019092919050505061131d565b005b3480156105de57600080fd5b506105fd6004803603810190808035906020019092919050505061133c565b60405180806020018781526020018681526020018573ffffffffffffffffffffffffffffffffffffffff1673ffffffffffffffffffffffffffffffffffffffff16815260200184815260200180602001838103835289818151815260200191508051906020019080838360005b8381101561068557808201518184015260208101905061066a565b50505050905090810190601f1680156106b25780820380516001836020036101000a031916815260200191505b50838103825284818151815260200191508051906020019080838360005b838110156106eb5780820151818401526020810190506106d0565b50505050905090810190601f1680156107185780820380516001836020036101000a031916815260200191505b509850505050505050505060405180910390f35b6000806000610739611151565b151561074457600080fd5b6001600260c0604051908101604052808c81526020018a815260200160008152602001600073ffffffffffffffffffffffffffffffffffffffff1681526020016000815260200160206040519081016040528060008152508152509080600181540180825580915050906001820390600052602060002090600602016000909192909190915060008201518160000190805190602001906107e692919061165a565b50602082015181600101556040820151816002015560608201518160030160006101000a81548173ffffffffffffffffffffffffffffffffffffffff021916908373ffffffffffffffffffffffffffffffffffffffff1602179055506080820151816004015560a082015181600501908051906020019061086892919061165a565b505050039250876004600085815260200190815260200160002060006101000a81548173ffffffffffffffffffffffffffffffffffffffff021916908373ffffffffffffffffffffffffffffffffffffffff1602179055507f1ef7277f4643471582713ead0a4c4673adc2449aa6000b727480ac8a8e06c84c8989898660405180806020018573ffffffffffffffffffffffffffffffffffffffff1673ffffffffffffffffffffffffffffffffffffffff168152602001848152602001838152602001828103825286818151815260200191508051906020019080838360005b83811015610963578082015181840152602081019050610948565b50505050905090810190601f1680156109905780820380516001836020036101000a031916815260200191505b509550505050505060405180910390a1600091505b86821015610a89576001806080604051908101604052808681526020018981526020018881526020018781525090806001815401808255809150509060018203906000526020600020906004020160009091929091909150600082015181600001556020820151816001015560408201518160020155606082015181600301555050039050876003600083815260200190815260200160002060006101000a81548173ffffffffffffffffffffffffffffffffffffffff021916908373ffffffffffffffffffffffffffffffffffffffff16021790555081806001019250506109a5565b505050505050505050565b60036020528060005260406000206000915054906101000a900473ffffffffffffffffffffffffffffffffffffffff1681565b60065481565b6000806000809150600090505b600180549050811015610b425783600182815481101515610af757fe5b9060005260206000209060040201600001541415610b3557600181815481101515610b1e57fe5b906000526020600020906004020160030154820191505b8080600101915050610ada565b610b75600285815481101515610b5457fe5b906000526020600020906006020160010154836114d790919063ffffffff16565b91508192505050919050565b610b89611151565b1515610b9457600080fd5b8060068190555050565b600181815481101515610bad57fe5b90600052602060002090600402016000915090508060000154908060010154908060020154908060030154905084565b816003600082815260200190815260200160002060009054906101000a900473ffffffffffffffffffffffffffffffffffffffff1673ffffffffffffffffffffffffffffffffffffffff163373ffffffffffffffffffffffffffffffffffffffff16141515610c4b57600080fd5b81600184815481101515610c5b57fe5b906000526020600020906004020160030181905550505050565b6000806000806000610c8687610acd565b9450610ccd600288815481101515610c9a57fe5b906000526020600020906006020160010154610cbf888861150190919063ffffffff16565b61150190919063ffffffff16565b93508334141515610cdd57600080fd5b610d056064610cf76005548761150190919063ffffffff16565b6114d790919063ffffffff16565b92506004600088815260200190815260200160002060009054906101000a900473ffffffffffffffffffffffffffffffffffffffff1673ffffffffffffffffffffffffffffffffffffffff166108fc849081150290604051600060405180830381858888f19350505050158015610d80573d6000803e3d6000fd5b508284039350600091505b600180549050821015610e7d5786600183815481101515610da857fe5b9060005260206000209060040201600001541415610e70576003600083815260200190815260200160002060009054906101000a900473ffffffffffffffffffffffffffffffffffffffff1690508073ffffffffffffffffffffffffffffffffffffffff166108fc610e4360028a815481101515610e2257fe5b906000526020600020906006020160010154876114d790919063ffffffff16565b9081150290604051600060405180830381858888f19350505050158015610e6e573d6000803e3d6000fd5b505b8180600101925050610d8b565b33600288815481101515610e8d57fe5b906000526020600020906006020160030160006101000a81548173ffffffffffffffffffffffffffffffffffffffff021916908373ffffffffffffffffffffffffffffffffffffffff16021790555084600288815481101515610eec57fe5b906000526020600020906006020160020181905550610f17620151808761150190919063ffffffff16565b4201600288815481101515610f2857fe5b9060005260206000209060060201600401819055507f4106602d6aaa44a3e570bbeca832bb0e3d70c20a1ecca1658b166e1982cce73287610f6889610acd565b8860405180848152602001838152602001828152602001935050505060405180910390a150505050505050565b826004600082815260200190815260200160002060009054906101000a900473ffffffffffffffffffffffffffffffffffffffff1673ffffffffffffffffffffffffffffffffffffffff163373ffffffffffffffffffffffffffffffffffffffff1614151561100357600080fd5b828260028681548110151561101457fe5b906000526020600020906006020160050191906110329291906116da565b5050505050565b611041611151565b151561104c57600080fd5b600073ffffffffffffffffffffffffffffffffffffffff166000809054906101000a900473ffffffffffffffffffffffffffffffffffffffff1673ffffffffffffffffffffffffffffffffffffffff167f8be0079c531659141344cd1fd0a4f28419497f9722a3daafe3b4186f6b6457e060405160405180910390a360008060006101000a81548173ffffffffffffffffffffffffffffffffffffffff021916908373ffffffffffffffffffffffffffffffffffffffff160217905550565b611113611151565b151561111e57600080fd5b8060058190555050565b60008060009054906101000a900473ffffffffffffffffffffffffffffffffffffffff16905090565b60008060009054906101000a900473ffffffffffffffffffffffffffffffffffffffff1673ffffffffffffffffffffffffffffffffffffffff163373ffffffffffffffffffffffffffffffffffffffff1614905090565b816003600082815260200190815260200160002060009054906101000a900473ffffffffffffffffffffffffffffffffffffffff1673ffffffffffffffffffffffffffffffffffffffff163373ffffffffffffffffffffffffffffffffffffffff1614151561121657600080fd5b8160018481548110151561122657fe5b906000526020600020906004020160020181905550505050565b60055481565b6000806000611253611151565b151561125e57600080fd5b60028581548110151561126d57fe5b9060005260206000209060060201600101549250828411151561128f57600080fd5b8360028681548110151561129f57fe5b9060005260206000209060060201600101819055506112c7838561153f90919063ffffffff16565b9150600090505b818110156112e35780806001019150506112ce565b5050505050565b60046020528060005260406000206000915054906101000a900473ffffffffffffffffffffffffffffffffffffffff1681565b611325611151565b151561133057600080fd5b61133981611560565b50565b60028181548110151561134b57fe5b9060005260206000209060060201600091509050806000018054600181600116156101000203166002900480601f0160208091040260200160405190810160405280929190818152602001828054600181600116156101000203166002900480156113f75780601f106113cc576101008083540402835291602001916113f7565b820191906000526020600020905b8154815290600101906020018083116113da57829003601f168201915b5050505050908060010154908060020154908060030160009054906101000a900473ffffffffffffffffffffffffffffffffffffffff1690806004015490806005018054600181600116156101000203166002900480601f0160208091040260200160405190810160405280929190818152602001828054600181600116156101000203166002900480156114cd5780601f106114a2576101008083540402835291602001916114cd565b820191906000526020600020905b8154815290600101906020018083116114b057829003601f168201915b5050505050905086565b6000806000831115156114e957600080fd5b82848115156114f457fe5b0490508091505092915050565b60008060008414156115165760009150611538565b828402905082848281151561152757fe5b0414151561153457600080fd5b8091505b5092915050565b60008083831115151561155157600080fd5b82840390508091505092915050565b600073ffffffffffffffffffffffffffffffffffffffff168173ffffffffffffffffffffffffffffffffffffffff161415151561159c57600080fd5b8073ffffffffffffffffffffffffffffffffffffffff166000809054906101000a900473ffffffffffffffffffffffffffffffffffffffff1673ffffffffffffffffffffffffffffffffffffffff167f8be0079c531659141344cd1fd0a4f28419497f9722a3daafe3b4186f6b6457e060405160405180910390a3806000806101000a81548173ffffffffffffffffffffffffffffffffffffffff021916908373ffffffffffffffffffffffffffffffffffffffff16021790555050565b828054600181600116156101000203166002900490600052602060002090601f016020900481019282601f1061169b57805160ff19168380011785556116c9565b828001600101855582156116c9579182015b828111156116c85782518255916020019190600101906116ad565b5b5090506116d6919061175a565b5090565b828054600181600116156101000203166002900490600052602060002090601f016020900481019282601f1061171b57803560ff1916838001178555611749565b82800160010185558215611749579182015b8281111561174857823582559160200191906001019061172d565b5b509050611756919061175a565b5090565b61177c91905b80821115611778576000816000905550600101611760565b5090565b905600a165627a7a72305820ad638f52a7e9f6c7d0e4ce1e7f2b01ea89cfa005311e3b092ef8a7082f29a31b0029",
  "source": "pragma solidity ^0.4.23;\r\n\r\nimport \"./SafeMath.sol\";\r\nimport \"./TokenHelper.sol\";\r\n\r\ncontract TokenRental is TokenHelper {\r\n    using SafeMath for uint256;\r\n\r\n    event Rented(uint propId, uint rentVal, uint _days);\r\n\r\n    function calcRentPerSqFtPerDay(uint _propId) public view returns(uint) {\r\n        uint amount = 0;\r\n        for (uint i = 0; i < tokens.length; i++)\r\n        {\r\n            if (tokens[i].propId == _propId)\r\n            {\r\n                amount += tokens[i].rentValPerSqFtPerDay;\r\n            }\r\n        }\r\n        amount = uint(amount.div(props[_propId].sqFt));\r\n        return amount;\r\n    }\r\n    function Rent(uint _propId, uint _days) external payable {\r\n        uint rentPerSqFtPerDay = calcRentPerSqFtPerDay(_propId);\r\n        uint rent = rentPerSqFtPerDay.mul(_days).mul(props[_propId].sqFt);\r\n        require(msg.value == rent);\r\n        uint mainOwnerShare = rent.mul(mainOwnerSharePercentage).div(100);\r\n        property2MainOwner[_propId].transfer(mainOwnerShare);\r\n        rent = rent - mainOwnerShare;\r\n//        uint uniqueOwners = 0;\r\n//        mapping(address=>uint) addressToSqFT;\r\n        // TODO some more efficient distribution mechanism\r\n        for(uint i=0; i<tokens.length;i++) {\r\n            if(tokens[i].propId == _propId) {\r\n                address owner = token2Owner[i];\r\n                owner.transfer(rent.div(props[_propId].sqFt));\r\n            }\r\n        }\r\n        props[_propId].rentedBy = msg.sender;\r\n        props[_propId].rentedAtValue = rentPerSqFtPerDay;\r\n        props[_propId].rentedUntil = now + _days.mul(86400);\r\n        emit Rented(_propId, calcRentPerSqFtPerDay(_propId), _days);\r\n    }\r\n}\r\n",
  "sourcePath": "E:\\projects_workspaces\\competitions\\GlobalBlockchainHackathon\\EstateChain\\contracts\\TokenRental.sol",
  "compiler": {
    "name": "solc",
    "version": "0.4.23+commit.124ca40d.Emscripten.clang"
  },
  "schemaVersion": "2.0.0",
  "updatedAt": "2018-12-21T16:43:08.154Z"
}