{
  "contractName": "TokenFactory",
  "abi": [
    {
      "constant": true,
      "inputs": [
        {
          "name": "",
          "type": "uint256"
        }
      ],
      "name": "token2Owner",
      "outputs": [
        {
          "name": "",
          "type": "address"
        }
      ],
      "payable": false,
      "stateMutability": "view",
      "type": "function"
    },
    {
      "constant": true,
      "inputs": [],
      "name": "noOfTokens",
      "outputs": [
        {
          "name": "",
          "type": "uint256"
        }
      ],
      "payable": false,
      "stateMutability": "view",
      "type": "function"
    },
    {
      "constant": true,
      "inputs": [
        {
          "name": "",
          "type": "uint256"
        }
      ],
      "name": "tokens",
      "outputs": [
        {
          "name": "propId",
          "type": "uint256"
        },
        {
          "name": "boughtAtValuePerSqFt",
          "type": "uint256"
        },
        {
          "name": "sellValPerSqFt",
          "type": "uint256"
        },
        {
          "name": "rentValPerSqFtPerDay",
          "type": "uint256"
        }
      ],
      "payable": false,
      "stateMutability": "view",
      "type": "function"
    },
    {
      "constant": false,
      "inputs": [],
      "name": "renounceOwnership",
      "outputs": [],
      "payable": false,
      "stateMutability": "nonpayable",
      "type": "function"
    },
    {
      "constant": true,
      "inputs": [],
      "name": "owner",
      "outputs": [
        {
          "name": "",
          "type": "address"
        }
      ],
      "payable": false,
      "stateMutability": "view",
      "type": "function"
    },
    {
      "constant": true,
      "inputs": [],
      "name": "isOwner",
      "outputs": [
        {
          "name": "",
          "type": "bool"
        }
      ],
      "payable": false,
      "stateMutability": "view",
      "type": "function"
    },
    {
      "constant": true,
      "inputs": [],
      "name": "noOfProperties",
      "outputs": [
        {
          "name": "",
          "type": "uint256"
        }
      ],
      "payable": false,
      "stateMutability": "view",
      "type": "function"
    },
    {
      "constant": true,
      "inputs": [
        {
          "name": "",
          "type": "uint256"
        }
      ],
      "name": "property2MainOwner",
      "outputs": [
        {
          "name": "",
          "type": "address"
        }
      ],
      "payable": false,
      "stateMutability": "view",
      "type": "function"
    },
    {
      "constant": false,
      "inputs": [
        {
          "name": "newOwner",
          "type": "address"
        }
      ],
      "name": "transferOwnership",
      "outputs": [],
      "payable": false,
      "stateMutability": "nonpayable",
      "type": "function"
    },
    {
      "constant": true,
      "inputs": [
        {
          "name": "",
          "type": "uint256"
        }
      ],
      "name": "props",
      "outputs": [
        {
          "name": "name",
          "type": "string"
        },
        {
          "name": "sqFt",
          "type": "uint256"
        },
        {
          "name": "rentedAtValue",
          "type": "uint256"
        },
        {
          "name": "rentedBy",
          "type": "address"
        },
        {
          "name": "rentedUntil",
          "type": "uint256"
        },
        {
          "name": "docsHash",
          "type": "string"
        }
      ],
      "payable": false,
      "stateMutability": "view",
      "type": "function"
    },
    {
      "anonymous": false,
      "inputs": [
        {
          "indexed": false,
          "name": "name",
          "type": "string"
        },
        {
          "indexed": false,
          "name": "mainOwner",
          "type": "address"
        },
        {
          "indexed": false,
          "name": "sqFt",
          "type": "uint256"
        },
        {
          "indexed": false,
          "name": "propId",
          "type": "uint256"
        }
      ],
      "name": "NewProperty",
      "type": "event"
    },
    {
      "anonymous": false,
      "inputs": [
        {
          "indexed": true,
          "name": "previousOwner",
          "type": "address"
        },
        {
          "indexed": true,
          "name": "newOwner",
          "type": "address"
        }
      ],
      "name": "OwnershipTransferred",
      "type": "event"
    },
    {
      "constant": false,
      "inputs": [
        {
          "name": "_name",
          "type": "string"
        },
        {
          "name": "_main_owner",
          "type": "address"
        },
        {
          "name": "_sqFt",
          "type": "uint256"
        },
        {
          "name": "_boughtAtValuePerSqFt",
          "type": "uint256"
        },
        {
          "name": "_sellValPerSqFt",
          "type": "uint256"
        },
        {
          "name": "_rentValPerSqFtPerDay",
          "type": "uint256"
        },
        {
          "name": "image",
          "type": "string"
        }
      ],
      "name": "newProperty",
      "outputs": [],
      "payable": false,
      "stateMutability": "nonpayable",
      "type": "function"
    }
  ],
  "bytecode": "0x608060405260006001556000600255336000806101000a81548173ffffffffffffffffffffffffffffffffffffffff021916908373ffffffffffffffffffffffffffffffffffffffff1602179055506000809054906101000a900473ffffffffffffffffffffffffffffffffffffffff1673ffffffffffffffffffffffffffffffffffffffff16600073ffffffffffffffffffffffffffffffffffffffff167f8be0079c531659141344cd1fd0a4f28419497f9722a3daafe3b4186f6b6457e060405160405180910390a361101e806100d96000396000f3006080604052600436106100af576000357c0100000000000000000000000000000000000000000000000000000000900463ffffffff1680631dca7fcf146100b457806336e9b344146101215780634f64b2be1461014c578063715018a6146101a257806375ef62f4146101b95780638da5cb5b146102b05780638f32d59b14610307578063d9ddc49414610336578063dea6a04b14610361578063f2fde38b146103ce578063fda54c1614610411575b600080fd5b3480156100c057600080fd5b506100df6004803603810190808035906020019092919050505061056b565b604051808273ffffffffffffffffffffffffffffffffffffffff1673ffffffffffffffffffffffffffffffffffffffff16815260200191505060405180910390f35b34801561012d57600080fd5b5061013661059e565b6040518082815260200191505060405180910390f35b34801561015857600080fd5b50610177600480360381019080803590602001909291905050506105a4565b6040518085815260200184815260200183815260200182815260200194505050505060405180910390f35b3480156101ae57600080fd5b506101b76105e3565b005b3480156101c557600080fd5b506102ae600480360381019080803590602001908201803590602001908080601f0160208091040260200160405190810160405280939291908181526020018383808284378201915050505050509192919290803573ffffffffffffffffffffffffffffffffffffffff16906020019092919080359060200190929190803590602001909291908035906020019092919080359060200190929190803590602001908201803590602001908080601f0160208091040260200160405190810160405280939291908181526020018383808284378201915050505050509192919290505050610744565b005b3480156102bc57600080fd5b506102c5610b51565b604051808273ffffffffffffffffffffffffffffffffffffffff1673ffffffffffffffffffffffffffffffffffffffff16815260200191505060405180910390f35b34801561031357600080fd5b5061031c610b7a565b604051808215151515815260200191505060405180910390f35b34801561034257600080fd5b5061034b610bd1565b6040518082815260200191505060405180910390f35b34801561036d57600080fd5b5061038c60048036038101908080359060200190929190505050610bd7565b604051808273ffffffffffffffffffffffffffffffffffffffff1673ffffffffffffffffffffffffffffffffffffffff16815260200191505060405180910390f35b3480156103da57600080fd5b5061040f600480360381019080803573ffffffffffffffffffffffffffffffffffffffff169060200190929190505050610c0a565b005b34801561041d57600080fd5b5061043c60048036038101908080359060200190929190505050610cb8565b60405180806020018781526020018681526020018573ffffffffffffffffffffffffffffffffffffffff1673ffffffffffffffffffffffffffffffffffffffff16815260200184815260200180602001838103835289818151815260200191508051906020019080838360005b838110156104c45780820151818401526020810190506104a9565b50505050905090810190601f1680156104f15780820380516001836020036101000a031916815260200191505b50838103825284818151815260200191508051906020019080838360005b8381101561052a57808201518184015260208101905061050f565b50505050905090810190601f1680156105575780820380516001836020036101000a031916815260200191505b509850505050505050505060405180910390f35b60056020528060005260406000206000915054906101000a900473ffffffffffffffffffffffffffffffffffffffff1681565b60015481565b6003818154811015156105b357fe5b90600052602060002090600402016000915090508060000154908060010154908060020154908060030154905084565b6105eb610b7a565b1515610685576040517f08c379a000000000000000000000000000000000000000000000000000000000815260040180806020018281038252602a8152602001807f43616e206f6e6c792062652065786563757465642062792074686520676f766581526020017f726e696e6720626f64790000000000000000000000000000000000000000000081525060400191505060405180910390fd5b600073ffffffffffffffffffffffffffffffffffffffff166000809054906101000a900473ffffffffffffffffffffffffffffffffffffffff1673ffffffffffffffffffffffffffffffffffffffff167f8be0079c531659141344cd1fd0a4f28419497f9722a3daafe3b4186f6b6457e060405160405180910390a360008060006101000a81548173ffffffffffffffffffffffffffffffffffffffff021916908373ffffffffffffffffffffffffffffffffffffffff160217905550565b6000806000610751610b7a565b15156107eb576040517f08c379a000000000000000000000000000000000000000000000000000000000815260040180806020018281038252602a8152602001807f43616e206f6e6c792062652065786563757465642062792074686520676f766581526020017f726e696e6720626f64790000000000000000000000000000000000000000000081525060400191505060405180910390fd5b6001600460c0604051908101604052808d81526020018b815260200160008152602001600073ffffffffffffffffffffffffffffffffffffffff168152602001600081526020018781525090806001815401808255809150509060018203906000526020600020906006020160009091929091909150600082015181600001908051906020019061087d929190610f4d565b50602082015181600101556040820151816002015560608201518160030160006101000a81548173ffffffffffffffffffffffffffffffffffffffff021916908373ffffffffffffffffffffffffffffffffffffffff1602179055506080820151816004015560a08201518160050190805190602001906108ff929190610f4d565b505050039250600260008154809291906001019190505550886006600085815260200190815260200160002060006101000a81548173ffffffffffffffffffffffffffffffffffffffff021916908373ffffffffffffffffffffffffffffffffffffffff1602179055507f1ef7277f4643471582713ead0a4c4673adc2449aa6000b727480ac8a8e06c84c8a8a8a8660405180806020018573ffffffffffffffffffffffffffffffffffffffff1673ffffffffffffffffffffffffffffffffffffffff168152602001848152602001838152602001828103825286818151815260200191508051906020019080838360005b83811015610a0c5780820151818401526020810190506109f1565b50505050905090810190601f168015610a395780820380516001836020036101000a031916815260200191505b509550505050505060405180910390a1600091505b87821015610b4557600160036080604051908101604052808681526020018a81526020018981526020018881525090806001815401808255809150509060018203906000526020600020906004020160009091929091909150600082015181600001556020820151816001015560408201518160020155606082015181600301555050039050600160008154809291906001019190505550886005600083815260200190815260200160002060006101000a81548173ffffffffffffffffffffffffffffffffffffffff021916908373ffffffffffffffffffffffffffffffffffffffff1602179055508180600101925050610a4e565b50505050505050505050565b60008060009054906101000a900473ffffffffffffffffffffffffffffffffffffffff16905090565b60008060009054906101000a900473ffffffffffffffffffffffffffffffffffffffff1673ffffffffffffffffffffffffffffffffffffffff163373ffffffffffffffffffffffffffffffffffffffff1614905090565b60025481565b60066020528060005260406000206000915054906101000a900473ffffffffffffffffffffffffffffffffffffffff1681565b610c12610b7a565b1515610cac576040517f08c379a000000000000000000000000000000000000000000000000000000000815260040180806020018281038252602a8152602001807f43616e206f6e6c792062652065786563757465642062792074686520676f766581526020017f726e696e6720626f64790000000000000000000000000000000000000000000081525060400191505060405180910390fd5b610cb581610e53565b50565b600481815481101515610cc757fe5b9060005260206000209060060201600091509050806000018054600181600116156101000203166002900480601f016020809104026020016040519081016040528092919081815260200182805460018160011615610100020316600290048015610d735780601f10610d4857610100808354040283529160200191610d73565b820191906000526020600020905b815481529060010190602001808311610d5657829003601f168201915b5050505050908060010154908060020154908060030160009054906101000a900473ffffffffffffffffffffffffffffffffffffffff1690806004015490806005018054600181600116156101000203166002900480601f016020809104026020016040519081016040528092919081815260200182805460018160011615610100020316600290048015610e495780601f10610e1e57610100808354040283529160200191610e49565b820191906000526020600020905b815481529060010190602001808311610e2c57829003601f168201915b5050505050905086565b600073ffffffffffffffffffffffffffffffffffffffff168173ffffffffffffffffffffffffffffffffffffffff1614151515610e8f57600080fd5b8073ffffffffffffffffffffffffffffffffffffffff166000809054906101000a900473ffffffffffffffffffffffffffffffffffffffff1673ffffffffffffffffffffffffffffffffffffffff167f8be0079c531659141344cd1fd0a4f28419497f9722a3daafe3b4186f6b6457e060405160405180910390a3806000806101000a81548173ffffffffffffffffffffffffffffffffffffffff021916908373ffffffffffffffffffffffffffffffffffffffff16021790555050565b828054600181600116156101000203166002900490600052602060002090601f016020900481019282601f10610f8e57805160ff1916838001178555610fbc565b82800160010185558215610fbc579182015b82811115610fbb578251825591602001919060010190610fa0565b5b509050610fc99190610fcd565b5090565b610fef91905b80821115610feb576000816000905550600101610fd3565b5090565b905600a165627a7a723058200cfa1361377688e43d42dff4f8cb568057258b4729e4553a5baa826ebfdb63680029",
  "source": "pragma solidity ^0.4.23;\r\n\r\nimport \"./Ownable.sol\";\r\nimport \"./SafeMath.sol\";\r\n\r\ncontract TokenFactory is Ownable {\r\n    using SafeMath for uint256;\r\n\r\n    event NewProperty(string name, address mainOwner, uint sqFt, uint propId);\r\n\r\n    struct Token {\r\n        uint propId;\r\n        uint boughtAtValuePerSqFt;\r\n        uint sellValPerSqFt; // 0 implies not to sell\r\n        uint rentValPerSqFtPerDay; // 0 implies not set\r\n    }\r\n\r\n    struct Property {\r\n        string name;\r\n        uint sqFt;\r\n        uint rentedAtValue; // 0 implies not rented\r\n        address rentedBy;\r\n        uint rentedUntil;\r\n        string docsHash; // on IPFS\r\n    }\r\n\r\n    uint public noOfTokens = 0;\r\n    uint public noOfProperties = 0;\r\n    Token[] public tokens;\r\n    Property[] public props;\r\n    mapping(uint => address) public token2Owner;\r\n    mapping(uint => address) public property2MainOwner;\r\n\r\n    function newProperty(string _name, address _main_owner, uint _sqFt, uint _boughtAtValuePerSqFt, uint _sellValPerSqFt, uint _rentValPerSqFtPerDay, string image) public onlyOwner\r\n    {\r\n        uint propId = props.push(Property(_name, _sqFt, 0, address(0), 0, image)) - 1;\r\n        noOfProperties++;\r\n        property2MainOwner[propId] = _main_owner;\r\n        emit NewProperty(_name, _main_owner, _sqFt, propId);\r\n        for (uint i = 0; i < _sqFt; i++) {\r\n            uint id = tokens.push(Token(propId, _boughtAtValuePerSqFt, _sellValPerSqFt, _rentValPerSqFtPerDay)) - 1;\r\n            noOfTokens++;\r\n            token2Owner[id] = _main_owner;\r\n        }\r\n    }\r\n}\r\n",
  "sourcePath": "E:\\projects_workspaces\\competitions\\GlobalBlockchainHackathon\\EstateChain\\contracts\\TokenFactory.sol",
  "compiler": {
    "name": "solc",
    "version": "0.4.23+commit.124ca40d.Emscripten.clang"
  },
  "schemaVersion": "2.0.0",
  "updatedAt": "2018-12-22T08:28:10.605Z"
}