{
  "contractName": "TokenRental",
  "abi": [
    {
      "constant": false,
      "inputs": [
        {
          "name": "_name",
          "type": "string"
        },
        {
          "name": "_main_owner",
          "type": "address"
        },
        {
          "name": "_sqFt",
          "type": "uint256"
        },
        {
          "name": "_boughtAtValuePerSqFt",
          "type": "uint256"
        },
        {
          "name": "_sellValPerSqFt",
          "type": "uint256"
        },
        {
          "name": "_rentValPerSqFtPerDay",
          "type": "uint256"
        }
      ],
      "name": "newProperty",
      "outputs": [],
      "payable": false,
      "stateMutability": "nonpayable",
      "type": "function"
    },
    {
      "constant": true,
      "inputs": [
        {
          "name": "",
          "type": "uint256"
        }
      ],
      "name": "token2Owner",
      "outputs": [
        {
          "name": "",
          "type": "address"
        }
      ],
      "payable": false,
      "stateMutability": "view",
      "type": "function"
    },
    {
      "constant": true,
      "inputs": [],
      "name": "noOfTokens",
      "outputs": [
        {
          "name": "",
          "type": "uint256"
        }
      ],
      "payable": false,
      "stateMutability": "view",
      "type": "function"
    },
    {
      "constant": true,
      "inputs": [],
      "name": "propertyTaxPercentage",
      "outputs": [
        {
          "name": "",
          "type": "uint256"
        }
      ],
      "payable": false,
      "stateMutability": "view",
      "type": "function"
    },
    {
      "constant": false,
      "inputs": [
        {
          "name": "_percentage",
          "type": "uint256"
        }
      ],
      "name": "setPropertyTaxPercentage",
      "outputs": [],
      "payable": false,
      "stateMutability": "nonpayable",
      "type": "function"
    },
    {
      "constant": true,
      "inputs": [
        {
          "name": "",
          "type": "uint256"
        }
      ],
      "name": "tokens",
      "outputs": [
        {
          "name": "propId",
          "type": "uint256"
        },
        {
          "name": "boughtAtValuePerSqFt",
          "type": "uint256"
        },
        {
          "name": "sellValPerSqFt",
          "type": "uint256"
        },
        {
          "name": "rentValPerSqFtPerDay",
          "type": "uint256"
        }
      ],
      "payable": false,
      "stateMutability": "view",
      "type": "function"
    },
    {
      "constant": false,
      "inputs": [
        {
          "name": "_tokenId",
          "type": "uint256"
        },
        {
          "name": "_newRentValPerSqFtPerDay",
          "type": "uint256"
        }
      ],
      "name": "setRentValPerSqFtPerDay",
      "outputs": [],
      "payable": false,
      "stateMutability": "nonpayable",
      "type": "function"
    },
    {
      "constant": false,
      "inputs": [
        {
          "name": "_propId",
          "type": "uint256"
        },
        {
          "name": "_newDocsHash",
          "type": "string"
        }
      ],
      "name": "changeDocsHash",
      "outputs": [],
      "payable": false,
      "stateMutability": "nonpayable",
      "type": "function"
    },
    {
      "constant": false,
      "inputs": [],
      "name": "renounceOwnership",
      "outputs": [],
      "payable": false,
      "stateMutability": "nonpayable",
      "type": "function"
    },
    {
      "constant": false,
      "inputs": [
        {
          "name": "_percentage",
          "type": "uint256"
        }
      ],
      "name": "setMainOwnerSharePercentage",
      "outputs": [],
      "payable": false,
      "stateMutability": "nonpayable",
      "type": "function"
    },
    {
      "constant": true,
      "inputs": [],
      "name": "owner",
      "outputs": [
        {
          "name": "",
          "type": "address"
        }
      ],
      "payable": false,
      "stateMutability": "view",
      "type": "function"
    },
    {
      "constant": true,
      "inputs": [],
      "name": "isOwner",
      "outputs": [
        {
          "name": "",
          "type": "bool"
        }
      ],
      "payable": false,
      "stateMutability": "view",
      "type": "function"
    },
    {
      "constant": false,
      "inputs": [
        {
          "name": "_tokenId",
          "type": "uint256"
        },
        {
          "name": "_newSellValPerSqFt",
          "type": "uint256"
        }
      ],
      "name": "setSellValPerSqFt",
      "outputs": [],
      "payable": false,
      "stateMutability": "nonpayable",
      "type": "function"
    },
    {
      "constant": true,
      "inputs": [],
      "name": "mainOwnerSharePercentage",
      "outputs": [
        {
          "name": "",
          "type": "uint256"
        }
      ],
      "payable": false,
      "stateMutability": "view",
      "type": "function"
    },
    {
      "constant": false,
      "inputs": [
        {
          "name": "_propId",
          "type": "uint256"
        },
        {
          "name": "_newSqFt",
          "type": "uint256"
        }
      ],
      "name": "increaseArea",
      "outputs": [],
      "payable": false,
      "stateMutability": "nonpayable",
      "type": "function"
    },
    {
      "constant": true,
      "inputs": [
        {
          "name": "",
          "type": "uint256"
        }
      ],
      "name": "property2MainOwner",
      "outputs": [
        {
          "name": "",
          "type": "address"
        }
      ],
      "payable": false,
      "stateMutability": "view",
      "type": "function"
    },
    {
      "constant": false,
      "inputs": [
        {
          "name": "newOwner",
          "type": "address"
        }
      ],
      "name": "transferOwnership",
      "outputs": [],
      "payable": false,
      "stateMutability": "nonpayable",
      "type": "function"
    },
    {
      "constant": true,
      "inputs": [
        {
          "name": "",
          "type": "uint256"
        }
      ],
      "name": "props",
      "outputs": [
        {
          "name": "name",
          "type": "string"
        },
        {
          "name": "sqFt",
          "type": "uint256"
        },
        {
          "name": "rentedAtValue",
          "type": "uint256"
        },
        {
          "name": "rentedBy",
          "type": "address"
        },
        {
          "name": "rentedUntil",
          "type": "uint256"
        },
        {
          "name": "docsHash",
          "type": "string"
        }
      ],
      "payable": false,
      "stateMutability": "view",
      "type": "function"
    },
    {
      "anonymous": false,
      "inputs": [
        {
          "indexed": false,
          "name": "propId",
          "type": "uint256"
        },
        {
          "indexed": false,
          "name": "rentVal",
          "type": "uint256"
        },
        {
          "indexed": false,
          "name": "_days",
          "type": "uint256"
        }
      ],
      "name": "Rented",
      "type": "event"
    },
    {
      "anonymous": false,
      "inputs": [
        {
          "indexed": false,
          "name": "name",
          "type": "string"
        },
        {
          "indexed": false,
          "name": "mainOwner",
          "type": "address"
        },
        {
          "indexed": false,
          "name": "sqFt",
          "type": "uint256"
        },
        {
          "indexed": false,
          "name": "propId",
          "type": "uint256"
        }
      ],
      "name": "NewProperty",
      "type": "event"
    },
    {
      "anonymous": false,
      "inputs": [
        {
          "indexed": true,
          "name": "previousOwner",
          "type": "address"
        },
        {
          "indexed": true,
          "name": "newOwner",
          "type": "address"
        }
      ],
      "name": "OwnershipTransferred",
      "type": "event"
    },
    {
      "constant": true,
      "inputs": [
        {
          "name": "_propId",
          "type": "uint256"
        }
      ],
      "name": "calcRentPerSqFtPerDay",
      "outputs": [
        {
          "name": "",
          "type": "uint256"
        }
      ],
      "payable": false,
      "stateMutability": "view",
      "type": "function"
    },
    {
      "constant": false,
      "inputs": [
        {
          "name": "_propId",
          "type": "uint256"
        },
        {
          "name": "_days",
          "type": "uint256"
        }
      ],
      "name": "Rent",
      "outputs": [],
      "payable": true,
      "stateMutability": "payable",
      "type": "function"
    }
  ],
  "bytecode": "0x60806040526000600155600a6006556005600755336000806101000a81548173ffffffffffffffffffffffffffffffffffffffff021916908373ffffffffffffffffffffffffffffffffffffffff1602179055506000809054906101000a900473ffffffffffffffffffffffffffffffffffffffff1673ffffffffffffffffffffffffffffffffffffffff16600073ffffffffffffffffffffffffffffffffffffffff167f8be0079c531659141344cd1fd0a4f28419497f9722a3daafe3b4186f6b6457e060405160405180910390a36117f4806100de6000396000f300608060405260043610610112576000357c0100000000000000000000000000000000000000000000000000000000900463ffffffff1680630175bc26146101175780631dca7fcf146101c857806336e9b34414610235578063374a12bf146102605780633c0d2db41461028b5780633f433efa146102cc5780634f64b2be146102f9578063594a45241461034f578063659bdfb514610386578063672799e9146103b0578063715018a6146103f557806383f85d3b1461040c5780638da5cb5b146104395780638f32d59b146104905780639c130474146104bf5780639efb887f146104f6578063cd49912814610521578063dea6a04b14610558578063f2fde38b146105c5578063fda54c1614610608575b600080fd5b34801561012357600080fd5b506101c6600480360381019080803590602001908201803590602001908080601f0160208091040260200160405190810160405280939291908181526020018383808284378201915050505050509192919290803573ffffffffffffffffffffffffffffffffffffffff16906020019092919080359060200190929190803590602001909291908035906020019092919080359060200190929190505050610762565b005b3480156101d457600080fd5b506101f360048036038101908080359060200190929190505050610add565b604051808273ffffffffffffffffffffffffffffffffffffffff1673ffffffffffffffffffffffffffffffffffffffff16815260200191505060405180910390f35b34801561024157600080fd5b5061024a610b10565b6040518082815260200191505060405180910390f35b34801561026c57600080fd5b50610275610b16565b6040518082815260200191505060405180910390f35b34801561029757600080fd5b506102b660048036038101908080359060200190929190505050610b1c565b6040518082815260200191505060405180910390f35b3480156102d857600080fd5b506102f760048036038101908080359060200190929190505050610bcd565b005b34801561030557600080fd5b5061032460048036038101908080359060200190929190505050610bea565b6040518085815260200184815260200183815260200182815260200194505050505060405180910390f35b34801561035b57600080fd5b506103846004803603810190808035906020019092919080359060200190929190505050610c29565b005b6103ae6004803603810190808035906020019092919080359060200190929190505050610cc1565b005b3480156103bc57600080fd5b506103f360048036038101908080359060200190929190803590602001908201803590602001919091929391929390505050610fde565b005b34801561040157600080fd5b5061040a611082565b005b34801561041857600080fd5b5061043760048036038101908080359060200190929190505050611154565b005b34801561044557600080fd5b5061044e611171565b604051808273ffffffffffffffffffffffffffffffffffffffff1673ffffffffffffffffffffffffffffffffffffffff16815260200191505060405180910390f35b34801561049c57600080fd5b506104a561119a565b604051808215151515815260200191505060405180910390f35b3480156104cb57600080fd5b506104f460048036038101908080359060200190929190803590602001909291905050506111f1565b005b34801561050257600080fd5b5061050b611289565b6040518082815260200191505060405180910390f35b34801561052d57600080fd5b50610556600480360381019080803590602001909291908035906020019092919050505061128f565b005b34801561056457600080fd5b5061058360048036038101908080359060200190929190505050611333565b604051808273ffffffffffffffffffffffffffffffffffffffff1673ffffffffffffffffffffffffffffffffffffffff16815260200191505060405180910390f35b3480156105d157600080fd5b50610606600480360381019080803573ffffffffffffffffffffffffffffffffffffffff169060200190929190505050611366565b005b34801561061457600080fd5b5061063360048036038101908080359060200190929190505050611385565b60405180806020018781526020018681526020018573ffffffffffffffffffffffffffffffffffffffff1673ffffffffffffffffffffffffffffffffffffffff16815260200184815260200180602001838103835289818151815260200191508051906020019080838360005b838110156106bb5780820151818401526020810190506106a0565b50505050905090810190601f1680156106e85780820380516001836020036101000a031916815260200191505b50838103825284818151815260200191508051906020019080838360005b83811015610721578082015181840152602081019050610706565b50505050905090810190601f16801561074e5780820380516001836020036101000a031916815260200191505b509850505050505050505060405180910390f35b600080600061076f61119a565b151561077a57600080fd5b6001600360c0604051908101604052808c81526020018a815260200160008152602001600073ffffffffffffffffffffffffffffffffffffffff16815260200160008152602001602060405190810160405280600081525081525090806001815401808255809150509060018203906000526020600020906006020160009091929091909150600082015181600001908051906020019061081c9291906116a3565b50602082015181600101556040820151816002015560608201518160030160006101000a81548173ffffffffffffffffffffffffffffffffffffffff021916908373ffffffffffffffffffffffffffffffffffffffff1602179055506080820151816004015560a082015181600501908051906020019061089e9291906116a3565b505050039250876005600085815260200190815260200160002060006101000a81548173ffffffffffffffffffffffffffffffffffffffff021916908373ffffffffffffffffffffffffffffffffffffffff1602179055507f1ef7277f4643471582713ead0a4c4673adc2449aa6000b727480ac8a8e06c84c8989898660405180806020018573ffffffffffffffffffffffffffffffffffffffff1673ffffffffffffffffffffffffffffffffffffffff168152602001848152602001838152602001828103825286818151815260200191508051906020019080838360005b8381101561099957808201518184015260208101905061097e565b50505050905090810190601f1680156109c65780820380516001836020036101000a031916815260200191505b509550505050505060405180910390a1600091505b86821015610ad257600160026080604051908101604052808681526020018981526020018881526020018781525090806001815401808255809150509060018203906000526020600020906004020160009091929091909150600082015181600001556020820151816001015560408201518160020155606082015181600301555050039050600160008154809291906001019190505550876004600083815260200190815260200160002060006101000a81548173ffffffffffffffffffffffffffffffffffffffff021916908373ffffffffffffffffffffffffffffffffffffffff16021790555081806001019250506109db565b505050505050505050565b60046020528060005260406000206000915054906101000a900473ffffffffffffffffffffffffffffffffffffffff1681565b60015481565b60075481565b6000806000809150600090505b600154811015610b8e5783600282815481101515610b4357fe5b9060005260206000209060040201600001541415610b8157600281815481101515610b6a57fe5b906000526020600020906004020160030154820191505b8080600101915050610b29565b610bc1600385815481101515610ba057fe5b9060005260206000209060060201600101548361152090919063ffffffff16565b91508192505050919050565b610bd561119a565b1515610be057600080fd5b8060078190555050565b600281815481101515610bf957fe5b90600052602060002090600402016000915090508060000154908060010154908060020154908060030154905084565b816004600082815260200190815260200160002060009054906101000a900473ffffffffffffffffffffffffffffffffffffffff1673ffffffffffffffffffffffffffffffffffffffff163373ffffffffffffffffffffffffffffffffffffffff16141515610c9757600080fd5b81600284815481101515610ca757fe5b906000526020600020906004020160030181905550505050565b6000806000806000610cd287610b1c565b9450610d19600388815481101515610ce657fe5b906000526020600020906006020160010154610d0b888861154a90919063ffffffff16565b61154a90919063ffffffff16565b93508334141515610d2957600080fd5b610d516064610d436006548761154a90919063ffffffff16565b61152090919063ffffffff16565b92506005600088815260200190815260200160002060009054906101000a900473ffffffffffffffffffffffffffffffffffffffff1673ffffffffffffffffffffffffffffffffffffffff166108fc849081150290604051600060405180830381858888f19350505050158015610dcc573d6000803e3d6000fd5b508284039350600091505b600154821015610ec65786600283815481101515610df157fe5b9060005260206000209060040201600001541415610eb9576004600083815260200190815260200160002060009054906101000a900473ffffffffffffffffffffffffffffffffffffffff1690508073ffffffffffffffffffffffffffffffffffffffff166108fc610e8c60038a815481101515610e6b57fe5b9060005260206000209060060201600101548761152090919063ffffffff16565b9081150290604051600060405180830381858888f19350505050158015610eb7573d6000803e3d6000fd5b505b8180600101925050610dd7565b33600388815481101515610ed657fe5b906000526020600020906006020160030160006101000a81548173ffffffffffffffffffffffffffffffffffffffff021916908373ffffffffffffffffffffffffffffffffffffffff16021790555084600388815481101515610f3557fe5b906000526020600020906006020160020181905550610f60620151808761154a90919063ffffffff16565b4201600388815481101515610f7157fe5b9060005260206000209060060201600401819055507f4106602d6aaa44a3e570bbeca832bb0e3d70c20a1ecca1658b166e1982cce73287610fb189610b1c565b8860405180848152602001838152602001828152602001935050505060405180910390a150505050505050565b826005600082815260200190815260200160002060009054906101000a900473ffffffffffffffffffffffffffffffffffffffff1673ffffffffffffffffffffffffffffffffffffffff163373ffffffffffffffffffffffffffffffffffffffff1614151561104c57600080fd5b828260038681548110151561105d57fe5b9060005260206000209060060201600501919061107b929190611723565b5050505050565b61108a61119a565b151561109557600080fd5b600073ffffffffffffffffffffffffffffffffffffffff166000809054906101000a900473ffffffffffffffffffffffffffffffffffffffff1673ffffffffffffffffffffffffffffffffffffffff167f8be0079c531659141344cd1fd0a4f28419497f9722a3daafe3b4186f6b6457e060405160405180910390a360008060006101000a81548173ffffffffffffffffffffffffffffffffffffffff021916908373ffffffffffffffffffffffffffffffffffffffff160217905550565b61115c61119a565b151561116757600080fd5b8060068190555050565b60008060009054906101000a900473ffffffffffffffffffffffffffffffffffffffff16905090565b60008060009054906101000a900473ffffffffffffffffffffffffffffffffffffffff1673ffffffffffffffffffffffffffffffffffffffff163373ffffffffffffffffffffffffffffffffffffffff1614905090565b816004600082815260200190815260200160002060009054906101000a900473ffffffffffffffffffffffffffffffffffffffff1673ffffffffffffffffffffffffffffffffffffffff163373ffffffffffffffffffffffffffffffffffffffff1614151561125f57600080fd5b8160028481548110151561126f57fe5b906000526020600020906004020160020181905550505050565b60065481565b600080600061129c61119a565b15156112a757600080fd5b6003858154811015156112b657fe5b906000526020600020906006020160010154925082841115156112d857600080fd5b836003868154811015156112e857fe5b906000526020600020906006020160010181905550611310838561158890919063ffffffff16565b9150600090505b8181101561132c578080600101915050611317565b5050505050565b60056020528060005260406000206000915054906101000a900473ffffffffffffffffffffffffffffffffffffffff1681565b61136e61119a565b151561137957600080fd5b611382816115a9565b50565b60038181548110151561139457fe5b9060005260206000209060060201600091509050806000018054600181600116156101000203166002900480601f0160208091040260200160405190810160405280929190818152602001828054600181600116156101000203166002900480156114405780601f1061141557610100808354040283529160200191611440565b820191906000526020600020905b81548152906001019060200180831161142357829003601f168201915b5050505050908060010154908060020154908060030160009054906101000a900473ffffffffffffffffffffffffffffffffffffffff1690806004015490806005018054600181600116156101000203166002900480601f0160208091040260200160405190810160405280929190818152602001828054600181600116156101000203166002900480156115165780601f106114eb57610100808354040283529160200191611516565b820191906000526020600020905b8154815290600101906020018083116114f957829003601f168201915b5050505050905086565b60008060008311151561153257600080fd5b828481151561153d57fe5b0490508091505092915050565b600080600084141561155f5760009150611581565b828402905082848281151561157057fe5b0414151561157d57600080fd5b8091505b5092915050565b60008083831115151561159a57600080fd5b82840390508091505092915050565b600073ffffffffffffffffffffffffffffffffffffffff168173ffffffffffffffffffffffffffffffffffffffff16141515156115e557600080fd5b8073ffffffffffffffffffffffffffffffffffffffff166000809054906101000a900473ffffffffffffffffffffffffffffffffffffffff1673ffffffffffffffffffffffffffffffffffffffff167f8be0079c531659141344cd1fd0a4f28419497f9722a3daafe3b4186f6b6457e060405160405180910390a3806000806101000a81548173ffffffffffffffffffffffffffffffffffffffff021916908373ffffffffffffffffffffffffffffffffffffffff16021790555050565b828054600181600116156101000203166002900490600052602060002090601f016020900481019282601f106116e457805160ff1916838001178555611712565b82800160010185558215611712579182015b828111156117115782518255916020019190600101906116f6565b5b50905061171f91906117a3565b5090565b828054600181600116156101000203166002900490600052602060002090601f016020900481019282601f1061176457803560ff1916838001178555611792565b82800160010185558215611792579182015b82811115611791578235825591602001919060010190611776565b5b50905061179f91906117a3565b5090565b6117c591905b808211156117c15760008160009055506001016117a9565b5090565b905600a165627a7a723058203c477c9ca8f2aa4f97fdd2a6c07f2c075639287d39f86bdecd849271e91279ae0029",
  "source": "pragma solidity ^0.4.23;\r\n\r\nimport \"./SafeMath.sol\";\r\nimport \"./TokenHelper.sol\";\r\n\r\ncontract TokenRental is TokenHelper {\r\n    using SafeMath for uint256;\r\n\r\n    event Rented(uint propId, uint rentVal, uint _days);\r\n\r\n    function calcRentPerSqFtPerDay(uint _propId) public view returns(uint) {\r\n        uint amount = 0;\r\n        for (uint i = 0; i < noOfTokens; i++)\r\n        {\r\n            if (tokens[i].propId == _propId)\r\n            {\r\n                amount += tokens[i].rentValPerSqFtPerDay;\r\n            }\r\n        }\r\n        amount = uint(amount.div(props[_propId].sqFt));\r\n        return amount;\r\n    }\r\n    function Rent(uint _propId, uint _days) external payable {\r\n        uint rentPerSqFtPerDay = calcRentPerSqFtPerDay(_propId);\r\n        uint rent = rentPerSqFtPerDay.mul(_days).mul(props[_propId].sqFt);\r\n        require(msg.value == rent);\r\n        uint mainOwnerShare = rent.mul(mainOwnerSharePercentage).div(100);\r\n        property2MainOwner[_propId].transfer(mainOwnerShare);\r\n        rent = rent - mainOwnerShare;\r\n//        uint uniqueOwners = 0;\r\n//        mapping(address=>uint) addressToSqFT;\r\n        // TODO some more efficient distribution mechanism\r\n        for(uint i=0; i<noOfTokens;i++) {\r\n            if(tokens[i].propId == _propId) {\r\n                address owner = token2Owner[i];\r\n                owner.transfer(rent.div(props[_propId].sqFt));\r\n            }\r\n        }\r\n        props[_propId].rentedBy = msg.sender;\r\n        props[_propId].rentedAtValue = rentPerSqFtPerDay;\r\n        props[_propId].rentedUntil = now + _days.mul(86400);\r\n        emit Rented(_propId, calcRentPerSqFtPerDay(_propId), _days);\r\n    }\r\n}\r\n",
  "sourcePath": "E:\\projects_workspaces\\competitions\\GlobalBlockchainHackathon\\EstateChain\\contracts\\TokenRental.sol",
  "compiler": {
    "name": "solc",
    "version": "0.4.23+commit.124ca40d.Emscripten.clang"
  },
  "schemaVersion": "2.0.0",
  "updatedAt": "2018-12-21T17:47:03.677Z"
}